{
	"data": {
		"bytecode": {
			"linkReferences": {},
			"object": "60c060405234801562000010575f80fd5b506040516200669c3803806200669c83398181016040528101906200003691906200010b565b8173ffffffffffffffffffffffffffffffffffffffff1660808173ffffffffffffffffffffffffffffffffffffffff16815250508073ffffffffffffffffffffffffffffffffffffffff1660a08173ffffffffffffffffffffffffffffffffffffffff1681525050505062000150565b5f80fd5b5f73ffffffffffffffffffffffffffffffffffffffff82169050919050565b5f620000d582620000aa565b9050919050565b620000e781620000c9565b8114620000f2575f80fd5b50565b5f815190506200010581620000dc565b92915050565b5f8060408385031215620001245762000123620000a6565b5b5f6200013385828601620000f5565b92505060206200014685828601620000f5565b9150509250929050565b60805160a051616394620003085f395f81816101700152818161075e0152818161079c0152818161089301528181610b3f01528181610c2901528181610ffe0152818161129d015281816113ad015281816117d20152818161198d01528181611a6a01528181611b4a01528181611cd601528181611d6d0152818161213e015281816121c001528181612273015281816123520152818161240b0152818161248801528181612a8b01528181612cf501528181612d4d01528181612d8101528181612dfe01528181612f930152818161311201526131a901525f818161095a01528181610a5d01528181610c5401528181610c8a01528181610dc801528181610ecb015281816110c5015281816111bb0152818161138b0152818161150a015281816118c501528181611c0201528181611dac01528181611f5b01528181612051015281816124c7015281816127fa01528181612a0a01528181612a3301528181612a6901528181612bdd01528181612d2b0152818161304b015281816131e801528181613ad201528181613b2601528181613e2801528181614029015281816144ad01528181614562015261460401526163945ff3fe608060405260043610610169575f3560e01c806385f8c259116100d0578063baa2abde11610089578063ded9382a11610063578063ded9382a14610635578063e8e3370014610672578063f305d719146106b0578063fb3bdb41146106e2576101cc565b8063baa2abde14610592578063c45a0155146105cf578063d06ca61f146105f9576101cc565b806385f8c2591461045c5780638803dbee14610498578063ad5c4648146104d4578063ad615dec146104fe578063af2979eb1461053a578063b6f9de9514610576576101cc565b806338ed17391161012257806338ed1739146103285780634a25d94a146103645780635b0d5984146103a05780635c11d795146103dc578063791ac947146104045780637ff36ab51461042c576101cc565b806302751cec146101d0578063054d50d41461020d57806318cbafe5146102495780631bad4d2c146102855780631f00ca74146102af5780632195995c146102eb576101cc565b366101cc577f000000000000000000000000000000000000000000000000000000000000000073ffffffffffffffffffffffffffffffffffffffff163373ffffffffffffffffffffffffffffffffffffffff16146101ca576101c96148f6565b5b005b5f80fd5b3480156101db575f80fd5b506101f660048036038101906101f191906149c1565b610712565b604051610204929190614a59565b60405180910390f35b348015610218575f80fd5b50610233600480360381019061022e9190614a80565b610836565b6040516102409190614ad0565b60405180910390f35b348015610254575f80fd5b5061026f600480360381019061026a9190614b4a565b61084b565b60405161027c9190614c97565b60405180910390f35b348015610290575f80fd5b50610299610c26565b6040516102a69190614cc6565b60405180910390f35b3480156102ba575f80fd5b506102d560048036038101906102d09190614e27565b610c4d565b6040516102e29190614c97565b60405180910390f35b3480156102f6575f80fd5b50610311600480360381019061030c9190614f1f565b610c82565b60405161031f929190614a59565b60405180910390f35b348015610333575f80fd5b5061034e60048036038101906103499190614b4a565b610d7d565b60405161035b9190614c97565b60405180910390f35b34801561036f575f80fd5b5061038a60048036038101906103859190614b4a565b610fb6565b6040516103979190614c97565b60405180910390f35b3480156103ab575f80fd5b506103c660048036038101906103c1919061500c565b611384565b6040516103d39190614ad0565b60405180910390f35b3480156103e7575f80fd5b5061040260048036038101906103fd9190614b4a565b611495565b005b34801561040f575f80fd5b5061042a60048036038101906104259190614b4a565b61178c565b005b610446600480360381019061044191906150e5565b611b02565b6040516104539190614c97565b60405180910390f35b348015610467575f80fd5b50610482600480360381019061047d9190614a80565b611efb565b60405161048f9190614ad0565b60405180910390f35b3480156104a3575f80fd5b506104be60048036038101906104b99190614b4a565b611f10565b6040516104cb9190614c97565b60405180910390f35b3480156104df575f80fd5b506104e861213c565b6040516104f59190614cc6565b60405180910390f35b348015610509575f80fd5b50610524600480360381019061051f9190614a80565b612160565b6040516105319190614ad0565b60405180910390f35b348015610545575f80fd5b50610560600480360381019061055b91906149c1565b612175565b60405161056d9190614ad0565b60405180910390f35b610590600480360381019061058b91906150e5565b61230c565b005b34801561059d575f80fd5b506105b860048036038101906105b39190615169565b6127ae565b6040516105c6929190614a59565b60405180910390f35b3480156105da575f80fd5b506105e3612a08565b6040516105f09190614cc6565b60405180910390f35b348015610604575f80fd5b5061061f600480360381019061061a9190614e27565b612a2c565b60405161062c9190614c97565b60405180910390f35b348015610640575f80fd5b5061065b6004803603810190610656919061500c565b612a61565b604051610669929190614a59565b60405180910390f35b34801561067d575f80fd5b5061069860048036038101906106939190615206565b612b7a565b6040516106a7939291906152b7565b60405180910390f35b6106ca60048036038101906106c591906149c1565b612ca8565b6040516106d9939291906152b7565b60405180910390f35b6106fc60048036038101906106f791906150e5565b612f4b565b6040516107099190614c97565b60405180910390f35b5f808242811015610758576040517f08c379a000000000000000000000000000000000000000000000000000000000815260040161074f90615346565b60405180910390fd5b610787897f00000000000000000000000000000000000000000000000000000000000000008a8a8a308a6127ae565b809350819450505061079a898685613389565b7f000000000000000000000000000000000000000000000000000000000000000073ffffffffffffffffffffffffffffffffffffffff16632e1a7d4d836040518263ffffffff1660e01b81526004016107f39190614ad0565b5f604051808303815f87803b15801561080a575f80fd5b505af115801561081c573d5f803e3d5ffd5b5050505061082a85836134b9565b50965096945050505050565b5f6108428484846135b4565b90509392505050565b60608142811015610891576040517f08c379a000000000000000000000000000000000000000000000000000000000815260040161088890615346565b60405180910390fd5b7f000000000000000000000000000000000000000000000000000000000000000073ffffffffffffffffffffffffffffffffffffffff1686866001898990506108da9190615391565b8181106108ea576108e96153c4565b5b90506020020160208101906108ff91906153f1565b73ffffffffffffffffffffffffffffffffffffffff1614610955576040517f08c379a000000000000000000000000000000000000000000000000000000000815260040161094c90615466565b60405180910390fd5b6109c07f0000000000000000000000000000000000000000000000000000000000000000898888808060200260200160405190810160405280939291908181526020018383602002808284375f81840152601f19601f820116905080830192505050505050506136b4565b91508682600184516109d29190615391565b815181106109e3576109e26153c4565b5b60200260200101511015610a2c576040517f08c379a0000000000000000000000000000000000000000000000000000000008152600401610a23906154f4565b60405180910390fd5b610af286865f818110610a4257610a416153c4565b5b9050602002016020810190610a5791906153f1565b33610ad27f00000000000000000000000000000000000000000000000000000000000000008a8a5f818110610a8f57610a8e6153c4565b5b9050602002016020810190610aa491906153f1565b8b8b6001818110610ab857610ab76153c4565b5b9050602002016020810190610acd91906153f1565b613836565b855f81518110610ae557610ae46153c4565b5b60200260200101516138a5565b610b3d828787808060200260200160405190810160405280939291908181526020018383602002808284375f81840152601f19601f82011690508083019250505050505050306139d8565b7f000000000000000000000000000000000000000000000000000000000000000073ffffffffffffffffffffffffffffffffffffffff16632e1a7d4d8360018551610b889190615391565b81518110610b9957610b986153c4565b5b60200260200101516040518263ffffffff1660e01b8152600401610bbd9190614ad0565b5f604051808303815f87803b158015610bd4575f80fd5b505af1158015610be6573d5f803e3d5ffd5b50505050610c1b848360018551610bfd9190615391565b81518110610c0e57610c0d6153c4565b5b60200260200101516134b9565b509695505050505050565b5f7f0000000000000000000000000000000000000000000000000000000000000000905090565b6060610c7a7f00000000000000000000000000000000000000000000000000000000000000008484613c1d565b905092915050565b5f805f610cb07f00000000000000000000000000000000000000000000000000000000000000008f8f613836565b90505f87610cbe578c610ce0565b7fffffffffffffffffffffffffffffffffffffffffffffffffffffffffffffffff5b90508173ffffffffffffffffffffffffffffffffffffffff1663d505accf3330848d8c8c8c6040518863ffffffff1660e01b8152600401610d279796959493929190615530565b5f604051808303815f87803b158015610d3e575f80fd5b505af1158015610d50573d5f803e3d5ffd5b50505050610d638f8f8f8f8f8f8f6127ae565b809450819550505050509b509b9950505050505050505050565b60608142811015610dc3576040517f08c379a0000000000000000000000000000000000000000000000000000000008152600401610dba90615346565b60405180910390fd5b610e2e7f0000000000000000000000000000000000000000000000000000000000000000898888808060200260200160405190810160405280939291908181526020018383602002808284375f81840152601f19601f820116905080830192505050505050506136b4565b9150868260018451610e409190615391565b81518110610e5157610e506153c4565b5b60200260200101511015610e9a576040517f08c379a0000000000000000000000000000000000000000000000000000000008152600401610e91906154f4565b60405180910390fd5b610f6086865f818110610eb057610eaf6153c4565b5b9050602002016020810190610ec591906153f1565b33610f407f00000000000000000000000000000000000000000000000000000000000000008a8a5f818110610efd57610efc6153c4565b5b9050602002016020810190610f1291906153f1565b8b8b6001818110610f2657610f256153c4565b5b9050602002016020810190610f3b91906153f1565b613836565b855f81518110610f5357610f526153c4565b5b60200260200101516138a5565b610fab828787808060200260200160405190810160405280939291908181526020018383602002808284375f81840152601f19601f82011690508083019250505050505050866139d8565b509695505050505050565b60608142811015610ffc576040517f08c379a0000000000000000000000000000000000000000000000000000000008152600401610ff390615346565b60405180910390fd5b7f000000000000000000000000000000000000000000000000000000000000000073ffffffffffffffffffffffffffffffffffffffff1686866001898990506110459190615391565b818110611055576110546153c4565b5b905060200201602081019061106a91906153f1565b73ffffffffffffffffffffffffffffffffffffffff16146110c0576040517f08c379a00000000000000000000000000000000000000000000000000000000081526004016110b790615466565b60405180910390fd5b61112b7f0000000000000000000000000000000000000000000000000000000000000000898888808060200260200160405190810160405280939291908181526020018383602002808284375f81840152601f19601f82011690508083019250505050505050613c1d565b915086825f81518110611141576111406153c4565b5b6020026020010151111561118a576040517f08c379a00000000000000000000000000000000000000000000000000000000081526004016111819061560d565b60405180910390fd5b61125086865f8181106111a05761119f6153c4565b5b90506020020160208101906111b591906153f1565b336112307f00000000000000000000000000000000000000000000000000000000000000008a8a5f8181106111ed576111ec6153c4565b5b905060200201602081019061120291906153f1565b8b8b6001818110611216576112156153c4565b5b905060200201602081019061122b91906153f1565b613836565b855f81518110611243576112426153c4565b5b60200260200101516138a5565b61129b828787808060200260200160405190810160405280939291908181526020018383602002808284375f81840152601f19601f82011690508083019250505050505050306139d8565b7f000000000000000000000000000000000000000000000000000000000000000073ffffffffffffffffffffffffffffffffffffffff16632e1a7d4d83600185516112e69190615391565b815181106112f7576112f66153c4565b5b60200260200101516040518263ffffffff1660e01b815260040161131b9190614ad0565b5f604051808303815f87803b158015611332575f80fd5b505af1158015611344573d5f803e3d5ffd5b5050505061137984836001855161135b9190615391565b8151811061136c5761136b6153c4565b5b60200260200101516134b9565b509695505050505050565b5f806113d17f00000000000000000000000000000000000000000000000000000000000000008d7f0000000000000000000000000000000000000000000000000000000000000000613836565b90505f866113df578b611401565b7fffffffffffffffffffffffffffffffffffffffffffffffffffffffffffffffff5b90508173ffffffffffffffffffffffffffffffffffffffff1663d505accf3330848c8b8b8b6040518863ffffffff1660e01b81526004016114489796959493929190615530565b5f604051808303815f87803b15801561145f575f80fd5b505af1158015611471573d5f803e3d5ffd5b505050506114838d8d8d8d8d8d612175565b925050509a9950505050505050505050565b80428110156114d9576040517f08c379a00000000000000000000000000000000000000000000000000000000081526004016114d090615346565b60405180910390fd5b61158585855f8181106114ef576114ee6153c4565b5b905060200201602081019061150491906153f1565b3361157f7f000000000000000000000000000000000000000000000000000000000000000089895f81811061153c5761153b6153c4565b5b905060200201602081019061155191906153f1565b8a8a6001818110611565576115646153c4565b5b905060200201602081019061157a91906153f1565b613836565b8a6138a5565b5f85856001888890506115989190615391565b8181106115a8576115a76153c4565b5b90506020020160208101906115bd91906153f1565b73ffffffffffffffffffffffffffffffffffffffff166370a08231856040518263ffffffff1660e01b81526004016115f59190614cc6565b602060405180830381865afa158015611610573d5f803e3d5ffd5b505050506040513d601f19601f82011682018060405250810190611634919061563f565b90506116808686808060200260200160405190810160405280939291908181526020018383602002808284375f81840152601f19601f8201169050808301925050505050505085613db5565b8661174182888860018b8b90506116979190615391565b8181106116a7576116a66153c4565b5b90506020020160208101906116bc91906153f1565b73ffffffffffffffffffffffffffffffffffffffff166370a08231886040518263ffffffff1660e01b81526004016116f49190614cc6565b602060405180830381865afa15801561170f573d5f803e3d5ffd5b505050506040513d601f19601f82011682018060405250810190611733919061563f565b61414b90919063ffffffff16565b1015611782576040517f08c379a0000000000000000000000000000000000000000000000000000000008152600401611779906154f4565b60405180910390fd5b5050505050505050565b80428110156117d0576040517f08c379a00000000000000000000000000000000000000000000000000000000081526004016117c790615346565b60405180910390fd5b7f000000000000000000000000000000000000000000000000000000000000000073ffffffffffffffffffffffffffffffffffffffff1685856001888890506118199190615391565b818110611829576118286153c4565b5b905060200201602081019061183e91906153f1565b73ffffffffffffffffffffffffffffffffffffffff1614611894576040517f08c379a000000000000000000000000000000000000000000000000000000000815260040161188b90615466565b60405180910390fd5b61194085855f8181106118aa576118a96153c4565b5b90506020020160208101906118bf91906153f1565b3361193a7f000000000000000000000000000000000000000000000000000000000000000089895f8181106118f7576118f66153c4565b5b905060200201602081019061190c91906153f1565b8a8a60018181106119205761191f6153c4565b5b905060200201602081019061193591906153f1565b613836565b8a6138a5565b61198a8585808060200260200160405190810160405280939291908181526020018383602002808284375f81840152601f19601f8201169050808301925050505050505030613db5565b5f7f000000000000000000000000000000000000000000000000000000000000000073ffffffffffffffffffffffffffffffffffffffff166370a08231306040518263ffffffff1660e01b81526004016119e49190614cc6565b602060405180830381865afa1580156119ff573d5f803e3d5ffd5b505050506040513d601f19601f82011682018060405250810190611a23919061563f565b905086811015611a68576040517f08c379a0000000000000000000000000000000000000000000000000000000008152600401611a5f906154f4565b60405180910390fd5b7f000000000000000000000000000000000000000000000000000000000000000073ffffffffffffffffffffffffffffffffffffffff16632e1a7d4d826040518263ffffffff1660e01b8152600401611ac19190614ad0565b5f604051808303815f87803b158015611ad8575f80fd5b505af1158015611aea573d5f803e3d5ffd5b50505050611af884826134b9565b5050505050505050565b60608142811015611b48576040517f08c379a0000000000000000000000000000000000000000000000000000000008152600401611b3f90615346565b60405180910390fd5b7f000000000000000000000000000000000000000000000000000000000000000073ffffffffffffffffffffffffffffffffffffffff1686865f818110611b9257611b916153c4565b5b9050602002016020810190611ba791906153f1565b73ffffffffffffffffffffffffffffffffffffffff1614611bfd576040517f08c379a0000000000000000000000000000000000000000000000000000000008152600401611bf490615466565b60405180910390fd5b611c687f0000000000000000000000000000000000000000000000000000000000000000348888808060200260200160405190810160405280939291908181526020018383602002808284375f81840152601f19601f820116905080830192505050505050506136b4565b9150868260018451611c7a9190615391565b81518110611c8b57611c8a6153c4565b5b60200260200101511015611cd4576040517f08c379a0000000000000000000000000000000000000000000000000000000008152600401611ccb906154f4565b60405180910390fd5b7f000000000000000000000000000000000000000000000000000000000000000073ffffffffffffffffffffffffffffffffffffffff1663d0e30db0835f81518110611d2357611d226153c4565b5b60200260200101516040518263ffffffff1660e01b81526004015f604051808303818588803b158015611d54575f80fd5b505af1158015611d66573d5f803e3d5ffd5b50505050507f000000000000000000000000000000000000000000000000000000000000000073ffffffffffffffffffffffffffffffffffffffff1663a9059cbb611e217f000000000000000000000000000000000000000000000000000000000000000089895f818110611dde57611ddd6153c4565b5b9050602002016020810190611df391906153f1565b8a8a6001818110611e0757611e066153c4565b5b9050602002016020810190611e1c91906153f1565b613836565b845f81518110611e3457611e336153c4565b5b60200260200101516040518363ffffffff1660e01b8152600401611e5992919061566a565b6020604051808303815f875af1158015611e75573d5f803e3d5ffd5b505050506040513d601f19601f82011682018060405250810190611e9991906156a5565b611ea657611ea56148f6565b5b611ef1828787808060200260200160405190810160405280939291908181526020018383602002808284375f81840152601f19601f82011690508083019250505050505050866139d8565b5095945050505050565b5f611f078484846141a3565b90509392505050565b60608142811015611f56576040517f08c379a0000000000000000000000000000000000000000000000000000000008152600401611f4d90615346565b60405180910390fd5b611fc17f0000000000000000000000000000000000000000000000000000000000000000898888808060200260200160405190810160405280939291908181526020018383602002808284375f81840152601f19601f82011690508083019250505050505050613c1d565b915086825f81518110611fd757611fd66153c4565b5b60200260200101511115612020576040517f08c379a00000000000000000000000000000000000000000000000000000000081526004016120179061560d565b60405180910390fd5b6120e686865f818110612036576120356153c4565b5b905060200201602081019061204b91906153f1565b336120c67f00000000000000000000000000000000000000000000000000000000000000008a8a5f818110612083576120826153c4565b5b905060200201602081019061209891906153f1565b8b8b60018181106120ac576120ab6153c4565b5b90506020020160208101906120c191906153f1565b613836565b855f815181106120d9576120d86153c4565b5b60200260200101516138a5565b612131828787808060200260200160405190810160405280939291908181526020018383602002808284375f81840152601f19601f82011690508083019250505050505050866139d8565b509695505050505050565b7f000000000000000000000000000000000000000000000000000000000000000081565b5f61216c8484846142b1565b90509392505050565b5f81428110156121ba576040517f08c379a00000000000000000000000000000000000000000000000000000000081526004016121b190615346565b60405180910390fd5b6121e9887f000000000000000000000000000000000000000000000000000000000000000089898930896127ae565b90508092505061227188858a73ffffffffffffffffffffffffffffffffffffffff166370a08231306040518263ffffffff1660e01b815260040161222d9190614cc6565b602060405180830381865afa158015612248573d5f803e3d5ffd5b505050506040513d601f19601f8201168201806040525081019061226c919061563f565b613389565b7f000000000000000000000000000000000000000000000000000000000000000073ffffffffffffffffffffffffffffffffffffffff16632e1a7d4d836040518263ffffffff1660e01b81526004016122ca9190614ad0565b5f604051808303815f87803b1580156122e1575f80fd5b505af11580156122f3573d5f803e3d5ffd5b5050505061230184836134b9565b509695505050505050565b8042811015612350576040517f08c379a000000000000000000000000000000000000000000000000000000000815260040161234790615346565b60405180910390fd5b7f000000000000000000000000000000000000000000000000000000000000000073ffffffffffffffffffffffffffffffffffffffff1685855f81811061239a576123996153c4565b5b90506020020160208101906123af91906153f1565b73ffffffffffffffffffffffffffffffffffffffff1614612405576040517f08c379a00000000000000000000000000000000000000000000000000000000081526004016123fc90615466565b60405180910390fd5b5f3490507f000000000000000000000000000000000000000000000000000000000000000073ffffffffffffffffffffffffffffffffffffffff1663d0e30db0826040518263ffffffff1660e01b81526004015f604051808303818588803b15801561246f575f80fd5b505af1158015612481573d5f803e3d5ffd5b50505050507f000000000000000000000000000000000000000000000000000000000000000073ffffffffffffffffffffffffffffffffffffffff1663a9059cbb61253c7f000000000000000000000000000000000000000000000000000000000000000089895f8181106124f9576124f86153c4565b5b905060200201602081019061250e91906153f1565b8a8a6001818110612522576125216153c4565b5b905060200201602081019061253791906153f1565b613836565b836040518363ffffffff1660e01b815260040161255a92919061566a565b6020604051808303815f875af1158015612576573d5f803e3d5ffd5b505050506040513d601f19601f8201168201806040525081019061259a91906156a5565b6125a7576125a66148f6565b5b5f86866001898990506125ba9190615391565b8181106125ca576125c96153c4565b5b90506020020160208101906125df91906153f1565b73ffffffffffffffffffffffffffffffffffffffff166370a08231866040518263ffffffff1660e01b81526004016126179190614cc6565b602060405180830381865afa158015612632573d5f803e3d5ffd5b505050506040513d601f19601f82011682018060405250810190612656919061563f565b90506126a28787808060200260200160405190810160405280939291908181526020018383602002808284375f81840152601f19601f8201169050808301925050505050505086613db5565b8761276382898960018c8c90506126b99190615391565b8181106126c9576126c86153c4565b5b90506020020160208101906126de91906153f1565b73ffffffffffffffffffffffffffffffffffffffff166370a08231896040518263ffffffff1660e01b81526004016127169190614cc6565b602060405180830381865afa158015612731573d5f803e3d5ffd5b505050506040513d601f19601f82011682018060405250810190612755919061563f565b61414b90919063ffffffff16565b10156127a4576040517f08c379a000000000000000000000000000000000000000000000000000000000815260040161279b906154f4565b60405180910390fd5b5050505050505050565b5f8082428110156127f4576040517f08c379a00000000000000000000000000000000000000000000000000000000081526004016127eb90615346565b60405180910390fd5b5f6128207f00000000000000000000000000000000000000000000000000000000000000008c8c613836565b90508073ffffffffffffffffffffffffffffffffffffffff166323b872dd33838c6040518463ffffffff1660e01b815260040161285f939291906156d0565b6020604051808303815f875af115801561287b573d5f803e3d5ffd5b505050506040513d601f19601f8201168201806040525081019061289f91906156a5565b505f808273ffffffffffffffffffffffffffffffffffffffff166389afcb44896040518263ffffffff1660e01b81526004016128db9190614cc6565b60408051808303815f875af11580156128f6573d5f803e3d5ffd5b505050506040513d601f19601f8201168201806040525081019061291a9190615705565b915091505f6129298e8e614368565b5090508073ffffffffffffffffffffffffffffffffffffffff168e73ffffffffffffffffffffffffffffffffffffffff1614612966578183612969565b82825b80975081985050508a8710156129b4576040517f08c379a00000000000000000000000000000000000000000000000000000000081526004016129ab906157b3565b60405180910390fd5b898610156129f7576040517f08c379a00000000000000000000000000000000000000000000000000000000081526004016129ee90615841565b60405180910390fd5b505050505097509795505050505050565b7f000000000000000000000000000000000000000000000000000000000000000081565b6060612a597f000000000000000000000000000000000000000000000000000000000000000084846136b4565b905092915050565b5f805f612aaf7f00000000000000000000000000000000000000000000000000000000000000008e7f0000000000000000000000000000000000000000000000000000000000000000613836565b90505f87612abd578c612adf565b7fffffffffffffffffffffffffffffffffffffffffffffffffffffffffffffffff5b90508173ffffffffffffffffffffffffffffffffffffffff1663d505accf3330848d8c8c8c6040518863ffffffff1660e01b8152600401612b269796959493929190615530565b5f604051808303815f87803b158015612b3d575f80fd5b505af1158015612b4f573d5f803e3d5ffd5b50505050612b618e8e8e8e8e8e610712565b809450819550505050509a509a98505050505050505050565b5f805f8342811015612bc1576040517f08c379a0000000000000000000000000000000000000000000000000000000008152600401612bb890615346565b60405180910390fd5b612bcf8c8c8c8c8c8c614492565b80945081955050505f612c037f00000000000000000000000000000000000000000000000000000000000000008e8e613836565b9050612c118d3383886138a5565b612c1d8c3383876138a5565b8073ffffffffffffffffffffffffffffffffffffffff16636a627842886040518263ffffffff1660e01b8152600401612c569190614cc6565b6020604051808303815f875af1158015612c72573d5f803e3d5ffd5b505050506040513d601f19601f82011682018060405250810190612c96919061563f565b92505050985098509895505050505050565b5f805f8342811015612cef576040517f08c379a0000000000000000000000000000000000000000000000000000000008152600401612ce690615346565b60405180910390fd5b612d1d8a7f00000000000000000000000000000000000000000000000000000000000000008b348c8c614492565b80945081955050505f612d717f00000000000000000000000000000000000000000000000000000000000000008c7f0000000000000000000000000000000000000000000000000000000000000000613836565b9050612d7f8b3383886138a5565b7f000000000000000000000000000000000000000000000000000000000000000073ffffffffffffffffffffffffffffffffffffffff1663d0e30db0856040518263ffffffff1660e01b81526004015f604051808303818588803b158015612de5575f80fd5b505af1158015612df7573d5f803e3d5ffd5b50505050507f000000000000000000000000000000000000000000000000000000000000000073ffffffffffffffffffffffffffffffffffffffff1663a9059cbb82866040518363ffffffff1660e01b8152600401612e5792919061566a565b6020604051808303815f875af1158015612e73573d5f803e3d5ffd5b505050506040513d601f19601f82011682018060405250810190612e9791906156a5565b612ea457612ea36148f6565b5b8073ffffffffffffffffffffffffffffffffffffffff16636a627842886040518263ffffffff1660e01b8152600401612edd9190614cc6565b6020604051808303815f875af1158015612ef9573d5f803e3d5ffd5b505050506040513d601f19601f82011682018060405250810190612f1d919061563f565b925083341115612f3d57612f3c338534612f379190615391565b6134b9565b5b505096509650969350505050565b60608142811015612f91576040517f08c379a0000000000000000000000000000000000000000000000000000000008152600401612f8890615346565b60405180910390fd5b7f000000000000000000000000000000000000000000000000000000000000000073ffffffffffffffffffffffffffffffffffffffff1686865f818110612fdb57612fda6153c4565b5b9050602002016020810190612ff091906153f1565b73ffffffffffffffffffffffffffffffffffffffff1614613046576040517f08c379a000000000000000000000000000000000000000000000000000000000815260040161303d90615466565b60405180910390fd5b6130b17f0000000000000000000000000000000000000000000000000000000000000000888888808060200260200160405190810160405280939291908181526020018383602002808284375f81840152601f19601f82011690508083019250505050505050613c1d565b915034825f815181106130c7576130c66153c4565b5b60200260200101511115613110576040517f08c379a00000000000000000000000000000000000000000000000000000000081526004016131079061560d565b60405180910390fd5b7f000000000000000000000000000000000000000000000000000000000000000073ffffffffffffffffffffffffffffffffffffffff1663d0e30db0835f8151811061315f5761315e6153c4565b5b60200260200101516040518263ffffffff1660e01b81526004015f604051808303818588803b158015613190575f80fd5b505af11580156131a2573d5f803e3d5ffd5b50505050507f000000000000000000000000000000000000000000000000000000000000000073ffffffffffffffffffffffffffffffffffffffff1663a9059cbb61325d7f000000000000000000000000000000000000000000000000000000000000000089895f81811061321a576132196153c4565b5b905060200201602081019061322f91906153f1565b8a8a6001818110613243576132426153c4565b5b905060200201602081019061325891906153f1565b613836565b845f815181106132705761326f6153c4565b5b60200260200101516040518363ffffffff1660e01b815260040161329592919061566a565b6020604051808303815f875af11580156132b1573d5f803e3d5ffd5b505050506040513d601f19601f820116820180604052508101906132d591906156a5565b6132e2576132e16148f6565b5b61332d828787808060200260200160405190810160405280939291908181526020018383602002808284375f81840152601f19601f82011690508083019250505050505050866139d8565b815f815181106133405761333f6153c4565b5b602002602001015134111561337f5761337e33835f81518110613366576133656153c4565b5b6020026020010151346133799190615391565b6134b9565b5b5095945050505050565b5f808473ffffffffffffffffffffffffffffffffffffffff1663a9059cbb85856040516024016133ba92919061566a565b6040516020818303038152906040529060e01b6020820180517bffffffffffffffffffffffffffffffffffffffffffffffffffffffff838183161783525050505060405161340891906158cb565b5f604051808303815f865af19150503d805f8114613441576040519150601f19603f3d011682016040523d82523d5f602084013e613446565b606091505b509150915081801561347357505f8151148061347257508080602001905181019061347191906156a5565b5b5b6134b2576040517f08c379a00000000000000000000000000000000000000000000000000000000081526004016134a99061592b565b60405180910390fd5b5050505050565b5f8273ffffffffffffffffffffffffffffffffffffffff16825f67ffffffffffffffff8111156134ec576134eb614cef565b5b6040519080825280601f01601f19166020018201604052801561351e5781602001600182028036833780820191505090505b5060405161352c91906158cb565b5f6040518083038185875af1925050503d805f8114613566576040519150601f19603f3d011682016040523d82523d5f602084013e61356b565b606091505b50509050806135af576040517f08c379a00000000000000000000000000000000000000000000000000000000081526004016135a6906159b9565b60405180910390fd5b505050565b5f8084116135f7576040517f08c379a00000000000000000000000000000000000000000000000000000000081526004016135ee90615a47565b60405180910390fd5b5f8311801561360557505f82115b613644576040517f08c379a000000000000000000000000000000000000000000000000000000000815260040161363b90615ad5565b60405180910390fd5b5f61365a6103e58661473490919063ffffffff16565b90505f613670848361473490919063ffffffff16565b90505f61369a8361368c6103e88961473490919063ffffffff16565b6147a090919063ffffffff16565b905080826136a89190615b20565b93505050509392505050565b60606002825110156136fb576040517f08c379a00000000000000000000000000000000000000000000000000000000081526004016136f290615b9a565b60405180910390fd5b815167ffffffffffffffff81111561371657613715614cef565b5b6040519080825280602002602001820160405280156137445781602001602082028036833780820191505090505b50905082815f8151811061375b5761375a6153c4565b5b6020026020010181815250505f5b600183516137779190615391565b81101561382e575f806137cb87868581518110613797576137966153c4565b5b6020026020010151876001876137ad9190615bb8565b815181106137be576137bd6153c4565b5b60200260200101516147f8565b915091506137f48484815181106137e5576137e46153c4565b5b602002602001015183836135b4565b846001856138029190615bb8565b81518110613813576138126153c4565b5b60200260200101818152505050508080600101915050613769565b509392505050565b5f805f6138438585614368565b9150915085828260405160200161385b929190615c30565b60405160208183030381529060405280519060200120604051602001613882929190615d19565b604051602081830303815290604052805190602001205f1c925050509392505050565b5f808573ffffffffffffffffffffffffffffffffffffffff166323b872dd8686866040516024016138d8939291906156d0565b6040516020818303038152906040529060e01b6020820180517bffffffffffffffffffffffffffffffffffffffffffffffffffffffff838183161783525050505060405161392691906158cb565b5f604051808303815f865af19150503d805f811461395f576040519150601f19603f3d011682016040523d82523d5f602084013e613964565b606091505b509150915081801561399157505f8151148061399057508080602001905181019061398f91906156a5565b5b5b6139d0576040517f08c379a00000000000000000000000000000000000000000000000000000000081526004016139c790615dca565b60405180910390fd5b505050505050565b5f5b600183516139e89190615391565b811015613c17575f80848381518110613a0457613a036153c4565b5b602002602001015185600185613a1a9190615bb8565b81518110613a2b57613a2a6153c4565b5b6020026020010151915091505f613a428383614368565b5090505f87600186613a549190615bb8565b81518110613a6557613a646153c4565b5b602002602001015190505f808373ffffffffffffffffffffffffffffffffffffffff168673ffffffffffffffffffffffffffffffffffffffff1614613aab57825f613aae565b5f835b915091505f60028a51613ac19190615391565b8810613acd5788613b1f565b613b1e7f0000000000000000000000000000000000000000000000000000000000000000878c60028c613b009190615bb8565b81518110613b1157613b106153c4565b5b6020026020010151613836565b5b9050613b4c7f00000000000000000000000000000000000000000000000000000000000000008888613836565b73ffffffffffffffffffffffffffffffffffffffff1663022c0d9f8484845f67ffffffffffffffff811115613b8457613b83614cef565b5b6040519080825280601f01601f191660200182016040528015613bb65781602001600182028036833780820191505090505b506040518563ffffffff1660e01b8152600401613bd69493929190615e30565b5f604051808303815f87803b158015613bed575f80fd5b505af1158015613bff573d5f803e3d5ffd5b505050505050505050505080806001019150506139da565b50505050565b6060600282511015613c64576040517f08c379a0000000000000000000000000000000000000000000000000000000008152600401613c5b90615b9a565b60405180910390fd5b815167ffffffffffffffff811115613c7f57613c7e614cef565b5b604051908082528060200260200182016040528015613cad5781602001602082028036833780820191505090505b509050828160018351613cc09190615391565b81518110613cd157613cd06153c4565b5b6020026020010181815250505f60018351613cec9190615391565b90505b5f811115613dad575f80613d448786600186613d0b9190615391565b81518110613d1c57613d1b6153c4565b5b6020026020010151878681518110613d3757613d366153c4565b5b60200260200101516147f8565b91509150613d6d848481518110613d5e57613d5d6153c4565b5b602002602001015183836141a3565b84600185613d7b9190615391565b81518110613d8c57613d8b6153c4565b5b60200260200101818152505050508080613da590615e7a565b915050613cef565b509392505050565b5f5b60018351613dc59190615391565b811015614146575f80848381518110613de157613de06153c4565b5b602002602001015185600185613df79190615bb8565b81518110613e0857613e076153c4565b5b6020026020010151915091505f613e1f8383614368565b5090505f613e4e7f00000000000000000000000000000000000000000000000000000000000000008585613836565b90505f805f808473ffffffffffffffffffffffffffffffffffffffff16630902f1ac6040518163ffffffff1660e01b8152600401606060405180830381865afa158015613e9d573d5f803e3d5ffd5b505050506040513d601f19601f82011682018060405250810190613ec19190615f1d565b506dffffffffffffffffffffffffffff1691506dffffffffffffffffffffffffffff1691505f808773ffffffffffffffffffffffffffffffffffffffff168a73ffffffffffffffffffffffffffffffffffffffff1614613f22578284613f25565b83835b91509150613fb3828b73ffffffffffffffffffffffffffffffffffffffff166370a082318a6040518263ffffffff1660e01b8152600401613f669190614cc6565b602060405180830381865afa158015613f81573d5f803e3d5ffd5b505050506040513d601f19601f82011682018060405250810190613fa5919061563f565b61414b90919063ffffffff16565b9550613fc08683836135b4565b9450505050505f808573ffffffffffffffffffffffffffffffffffffffff168873ffffffffffffffffffffffffffffffffffffffff161461400257825f614005565b5f835b915091505f60028c516140189190615391565b8a10614024578a614076565b6140757f0000000000000000000000000000000000000000000000000000000000000000898e60028e6140579190615bb8565b81518110614068576140676153c4565b5b6020026020010151613836565b5b90508573ffffffffffffffffffffffffffffffffffffffff1663022c0d9f8484845f67ffffffffffffffff8111156140b1576140b0614cef565b5b6040519080825280601f01601f1916602001820160405280156140e35781602001600182028036833780820191505090505b506040518563ffffffff1660e01b81526004016141039493929190615e30565b5f604051808303815f87803b15801561411a575f80fd5b505af115801561412c573d5f803e3d5ffd5b505050505050505050505050508080600101915050613db7565b505050565b5f8282846141599190615391565b915081111561419d576040517f08c379a000000000000000000000000000000000000000000000000000000000815260040161419490615fb7565b60405180910390fd5b92915050565b5f8084116141e6576040517f08c379a00000000000000000000000000000000000000000000000000000000081526004016141dd90616045565b60405180910390fd5b5f831180156141f457505f82115b614233576040517f08c379a000000000000000000000000000000000000000000000000000000000815260040161422a90615ad5565b60405180910390fd5b5f61425b6103e861424d878761473490919063ffffffff16565b61473490919063ffffffff16565b90505f6142856103e5614277888761414b90919063ffffffff16565b61473490919063ffffffff16565b90506142a6600182846142989190615b20565b6147a090919063ffffffff16565b925050509392505050565b5f8084116142f4576040517f08c379a00000000000000000000000000000000000000000000000000000000081526004016142eb906160d3565b60405180910390fd5b5f8311801561430257505f82115b614341576040517f08c379a000000000000000000000000000000000000000000000000000000000815260040161433890615ad5565b60405180910390fd5b82614355838661473490919063ffffffff16565b61435f9190615b20565b90509392505050565b5f808273ffffffffffffffffffffffffffffffffffffffff168473ffffffffffffffffffffffffffffffffffffffff16036143d8576040517f08c379a00000000000000000000000000000000000000000000000000000000081526004016143cf90616161565b60405180910390fd5b8273ffffffffffffffffffffffffffffffffffffffff168473ffffffffffffffffffffffffffffffffffffffff1610614412578284614415565b83835b80925081935050505f73ffffffffffffffffffffffffffffffffffffffff168273ffffffffffffffffffffffffffffffffffffffff160361448b576040517f08c379a0000000000000000000000000000000000000000000000000000000008152600401614482906161c9565b60405180910390fd5b9250929050565b5f805f73ffffffffffffffffffffffffffffffffffffffff167f000000000000000000000000000000000000000000000000000000000000000073ffffffffffffffffffffffffffffffffffffffff1663e6a439058a8a6040518363ffffffff1660e01b81526004016145069291906161e7565b602060405180830381865afa158015614521573d5f803e3d5ffd5b505050506040513d601f19601f820116820180604052508101906145459190616222565b73ffffffffffffffffffffffffffffffffffffffff16036145fd577f000000000000000000000000000000000000000000000000000000000000000073ffffffffffffffffffffffffffffffffffffffff1663c9c6539689896040518363ffffffff1660e01b81526004016145bb9291906161e7565b6020604051808303815f875af11580156145d7573d5f803e3d5ffd5b505050506040513d601f19601f820116820180604052508101906145fb9190616222565b505b5f8061462a7f00000000000000000000000000000000000000000000000000000000000000008b8b6147f8565b915091505f8214801561463c57505f81145b156146505787878094508195505050614727565b5f61465c8984846142b1565b90508781116146b757858110156146a8576040517f08c379a000000000000000000000000000000000000000000000000000000000815260040161469f90615841565b60405180910390fd5b88818095508196505050614725565b5f6146c38984866142b1565b9050898111156146d6576146d56148f6565b5b87811015614719576040517f08c379a0000000000000000000000000000000000000000000000000000000008152600401614710906157b3565b60405180910390fd5b80898096508197505050505b505b5050965096945050505050565b5f8082148061475b57508282838561474c919061624d565b9250826147599190615b20565b145b61479a576040517f08c379a0000000000000000000000000000000000000000000000000000000008152600401614791906162d8565b60405180910390fd5b92915050565b5f8282846147ae9190615bb8565b91508110156147f2576040517f08c379a00000000000000000000000000000000000000000000000000000000081526004016147e990616340565b60405180910390fd5b92915050565b5f805f6148058585614368565b5090505f80614815888888613836565b73ffffffffffffffffffffffffffffffffffffffff16630902f1ac6040518163ffffffff1660e01b8152600401606060405180830381865afa15801561485d573d5f803e3d5ffd5b505050506040513d601f19601f820116820180604052508101906148819190615f1d565b506dffffffffffffffffffffffffffff1691506dffffffffffffffffffffffffffff1691508273ffffffffffffffffffffffffffffffffffffffff168773ffffffffffffffffffffffffffffffffffffffff16146148e05780826148e3565b81815b8095508196505050505050935093915050565b7f4e487b71000000000000000000000000000000000000000000000000000000005f52600160045260245ffd5b5f604051905090565b5f80fd5b5f80fd5b5f73ffffffffffffffffffffffffffffffffffffffff82169050919050565b5f61495d82614934565b9050919050565b61496d81614953565b8114614977575f80fd5b50565b5f8135905061498881614964565b92915050565b5f819050919050565b6149a08161498e565b81146149aa575f80fd5b50565b5f813590506149bb81614997565b92915050565b5f805f805f8060c087890312156149db576149da61492c565b5b5f6149e889828a0161497a565b96505060206149f989828a016149ad565b9550506040614a0a89828a016149ad565b9450506060614a1b89828a016149ad565b9350506080614a2c89828a0161497a565b92505060a0614a3d89828a016149ad565b9150509295509295509295565b614a538161498e565b82525050565b5f604082019050614a6c5f830185614a4a565b614a796020830184614a4a565b9392505050565b5f805f60608486031215614a9757614a9661492c565b5b5f614aa4868287016149ad565b9350506020614ab5868287016149ad565b9250506040614ac6868287016149ad565b9150509250925092565b5f602082019050614ae35f830184614a4a565b92915050565b5f80fd5b5f80fd5b5f80fd5b5f8083601f840112614b0a57614b09614ae9565b5b8235905067ffffffffffffffff811115614b2757614b26614aed565b5b602083019150836020820283011115614b4357614b42614af1565b5b9250929050565b5f805f805f8060a08789031215614b6457614b6361492c565b5b5f614b7189828a016149ad565b9650506020614b8289828a016149ad565b955050604087013567ffffffffffffffff811115614ba357614ba2614930565b5b614baf89828a01614af5565b94509450506060614bc289828a0161497a565b9250506080614bd389828a016149ad565b9150509295509295509295565b5f81519050919050565b5f82825260208201905092915050565b5f819050602082019050919050565b614c128161498e565b82525050565b5f614c238383614c09565b60208301905092915050565b5f602082019050919050565b5f614c4582614be0565b614c4f8185614bea565b9350614c5a83614bfa565b805f5b83811015614c8a578151614c718882614c18565b9750614c7c83614c2f565b925050600181019050614c5d565b5085935050505092915050565b5f6020820190508181035f830152614caf8184614c3b565b905092915050565b614cc081614953565b82525050565b5f602082019050614cd95f830184614cb7565b92915050565b5f601f19601f8301169050919050565b7f4e487b71000000000000000000000000000000000000000000000000000000005f52604160045260245ffd5b614d2582614cdf565b810181811067ffffffffffffffff82111715614d4457614d43614cef565b5b80604052505050565b5f614d56614923565b9050614d628282614d1c565b919050565b5f67ffffffffffffffff821115614d8157614d80614cef565b5b602082029050602081019050919050565b5f614da4614d9f84614d67565b614d4d565b90508083825260208201905060208402830185811115614dc757614dc6614af1565b5b835b81811015614df05780614ddc888261497a565b845260208401935050602081019050614dc9565b5050509392505050565b5f82601f830112614e0e57614e0d614ae9565b5b8135614e1e848260208601614d92565b91505092915050565b5f8060408385031215614e3d57614e3c61492c565b5b5f614e4a858286016149ad565b925050602083013567ffffffffffffffff811115614e6b57614e6a614930565b5b614e7785828601614dfa565b9150509250929050565b5f8115159050919050565b614e9581614e81565b8114614e9f575f80fd5b50565b5f81359050614eb081614e8c565b92915050565b5f60ff82169050919050565b614ecb81614eb6565b8114614ed5575f80fd5b50565b5f81359050614ee681614ec2565b92915050565b5f819050919050565b614efe81614eec565b8114614f08575f80fd5b50565b5f81359050614f1981614ef5565b92915050565b5f805f805f805f805f805f6101608c8e031215614f3f57614f3e61492c565b5b5f614f4c8e828f0161497a565b9b50506020614f5d8e828f0161497a565b9a50506040614f6e8e828f016149ad565b9950506060614f7f8e828f016149ad565b9850506080614f908e828f016149ad565b97505060a0614fa18e828f0161497a565b96505060c0614fb28e828f016149ad565b95505060e0614fc38e828f01614ea2565b945050610100614fd58e828f01614ed8565b935050610120614fe78e828f01614f0b565b925050610140614ff98e828f01614f0b565b9150509295989b509295989b9093969950565b5f805f805f805f805f806101408b8d03121561502b5761502a61492c565b5b5f6150388d828e0161497a565b9a505060206150498d828e016149ad565b995050604061505a8d828e016149ad565b985050606061506b8d828e016149ad565b975050608061507c8d828e0161497a565b96505060a061508d8d828e016149ad565b95505060c061509e8d828e01614ea2565b94505060e06150af8d828e01614ed8565b9350506101006150c18d828e01614f0b565b9250506101206150d38d828e01614f0b565b9150509295989b9194979a5092959850565b5f805f805f608086880312156150fe576150fd61492c565b5b5f61510b888289016149ad565b955050602086013567ffffffffffffffff81111561512c5761512b614930565b5b61513888828901614af5565b9450945050604061514b8882890161497a565b925050606061515c888289016149ad565b9150509295509295909350565b5f805f805f805f60e0888a0312156151845761518361492c565b5b5f6151918a828b0161497a565b97505060206151a28a828b0161497a565b96505060406151b38a828b016149ad565b95505060606151c48a828b016149ad565b94505060806151d58a828b016149ad565b93505060a06151e68a828b0161497a565b92505060c06151f78a828b016149ad565b91505092959891949750929550565b5f805f805f805f80610100898b0312156152235761522261492c565b5b5f6152308b828c0161497a565b98505060206152418b828c0161497a565b97505060406152528b828c016149ad565b96505060606152638b828c016149ad565b95505060806152748b828c016149ad565b94505060a06152858b828c016149ad565b93505060c06152968b828c0161497a565b92505060e06152a78b828c016149ad565b9150509295985092959890939650565b5f6060820190506152ca5f830186614a4a565b6152d76020830185614a4a565b6152e46040830184614a4a565b949350505050565b5f82825260208201905092915050565b7f556e69737761705632526f757465723a204558504952454400000000000000005f82015250565b5f6153306018836152ec565b915061533b826152fc565b602082019050919050565b5f6020820190508181035f83015261535d81615324565b9050919050565b7f4e487b71000000000000000000000000000000000000000000000000000000005f52601160045260245ffd5b5f61539b8261498e565b91506153a68361498e565b92508282039050818111156153be576153bd615364565b5b92915050565b7f4e487b71000000000000000000000000000000000000000000000000000000005f52603260045260245ffd5b5f602082840312156154065761540561492c565b5b5f6154138482850161497a565b91505092915050565b7f556e69737761705632526f757465723a20494e56414c49445f504154480000005f82015250565b5f615450601d836152ec565b915061545b8261541c565b602082019050919050565b5f6020820190508181035f83015261547d81615444565b9050919050565b7f556e69737761705632526f757465723a20494e53554646494349454e545f4f555f8201527f545055545f414d4f554e54000000000000000000000000000000000000000000602082015250565b5f6154de602b836152ec565b91506154e982615484565b604082019050919050565b5f6020820190508181035f83015261550b816154d2565b9050919050565b61551b81614eb6565b82525050565b61552a81614eec565b82525050565b5f60e0820190506155435f83018a614cb7565b6155506020830189614cb7565b61555d6040830188614a4a565b61556a6060830187614a4a565b6155776080830186615512565b61558460a0830185615521565b61559160c0830184615521565b98975050505050505050565b7f556e69737761705632526f757465723a204558434553534956455f494e5055545f8201527f5f414d4f554e5400000000000000000000000000000000000000000000000000602082015250565b5f6155f76027836152ec565b91506156028261559d565b604082019050919050565b5f6020820190508181035f830152615624816155eb565b9050919050565b5f8151905061563981614997565b92915050565b5f602082840312156156545761565361492c565b5b5f6156618482850161562b565b91505092915050565b5f60408201905061567d5f830185614cb7565b61568a6020830184614a4a565b9392505050565b5f8151905061569f81614e8c565b92915050565b5f602082840312156156ba576156b961492c565b5b5f6156c784828501615691565b91505092915050565b5f6060820190506156e35f830186614cb7565b6156f06020830185614cb7565b6156fd6040830184614a4a565b949350505050565b5f806040838503121561571b5761571a61492c565b5b5f6157288582860161562b565b92505060206157398582860161562b565b9150509250929050565b7f556e69737761705632526f757465723a20494e53554646494349454e545f415f5f8201527f414d4f554e540000000000000000000000000000000000000000000000000000602082015250565b5f61579d6026836152ec565b91506157a882615743565b604082019050919050565b5f6020820190508181035f8301526157ca81615791565b9050919050565b7f556e69737761705632526f757465723a20494e53554646494349454e545f425f5f8201527f414d4f554e540000000000000000000000000000000000000000000000000000602082015250565b5f61582b6026836152ec565b9150615836826157d1565b604082019050919050565b5f6020820190508181035f8301526158588161581f565b9050919050565b5f81519050919050565b5f81905092915050565b5f5b83811015615890578082015181840152602081019050615875565b5f8484015250505050565b5f6158a58261585f565b6158af8185615869565b93506158bf818560208601615873565b80840191505092915050565b5f6158d6828461589b565b915081905092915050565b7f5472616e7366657248656c7065723a205452414e534645525f4641494c4544005f82015250565b5f615915601f836152ec565b9150615920826158e1565b602082019050919050565b5f6020820190508181035f83015261594281615909565b9050919050565b7f5472616e7366657248656c7065723a204554485f5452414e534645525f4641495f8201527f4c45440000000000000000000000000000000000000000000000000000000000602082015250565b5f6159a36023836152ec565b91506159ae82615949565b604082019050919050565b5f6020820190508181035f8301526159d081615997565b9050919050565b7f556e697377617056324c6962726172793a20494e53554646494349454e545f495f8201527f4e5055545f414d4f554e54000000000000000000000000000000000000000000602082015250565b5f615a31602b836152ec565b9150615a3c826159d7565b604082019050919050565b5f6020820190508181035f830152615a5e81615a25565b9050919050565b7f556e697377617056324c6962726172793a20494e53554646494349454e545f4c5f8201527f4951554944495459000000000000000000000000000000000000000000000000602082015250565b5f615abf6028836152ec565b9150615aca82615a65565b604082019050919050565b5f6020820190508181035f830152615aec81615ab3565b9050919050565b7f4e487b71000000000000000000000000000000000000000000000000000000005f52601260045260245ffd5b5f615b2a8261498e565b9150615b358361498e565b925082615b4557615b44615af3565b5b828204905092915050565b7f556e697377617056324c6962726172793a20494e56414c49445f5041544800005f82015250565b5f615b84601e836152ec565b9150615b8f82615b50565b602082019050919050565b5f6020820190508181035f830152615bb181615b78565b9050919050565b5f615bc28261498e565b9150615bcd8361498e565b9250828201905080821115615be557615be4615364565b5b92915050565b5f8160601b9050919050565b5f615c0182615beb565b9050919050565b5f615c1282615bf7565b9050919050565b615c2a615c2582614953565b615c08565b82525050565b5f615c3b8285615c19565b601482019150615c4b8284615c19565b6014820191508190509392505050565b5f81905092915050565b7fff000000000000000000000000000000000000000000000000000000000000005f82015250565b5f615c99600183615c5b565b9150615ca482615c65565b600182019050919050565b5f819050919050565b615cc9615cc482614eec565b615caf565b82525050565b7f26da40876f0d034549364ebf9c030e3efd7f8e80a2f7e31a4e5a8514f17268505f82015250565b5f615d03602083615c5b565b9150615d0e82615ccf565b602082019050919050565b5f615d2382615c8d565b9150615d2f8285615c19565b601482019150615d3f8284615cb8565b602082019150615d4e82615cf7565b91508190509392505050565b7f5472616e7366657248656c7065723a205452414e534645525f46524f4d5f46415f8201527f494c454400000000000000000000000000000000000000000000000000000000602082015250565b5f615db46024836152ec565b9150615dbf82615d5a565b604082019050919050565b5f6020820190508181035f830152615de181615da8565b9050919050565b5f82825260208201905092915050565b5f615e028261585f565b615e0c8185615de8565b9350615e1c818560208601615873565b615e2581614cdf565b840191505092915050565b5f608082019050615e435f830187614a4a565b615e506020830186614a4a565b615e5d6040830185614cb7565b8181036060830152615e6f8184615df8565b905095945050505050565b5f615e848261498e565b91505f8203615e9657615e95615364565b5b600182039050919050565b5f6dffffffffffffffffffffffffffff82169050919050565b615ec381615ea1565b8114615ecd575f80fd5b50565b5f81519050615ede81615eba565b92915050565b5f63ffffffff82169050919050565b615efc81615ee4565b8114615f06575f80fd5b50565b5f81519050615f1781615ef3565b92915050565b5f805f60608486031215615f3457615f3361492c565b5b5f615f4186828701615ed0565b9350506020615f5286828701615ed0565b9250506040615f6386828701615f09565b9150509250925092565b7f64732d6d6174682d7375622d756e646572666c6f7700000000000000000000005f82015250565b5f615fa16015836152ec565b9150615fac82615f6d565b602082019050919050565b5f6020820190508181035f830152615fce81615f95565b9050919050565b7f556e697377617056324c6962726172793a20494e53554646494349454e545f4f5f8201527f55545055545f414d4f554e540000000000000000000000000000000000000000602082015250565b5f61602f602c836152ec565b915061603a82615fd5565b604082019050919050565b5f6020820190508181035f83015261605c81616023565b9050919050565b7f556e697377617056324c6962726172793a20494e53554646494349454e545f415f8201527f4d4f554e54000000000000000000000000000000000000000000000000000000602082015250565b5f6160bd6025836152ec565b91506160c882616063565b604082019050919050565b5f6020820190508181035f8301526160ea816160b1565b9050919050565b7f556e697377617056324c6962726172793a204944454e544943414c5f414444525f8201527f4553534553000000000000000000000000000000000000000000000000000000602082015250565b5f61614b6025836152ec565b9150616156826160f1565b604082019050919050565b5f6020820190508181035f8301526161788161613f565b9050919050565b7f556e697377617056324c6962726172793a205a45524f5f4144445245535300005f82015250565b5f6161b3601e836152ec565b91506161be8261617f565b602082019050919050565b5f6020820190508181035f8301526161e0816161a7565b9050919050565b5f6040820190506161fa5f830185614cb7565b6162076020830184614cb7565b9392505050565b5f8151905061621c81614964565b92915050565b5f602082840312156162375761623661492c565b5b5f6162448482850161620e565b91505092915050565b5f6162578261498e565b91506162628361498e565b92508282026162708161498e565b9150828204841483151761628757616286615364565b5b5092915050565b7f64732d6d6174682d6d756c2d6f766572666c6f770000000000000000000000005f82015250565b5f6162c26014836152ec565b91506162cd8261628e565b602082019050919050565b5f6020820190508181035f8301526162ef816162b6565b9050919050565b7f64732d6d6174682d6164642d6f766572666c6f770000000000000000000000005f82015250565b5f61632a6014836152ec565b9150616335826162f6565b602082019050919050565b5f6020820190508181035f8301526163578161631e565b905091905056fea2646970667358221220591741c2d28c047dadc6fd3c29580b567fcdd5c2847f15004c97c5f168bedd6264736f6c63430008180033",
			"opcodes": "PUSH1 0xC0 PUSH1 0x40 MSTORE CALLVALUE DUP1 ISZERO PUSH3 0x10 JUMPI PUSH0 DUP1 REVERT JUMPDEST POP PUSH1 0x40 MLOAD PUSH3 0x669C CODESIZE SUB DUP1 PUSH3 0x669C DUP4 CODECOPY DUP2 DUP2 ADD PUSH1 0x40 MSTORE DUP2 ADD SWAP1 PUSH3 0x36 SWAP2 SWAP1 PUSH3 0x10B JUMP JUMPDEST DUP2 PUSH20 0xFFFFFFFFFFFFFFFFFFFFFFFFFFFFFFFFFFFFFFFF AND PUSH1 0x80 DUP2 PUSH20 0xFFFFFFFFFFFFFFFFFFFFFFFFFFFFFFFFFFFFFFFF AND DUP2 MSTORE POP POP DUP1 PUSH20 0xFFFFFFFFFFFFFFFFFFFFFFFFFFFFFFFFFFFFFFFF AND PUSH1 0xA0 DUP2 PUSH20 0xFFFFFFFFFFFFFFFFFFFFFFFFFFFFFFFFFFFFFFFF AND DUP2 MSTORE POP POP POP POP PUSH3 0x150 JUMP JUMPDEST PUSH0 DUP1 REVERT JUMPDEST PUSH0 PUSH20 0xFFFFFFFFFFFFFFFFFFFFFFFFFFFFFFFFFFFFFFFF DUP3 AND SWAP1 POP SWAP2 SWAP1 POP JUMP JUMPDEST PUSH0 PUSH3 0xD5 DUP3 PUSH3 0xAA JUMP JUMPDEST SWAP1 POP SWAP2 SWAP1 POP JUMP JUMPDEST PUSH3 0xE7 DUP2 PUSH3 0xC9 JUMP JUMPDEST DUP2 EQ PUSH3 0xF2 JUMPI PUSH0 DUP1 REVERT JUMPDEST POP JUMP JUMPDEST PUSH0 DUP2 MLOAD SWAP1 POP PUSH3 0x105 DUP2 PUSH3 0xDC JUMP JUMPDEST SWAP3 SWAP2 POP POP JUMP JUMPDEST PUSH0 DUP1 PUSH1 0x40 DUP4 DUP6 SUB SLT ISZERO PUSH3 0x124 JUMPI PUSH3 0x123 PUSH3 0xA6 JUMP JUMPDEST JUMPDEST PUSH0 PUSH3 0x133 DUP6 DUP3 DUP7 ADD PUSH3 0xF5 JUMP JUMPDEST SWAP3 POP POP PUSH1 0x20 PUSH3 0x146 DUP6 DUP3 DUP7 ADD PUSH3 0xF5 JUMP JUMPDEST SWAP2 POP POP SWAP3 POP SWAP3 SWAP1 POP JUMP JUMPDEST PUSH1 0x80 MLOAD PUSH1 0xA0 MLOAD PUSH2 0x6394 PUSH3 0x308 PUSH0 CODECOPY PUSH0 DUP2 DUP2 PUSH2 0x170 ADD MSTORE DUP2 DUP2 PUSH2 0x75E ADD MSTORE DUP2 DUP2 PUSH2 0x79C ADD MSTORE DUP2 DUP2 PUSH2 0x893 ADD MSTORE DUP2 DUP2 PUSH2 0xB3F ADD MSTORE DUP2 DUP2 PUSH2 0xC29 ADD MSTORE DUP2 DUP2 PUSH2 0xFFE ADD MSTORE DUP2 DUP2 PUSH2 0x129D ADD MSTORE DUP2 DUP2 PUSH2 0x13AD ADD MSTORE DUP2 DUP2 PUSH2 0x17D2 ADD MSTORE DUP2 DUP2 PUSH2 0x198D ADD MSTORE DUP2 DUP2 PUSH2 0x1A6A ADD MSTORE DUP2 DUP2 PUSH2 0x1B4A ADD MSTORE DUP2 DUP2 PUSH2 0x1CD6 ADD MSTORE DUP2 DUP2 PUSH2 0x1D6D ADD MSTORE DUP2 DUP2 PUSH2 0x213E ADD MSTORE DUP2 DUP2 PUSH2 0x21C0 ADD MSTORE DUP2 DUP2 PUSH2 0x2273 ADD MSTORE DUP2 DUP2 PUSH2 0x2352 ADD MSTORE DUP2 DUP2 PUSH2 0x240B ADD MSTORE DUP2 DUP2 PUSH2 0x2488 ADD MSTORE DUP2 DUP2 PUSH2 0x2A8B ADD MSTORE DUP2 DUP2 PUSH2 0x2CF5 ADD MSTORE DUP2 DUP2 PUSH2 0x2D4D ADD MSTORE DUP2 DUP2 PUSH2 0x2D81 ADD MSTORE DUP2 DUP2 PUSH2 0x2DFE ADD MSTORE DUP2 DUP2 PUSH2 0x2F93 ADD MSTORE DUP2 DUP2 PUSH2 0x3112 ADD MSTORE PUSH2 0x31A9 ADD MSTORE PUSH0 DUP2 DUP2 PUSH2 0x95A ADD MSTORE DUP2 DUP2 PUSH2 0xA5D ADD MSTORE DUP2 DUP2 PUSH2 0xC54 ADD MSTORE DUP2 DUP2 PUSH2 0xC8A ADD MSTORE DUP2 DUP2 PUSH2 0xDC8 ADD MSTORE DUP2 DUP2 PUSH2 0xECB ADD MSTORE DUP2 DUP2 PUSH2 0x10C5 ADD MSTORE DUP2 DUP2 PUSH2 0x11BB ADD MSTORE DUP2 DUP2 PUSH2 0x138B ADD MSTORE DUP2 DUP2 PUSH2 0x150A ADD MSTORE DUP2 DUP2 PUSH2 0x18C5 ADD MSTORE DUP2 DUP2 PUSH2 0x1C02 ADD MSTORE DUP2 DUP2 PUSH2 0x1DAC ADD MSTORE DUP2 DUP2 PUSH2 0x1F5B ADD MSTORE DUP2 DUP2 PUSH2 0x2051 ADD MSTORE DUP2 DUP2 PUSH2 0x24C7 ADD MSTORE DUP2 DUP2 PUSH2 0x27FA ADD MSTORE DUP2 DUP2 PUSH2 0x2A0A ADD MSTORE DUP2 DUP2 PUSH2 0x2A33 ADD MSTORE DUP2 DUP2 PUSH2 0x2A69 ADD MSTORE DUP2 DUP2 PUSH2 0x2BDD ADD MSTORE DUP2 DUP2 PUSH2 0x2D2B ADD MSTORE DUP2 DUP2 PUSH2 0x304B ADD MSTORE DUP2 DUP2 PUSH2 0x31E8 ADD MSTORE DUP2 DUP2 PUSH2 0x3AD2 ADD MSTORE DUP2 DUP2 PUSH2 0x3B26 ADD MSTORE DUP2 DUP2 PUSH2 0x3E28 ADD MSTORE DUP2 DUP2 PUSH2 0x4029 ADD MSTORE DUP2 DUP2 PUSH2 0x44AD ADD MSTORE DUP2 DUP2 PUSH2 0x4562 ADD MSTORE PUSH2 0x4604 ADD MSTORE PUSH2 0x6394 PUSH0 RETURN INVALID PUSH1 0x80 PUSH1 0x40 MSTORE PUSH1 0x4 CALLDATASIZE LT PUSH2 0x169 JUMPI PUSH0 CALLDATALOAD PUSH1 0xE0 SHR DUP1 PUSH4 0x85F8C259 GT PUSH2 0xD0 JUMPI DUP1 PUSH4 0xBAA2ABDE GT PUSH2 0x89 JUMPI DUP1 PUSH4 0xDED9382A GT PUSH2 0x63 JUMPI DUP1 PUSH4 0xDED9382A EQ PUSH2 0x635 JUMPI DUP1 PUSH4 0xE8E33700 EQ PUSH2 0x672 JUMPI DUP1 PUSH4 0xF305D719 EQ PUSH2 0x6B0 JUMPI DUP1 PUSH4 0xFB3BDB41 EQ PUSH2 0x6E2 JUMPI PUSH2 0x1CC JUMP JUMPDEST DUP1 PUSH4 0xBAA2ABDE EQ PUSH2 0x592 JUMPI DUP1 PUSH4 0xC45A0155 EQ PUSH2 0x5CF JUMPI DUP1 PUSH4 0xD06CA61F EQ PUSH2 0x5F9 JUMPI PUSH2 0x1CC JUMP JUMPDEST DUP1 PUSH4 0x85F8C259 EQ PUSH2 0x45C JUMPI DUP1 PUSH4 0x8803DBEE EQ PUSH2 0x498 JUMPI DUP1 PUSH4 0xAD5C4648 EQ PUSH2 0x4D4 JUMPI DUP1 PUSH4 0xAD615DEC EQ PUSH2 0x4FE JUMPI DUP1 PUSH4 0xAF2979EB EQ PUSH2 0x53A JUMPI DUP1 PUSH4 0xB6F9DE95 EQ PUSH2 0x576 JUMPI PUSH2 0x1CC JUMP JUMPDEST DUP1 PUSH4 0x38ED1739 GT PUSH2 0x122 JUMPI DUP1 PUSH4 0x38ED1739 EQ PUSH2 0x328 JUMPI DUP1 PUSH4 0x4A25D94A EQ PUSH2 0x364 JUMPI DUP1 PUSH4 0x5B0D5984 EQ PUSH2 0x3A0 JUMPI DUP1 PUSH4 0x5C11D795 EQ PUSH2 0x3DC JUMPI DUP1 PUSH4 0x791AC947 EQ PUSH2 0x404 JUMPI DUP1 PUSH4 0x7FF36AB5 EQ PUSH2 0x42C JUMPI PUSH2 0x1CC JUMP JUMPDEST DUP1 PUSH4 0x2751CEC EQ PUSH2 0x1D0 JUMPI DUP1 PUSH4 0x54D50D4 EQ PUSH2 0x20D JUMPI DUP1 PUSH4 0x18CBAFE5 EQ PUSH2 0x249 JUMPI DUP1 PUSH4 0x1BAD4D2C EQ PUSH2 0x285 JUMPI DUP1 PUSH4 0x1F00CA74 EQ PUSH2 0x2AF JUMPI DUP1 PUSH4 0x2195995C EQ PUSH2 0x2EB JUMPI PUSH2 0x1CC JUMP JUMPDEST CALLDATASIZE PUSH2 0x1CC JUMPI PUSH32 0x0 PUSH20 0xFFFFFFFFFFFFFFFFFFFFFFFFFFFFFFFFFFFFFFFF AND CALLER PUSH20 0xFFFFFFFFFFFFFFFFFFFFFFFFFFFFFFFFFFFFFFFF AND EQ PUSH2 0x1CA JUMPI PUSH2 0x1C9 PUSH2 0x48F6 JUMP JUMPDEST JUMPDEST STOP JUMPDEST PUSH0 DUP1 REVERT JUMPDEST CALLVALUE DUP1 ISZERO PUSH2 0x1DB JUMPI PUSH0 DUP1 REVERT JUMPDEST POP PUSH2 0x1F6 PUSH1 0x4 DUP1 CALLDATASIZE SUB DUP2 ADD SWAP1 PUSH2 0x1F1 SWAP2 SWAP1 PUSH2 0x49C1 JUMP JUMPDEST PUSH2 0x712 JUMP JUMPDEST PUSH1 0x40 MLOAD PUSH2 0x204 SWAP3 SWAP2 SWAP1 PUSH2 0x4A59 JUMP JUMPDEST PUSH1 0x40 MLOAD DUP1 SWAP2 SUB SWAP1 RETURN JUMPDEST CALLVALUE DUP1 ISZERO PUSH2 0x218 JUMPI PUSH0 DUP1 REVERT JUMPDEST POP PUSH2 0x233 PUSH1 0x4 DUP1 CALLDATASIZE SUB DUP2 ADD SWAP1 PUSH2 0x22E SWAP2 SWAP1 PUSH2 0x4A80 JUMP JUMPDEST PUSH2 0x836 JUMP JUMPDEST PUSH1 0x40 MLOAD PUSH2 0x240 SWAP2 SWAP1 PUSH2 0x4AD0 JUMP JUMPDEST PUSH1 0x40 MLOAD DUP1 SWAP2 SUB SWAP1 RETURN JUMPDEST CALLVALUE DUP1 ISZERO PUSH2 0x254 JUMPI PUSH0 DUP1 REVERT JUMPDEST POP PUSH2 0x26F PUSH1 0x4 DUP1 CALLDATASIZE SUB DUP2 ADD SWAP1 PUSH2 0x26A SWAP2 SWAP1 PUSH2 0x4B4A JUMP JUMPDEST PUSH2 0x84B JUMP JUMPDEST PUSH1 0x40 MLOAD PUSH2 0x27C SWAP2 SWAP1 PUSH2 0x4C97 JUMP JUMPDEST PUSH1 0x40 MLOAD DUP1 SWAP2 SUB SWAP1 RETURN JUMPDEST CALLVALUE DUP1 ISZERO PUSH2 0x290 JUMPI PUSH0 DUP1 REVERT JUMPDEST POP PUSH2 0x299 PUSH2 0xC26 JUMP JUMPDEST PUSH1 0x40 MLOAD PUSH2 0x2A6 SWAP2 SWAP1 PUSH2 0x4CC6 JUMP JUMPDEST PUSH1 0x40 MLOAD DUP1 SWAP2 SUB SWAP1 RETURN JUMPDEST CALLVALUE DUP1 ISZERO PUSH2 0x2BA JUMPI PUSH0 DUP1 REVERT JUMPDEST POP PUSH2 0x2D5 PUSH1 0x4 DUP1 CALLDATASIZE SUB DUP2 ADD SWAP1 PUSH2 0x2D0 SWAP2 SWAP1 PUSH2 0x4E27 JUMP JUMPDEST PUSH2 0xC4D JUMP JUMPDEST PUSH1 0x40 MLOAD PUSH2 0x2E2 SWAP2 SWAP1 PUSH2 0x4C97 JUMP JUMPDEST PUSH1 0x40 MLOAD DUP1 SWAP2 SUB SWAP1 RETURN JUMPDEST CALLVALUE DUP1 ISZERO PUSH2 0x2F6 JUMPI PUSH0 DUP1 REVERT JUMPDEST POP PUSH2 0x311 PUSH1 0x4 DUP1 CALLDATASIZE SUB DUP2 ADD SWAP1 PUSH2 0x30C SWAP2 SWAP1 PUSH2 0x4F1F JUMP JUMPDEST PUSH2 0xC82 JUMP JUMPDEST PUSH1 0x40 MLOAD PUSH2 0x31F SWAP3 SWAP2 SWAP1 PUSH2 0x4A59 JUMP JUMPDEST PUSH1 0x40 MLOAD DUP1 SWAP2 SUB SWAP1 RETURN JUMPDEST CALLVALUE DUP1 ISZERO PUSH2 0x333 JUMPI PUSH0 DUP1 REVERT JUMPDEST POP PUSH2 0x34E PUSH1 0x4 DUP1 CALLDATASIZE SUB DUP2 ADD SWAP1 PUSH2 0x349 SWAP2 SWAP1 PUSH2 0x4B4A JUMP JUMPDEST PUSH2 0xD7D JUMP JUMPDEST PUSH1 0x40 MLOAD PUSH2 0x35B SWAP2 SWAP1 PUSH2 0x4C97 JUMP JUMPDEST PUSH1 0x40 MLOAD DUP1 SWAP2 SUB SWAP1 RETURN JUMPDEST CALLVALUE DUP1 ISZERO PUSH2 0x36F JUMPI PUSH0 DUP1 REVERT JUMPDEST POP PUSH2 0x38A PUSH1 0x4 DUP1 CALLDATASIZE SUB DUP2 ADD SWAP1 PUSH2 0x385 SWAP2 SWAP1 PUSH2 0x4B4A JUMP JUMPDEST PUSH2 0xFB6 JUMP JUMPDEST PUSH1 0x40 MLOAD PUSH2 0x397 SWAP2 SWAP1 PUSH2 0x4C97 JUMP JUMPDEST PUSH1 0x40 MLOAD DUP1 SWAP2 SUB SWAP1 RETURN JUMPDEST CALLVALUE DUP1 ISZERO PUSH2 0x3AB JUMPI PUSH0 DUP1 REVERT JUMPDEST POP PUSH2 0x3C6 PUSH1 0x4 DUP1 CALLDATASIZE SUB DUP2 ADD SWAP1 PUSH2 0x3C1 SWAP2 SWAP1 PUSH2 0x500C JUMP JUMPDEST PUSH2 0x1384 JUMP JUMPDEST PUSH1 0x40 MLOAD PUSH2 0x3D3 SWAP2 SWAP1 PUSH2 0x4AD0 JUMP JUMPDEST PUSH1 0x40 MLOAD DUP1 SWAP2 SUB SWAP1 RETURN JUMPDEST CALLVALUE DUP1 ISZERO PUSH2 0x3E7 JUMPI PUSH0 DUP1 REVERT JUMPDEST POP PUSH2 0x402 PUSH1 0x4 DUP1 CALLDATASIZE SUB DUP2 ADD SWAP1 PUSH2 0x3FD SWAP2 SWAP1 PUSH2 0x4B4A JUMP JUMPDEST PUSH2 0x1495 JUMP JUMPDEST STOP JUMPDEST CALLVALUE DUP1 ISZERO PUSH2 0x40F JUMPI PUSH0 DUP1 REVERT JUMPDEST POP PUSH2 0x42A PUSH1 0x4 DUP1 CALLDATASIZE SUB DUP2 ADD SWAP1 PUSH2 0x425 SWAP2 SWAP1 PUSH2 0x4B4A JUMP JUMPDEST PUSH2 0x178C JUMP JUMPDEST STOP JUMPDEST PUSH2 0x446 PUSH1 0x4 DUP1 CALLDATASIZE SUB DUP2 ADD SWAP1 PUSH2 0x441 SWAP2 SWAP1 PUSH2 0x50E5 JUMP JUMPDEST PUSH2 0x1B02 JUMP JUMPDEST PUSH1 0x40 MLOAD PUSH2 0x453 SWAP2 SWAP1 PUSH2 0x4C97 JUMP JUMPDEST PUSH1 0x40 MLOAD DUP1 SWAP2 SUB SWAP1 RETURN JUMPDEST CALLVALUE DUP1 ISZERO PUSH2 0x467 JUMPI PUSH0 DUP1 REVERT JUMPDEST POP PUSH2 0x482 PUSH1 0x4 DUP1 CALLDATASIZE SUB DUP2 ADD SWAP1 PUSH2 0x47D SWAP2 SWAP1 PUSH2 0x4A80 JUMP JUMPDEST PUSH2 0x1EFB JUMP JUMPDEST PUSH1 0x40 MLOAD PUSH2 0x48F SWAP2 SWAP1 PUSH2 0x4AD0 JUMP JUMPDEST PUSH1 0x40 MLOAD DUP1 SWAP2 SUB SWAP1 RETURN JUMPDEST CALLVALUE DUP1 ISZERO PUSH2 0x4A3 JUMPI PUSH0 DUP1 REVERT JUMPDEST POP PUSH2 0x4BE PUSH1 0x4 DUP1 CALLDATASIZE SUB DUP2 ADD SWAP1 PUSH2 0x4B9 SWAP2 SWAP1 PUSH2 0x4B4A JUMP JUMPDEST PUSH2 0x1F10 JUMP JUMPDEST PUSH1 0x40 MLOAD PUSH2 0x4CB SWAP2 SWAP1 PUSH2 0x4C97 JUMP JUMPDEST PUSH1 0x40 MLOAD DUP1 SWAP2 SUB SWAP1 RETURN JUMPDEST CALLVALUE DUP1 ISZERO PUSH2 0x4DF JUMPI PUSH0 DUP1 REVERT JUMPDEST POP PUSH2 0x4E8 PUSH2 0x213C JUMP JUMPDEST PUSH1 0x40 MLOAD PUSH2 0x4F5 SWAP2 SWAP1 PUSH2 0x4CC6 JUMP JUMPDEST PUSH1 0x40 MLOAD DUP1 SWAP2 SUB SWAP1 RETURN JUMPDEST CALLVALUE DUP1 ISZERO PUSH2 0x509 JUMPI PUSH0 DUP1 REVERT JUMPDEST POP PUSH2 0x524 PUSH1 0x4 DUP1 CALLDATASIZE SUB DUP2 ADD SWAP1 PUSH2 0x51F SWAP2 SWAP1 PUSH2 0x4A80 JUMP JUMPDEST PUSH2 0x2160 JUMP JUMPDEST PUSH1 0x40 MLOAD PUSH2 0x531 SWAP2 SWAP1 PUSH2 0x4AD0 JUMP JUMPDEST PUSH1 0x40 MLOAD DUP1 SWAP2 SUB SWAP1 RETURN JUMPDEST CALLVALUE DUP1 ISZERO PUSH2 0x545 JUMPI PUSH0 DUP1 REVERT JUMPDEST POP PUSH2 0x560 PUSH1 0x4 DUP1 CALLDATASIZE SUB DUP2 ADD SWAP1 PUSH2 0x55B SWAP2 SWAP1 PUSH2 0x49C1 JUMP JUMPDEST PUSH2 0x2175 JUMP JUMPDEST PUSH1 0x40 MLOAD PUSH2 0x56D SWAP2 SWAP1 PUSH2 0x4AD0 JUMP JUMPDEST PUSH1 0x40 MLOAD DUP1 SWAP2 SUB SWAP1 RETURN JUMPDEST PUSH2 0x590 PUSH1 0x4 DUP1 CALLDATASIZE SUB DUP2 ADD SWAP1 PUSH2 0x58B SWAP2 SWAP1 PUSH2 0x50E5 JUMP JUMPDEST PUSH2 0x230C JUMP JUMPDEST STOP JUMPDEST CALLVALUE DUP1 ISZERO PUSH2 0x59D JUMPI PUSH0 DUP1 REVERT JUMPDEST POP PUSH2 0x5B8 PUSH1 0x4 DUP1 CALLDATASIZE SUB DUP2 ADD SWAP1 PUSH2 0x5B3 SWAP2 SWAP1 PUSH2 0x5169 JUMP JUMPDEST PUSH2 0x27AE JUMP JUMPDEST PUSH1 0x40 MLOAD PUSH2 0x5C6 SWAP3 SWAP2 SWAP1 PUSH2 0x4A59 JUMP JUMPDEST PUSH1 0x40 MLOAD DUP1 SWAP2 SUB SWAP1 RETURN JUMPDEST CALLVALUE DUP1 ISZERO PUSH2 0x5DA JUMPI PUSH0 DUP1 REVERT JUMPDEST POP PUSH2 0x5E3 PUSH2 0x2A08 JUMP JUMPDEST PUSH1 0x40 MLOAD PUSH2 0x5F0 SWAP2 SWAP1 PUSH2 0x4CC6 JUMP JUMPDEST PUSH1 0x40 MLOAD DUP1 SWAP2 SUB SWAP1 RETURN JUMPDEST CALLVALUE DUP1 ISZERO PUSH2 0x604 JUMPI PUSH0 DUP1 REVERT JUMPDEST POP PUSH2 0x61F PUSH1 0x4 DUP1 CALLDATASIZE SUB DUP2 ADD SWAP1 PUSH2 0x61A SWAP2 SWAP1 PUSH2 0x4E27 JUMP JUMPDEST PUSH2 0x2A2C JUMP JUMPDEST PUSH1 0x40 MLOAD PUSH2 0x62C SWAP2 SWAP1 PUSH2 0x4C97 JUMP JUMPDEST PUSH1 0x40 MLOAD DUP1 SWAP2 SUB SWAP1 RETURN JUMPDEST CALLVALUE DUP1 ISZERO PUSH2 0x640 JUMPI PUSH0 DUP1 REVERT JUMPDEST POP PUSH2 0x65B PUSH1 0x4 DUP1 CALLDATASIZE SUB DUP2 ADD SWAP1 PUSH2 0x656 SWAP2 SWAP1 PUSH2 0x500C JUMP JUMPDEST PUSH2 0x2A61 JUMP JUMPDEST PUSH1 0x40 MLOAD PUSH2 0x669 SWAP3 SWAP2 SWAP1 PUSH2 0x4A59 JUMP JUMPDEST PUSH1 0x40 MLOAD DUP1 SWAP2 SUB SWAP1 RETURN JUMPDEST CALLVALUE DUP1 ISZERO PUSH2 0x67D JUMPI PUSH0 DUP1 REVERT JUMPDEST POP PUSH2 0x698 PUSH1 0x4 DUP1 CALLDATASIZE SUB DUP2 ADD SWAP1 PUSH2 0x693 SWAP2 SWAP1 PUSH2 0x5206 JUMP JUMPDEST PUSH2 0x2B7A JUMP JUMPDEST PUSH1 0x40 MLOAD PUSH2 0x6A7 SWAP4 SWAP3 SWAP2 SWAP1 PUSH2 0x52B7 JUMP JUMPDEST PUSH1 0x40 MLOAD DUP1 SWAP2 SUB SWAP1 RETURN JUMPDEST PUSH2 0x6CA PUSH1 0x4 DUP1 CALLDATASIZE SUB DUP2 ADD SWAP1 PUSH2 0x6C5 SWAP2 SWAP1 PUSH2 0x49C1 JUMP JUMPDEST PUSH2 0x2CA8 JUMP JUMPDEST PUSH1 0x40 MLOAD PUSH2 0x6D9 SWAP4 SWAP3 SWAP2 SWAP1 PUSH2 0x52B7 JUMP JUMPDEST PUSH1 0x40 MLOAD DUP1 SWAP2 SUB SWAP1 RETURN JUMPDEST PUSH2 0x6FC PUSH1 0x4 DUP1 CALLDATASIZE SUB DUP2 ADD SWAP1 PUSH2 0x6F7 SWAP2 SWAP1 PUSH2 0x50E5 JUMP JUMPDEST PUSH2 0x2F4B JUMP JUMPDEST PUSH1 0x40 MLOAD PUSH2 0x709 SWAP2 SWAP1 PUSH2 0x4C97 JUMP JUMPDEST PUSH1 0x40 MLOAD DUP1 SWAP2 SUB SWAP1 RETURN JUMPDEST PUSH0 DUP1 DUP3 TIMESTAMP DUP2 LT ISZERO PUSH2 0x758 JUMPI PUSH1 0x40 MLOAD PUSH32 0x8C379A000000000000000000000000000000000000000000000000000000000 DUP2 MSTORE PUSH1 0x4 ADD PUSH2 0x74F SWAP1 PUSH2 0x5346 JUMP JUMPDEST PUSH1 0x40 MLOAD DUP1 SWAP2 SUB SWAP1 REVERT JUMPDEST PUSH2 0x787 DUP10 PUSH32 0x0 DUP11 DUP11 DUP11 ADDRESS DUP11 PUSH2 0x27AE JUMP JUMPDEST DUP1 SWAP4 POP DUP2 SWAP5 POP POP POP PUSH2 0x79A DUP10 DUP7 DUP6 PUSH2 0x3389 JUMP JUMPDEST PUSH32 0x0 PUSH20 0xFFFFFFFFFFFFFFFFFFFFFFFFFFFFFFFFFFFFFFFF AND PUSH4 0x2E1A7D4D DUP4 PUSH1 0x40 MLOAD DUP3 PUSH4 0xFFFFFFFF AND PUSH1 0xE0 SHL DUP2 MSTORE PUSH1 0x4 ADD PUSH2 0x7F3 SWAP2 SWAP1 PUSH2 0x4AD0 JUMP JUMPDEST PUSH0 PUSH1 0x40 MLOAD DUP1 DUP4 SUB DUP2 PUSH0 DUP8 DUP1 EXTCODESIZE ISZERO DUP1 ISZERO PUSH2 0x80A JUMPI PUSH0 DUP1 REVERT JUMPDEST POP GAS CALL ISZERO DUP1 ISZERO PUSH2 0x81C JUMPI RETURNDATASIZE PUSH0 DUP1 RETURNDATACOPY RETURNDATASIZE PUSH0 REVERT JUMPDEST POP POP POP POP PUSH2 0x82A DUP6 DUP4 PUSH2 0x34B9 JUMP JUMPDEST POP SWAP7 POP SWAP7 SWAP5 POP POP POP POP POP JUMP JUMPDEST PUSH0 PUSH2 0x842 DUP5 DUP5 DUP5 PUSH2 0x35B4 JUMP JUMPDEST SWAP1 POP SWAP4 SWAP3 POP POP POP JUMP JUMPDEST PUSH1 0x60 DUP2 TIMESTAMP DUP2 LT ISZERO PUSH2 0x891 JUMPI PUSH1 0x40 MLOAD PUSH32 0x8C379A000000000000000000000000000000000000000000000000000000000 DUP2 MSTORE PUSH1 0x4 ADD PUSH2 0x888 SWAP1 PUSH2 0x5346 JUMP JUMPDEST PUSH1 0x40 MLOAD DUP1 SWAP2 SUB SWAP1 REVERT JUMPDEST PUSH32 0x0 PUSH20 0xFFFFFFFFFFFFFFFFFFFFFFFFFFFFFFFFFFFFFFFF AND DUP7 DUP7 PUSH1 0x1 DUP10 DUP10 SWAP1 POP PUSH2 0x8DA SWAP2 SWAP1 PUSH2 0x5391 JUMP JUMPDEST DUP2 DUP2 LT PUSH2 0x8EA JUMPI PUSH2 0x8E9 PUSH2 0x53C4 JUMP JUMPDEST JUMPDEST SWAP1 POP PUSH1 0x20 MUL ADD PUSH1 0x20 DUP2 ADD SWAP1 PUSH2 0x8FF SWAP2 SWAP1 PUSH2 0x53F1 JUMP JUMPDEST PUSH20 0xFFFFFFFFFFFFFFFFFFFFFFFFFFFFFFFFFFFFFFFF AND EQ PUSH2 0x955 JUMPI PUSH1 0x40 MLOAD PUSH32 0x8C379A000000000000000000000000000000000000000000000000000000000 DUP2 MSTORE PUSH1 0x4 ADD PUSH2 0x94C SWAP1 PUSH2 0x5466 JUMP JUMPDEST PUSH1 0x40 MLOAD DUP1 SWAP2 SUB SWAP1 REVERT JUMPDEST PUSH2 0x9C0 PUSH32 0x0 DUP10 DUP9 DUP9 DUP1 DUP1 PUSH1 0x20 MUL PUSH1 0x20 ADD PUSH1 0x40 MLOAD SWAP1 DUP2 ADD PUSH1 0x40 MSTORE DUP1 SWAP4 SWAP3 SWAP2 SWAP1 DUP2 DUP2 MSTORE PUSH1 0x20 ADD DUP4 DUP4 PUSH1 0x20 MUL DUP1 DUP3 DUP5 CALLDATACOPY PUSH0 DUP2 DUP5 ADD MSTORE PUSH1 0x1F NOT PUSH1 0x1F DUP3 ADD AND SWAP1 POP DUP1 DUP4 ADD SWAP3 POP POP POP POP POP POP POP PUSH2 0x36B4 JUMP JUMPDEST SWAP2 POP DUP7 DUP3 PUSH1 0x1 DUP5 MLOAD PUSH2 0x9D2 SWAP2 SWAP1 PUSH2 0x5391 JUMP JUMPDEST DUP2 MLOAD DUP2 LT PUSH2 0x9E3 JUMPI PUSH2 0x9E2 PUSH2 0x53C4 JUMP JUMPDEST JUMPDEST PUSH1 0x20 MUL PUSH1 0x20 ADD ADD MLOAD LT ISZERO PUSH2 0xA2C JUMPI PUSH1 0x40 MLOAD PUSH32 0x8C379A000000000000000000000000000000000000000000000000000000000 DUP2 MSTORE PUSH1 0x4 ADD PUSH2 0xA23 SWAP1 PUSH2 0x54F4 JUMP JUMPDEST PUSH1 0x40 MLOAD DUP1 SWAP2 SUB SWAP1 REVERT JUMPDEST PUSH2 0xAF2 DUP7 DUP7 PUSH0 DUP2 DUP2 LT PUSH2 0xA42 JUMPI PUSH2 0xA41 PUSH2 0x53C4 JUMP JUMPDEST JUMPDEST SWAP1 POP PUSH1 0x20 MUL ADD PUSH1 0x20 DUP2 ADD SWAP1 PUSH2 0xA57 SWAP2 SWAP1 PUSH2 0x53F1 JUMP JUMPDEST CALLER PUSH2 0xAD2 PUSH32 0x0 DUP11 DUP11 PUSH0 DUP2 DUP2 LT PUSH2 0xA8F JUMPI PUSH2 0xA8E PUSH2 0x53C4 JUMP JUMPDEST JUMPDEST SWAP1 POP PUSH1 0x20 MUL ADD PUSH1 0x20 DUP2 ADD SWAP1 PUSH2 0xAA4 SWAP2 SWAP1 PUSH2 0x53F1 JUMP JUMPDEST DUP12 DUP12 PUSH1 0x1 DUP2 DUP2 LT PUSH2 0xAB8 JUMPI PUSH2 0xAB7 PUSH2 0x53C4 JUMP JUMPDEST JUMPDEST SWAP1 POP PUSH1 0x20 MUL ADD PUSH1 0x20 DUP2 ADD SWAP1 PUSH2 0xACD SWAP2 SWAP1 PUSH2 0x53F1 JUMP JUMPDEST PUSH2 0x3836 JUMP JUMPDEST DUP6 PUSH0 DUP2 MLOAD DUP2 LT PUSH2 0xAE5 JUMPI PUSH2 0xAE4 PUSH2 0x53C4 JUMP JUMPDEST JUMPDEST PUSH1 0x20 MUL PUSH1 0x20 ADD ADD MLOAD PUSH2 0x38A5 JUMP JUMPDEST PUSH2 0xB3D DUP3 DUP8 DUP8 DUP1 DUP1 PUSH1 0x20 MUL PUSH1 0x20 ADD PUSH1 0x40 MLOAD SWAP1 DUP2 ADD PUSH1 0x40 MSTORE DUP1 SWAP4 SWAP3 SWAP2 SWAP1 DUP2 DUP2 MSTORE PUSH1 0x20 ADD DUP4 DUP4 PUSH1 0x20 MUL DUP1 DUP3 DUP5 CALLDATACOPY PUSH0 DUP2 DUP5 ADD MSTORE PUSH1 0x1F NOT PUSH1 0x1F DUP3 ADD AND SWAP1 POP DUP1 DUP4 ADD SWAP3 POP POP POP POP POP POP POP ADDRESS PUSH2 0x39D8 JUMP JUMPDEST PUSH32 0x0 PUSH20 0xFFFFFFFFFFFFFFFFFFFFFFFFFFFFFFFFFFFFFFFF AND PUSH4 0x2E1A7D4D DUP4 PUSH1 0x1 DUP6 MLOAD PUSH2 0xB88 SWAP2 SWAP1 PUSH2 0x5391 JUMP JUMPDEST DUP2 MLOAD DUP2 LT PUSH2 0xB99 JUMPI PUSH2 0xB98 PUSH2 0x53C4 JUMP JUMPDEST JUMPDEST PUSH1 0x20 MUL PUSH1 0x20 ADD ADD MLOAD PUSH1 0x40 MLOAD DUP3 PUSH4 0xFFFFFFFF AND PUSH1 0xE0 SHL DUP2 MSTORE PUSH1 0x4 ADD PUSH2 0xBBD SWAP2 SWAP1 PUSH2 0x4AD0 JUMP JUMPDEST PUSH0 PUSH1 0x40 MLOAD DUP1 DUP4 SUB DUP2 PUSH0 DUP8 DUP1 EXTCODESIZE ISZERO DUP1 ISZERO PUSH2 0xBD4 JUMPI PUSH0 DUP1 REVERT JUMPDEST POP GAS CALL ISZERO DUP1 ISZERO PUSH2 0xBE6 JUMPI RETURNDATASIZE PUSH0 DUP1 RETURNDATACOPY RETURNDATASIZE PUSH0 REVERT JUMPDEST POP POP POP POP PUSH2 0xC1B DUP5 DUP4 PUSH1 0x1 DUP6 MLOAD PUSH2 0xBFD SWAP2 SWAP1 PUSH2 0x5391 JUMP JUMPDEST DUP2 MLOAD DUP2 LT PUSH2 0xC0E JUMPI PUSH2 0xC0D PUSH2 0x53C4 JUMP JUMPDEST JUMPDEST PUSH1 0x20 MUL PUSH1 0x20 ADD ADD MLOAD PUSH2 0x34B9 JUMP JUMPDEST POP SWAP7 SWAP6 POP POP POP POP POP POP JUMP JUMPDEST PUSH0 PUSH32 0x0 SWAP1 POP SWAP1 JUMP JUMPDEST PUSH1 0x60 PUSH2 0xC7A PUSH32 0x0 DUP5 DUP5 PUSH2 0x3C1D JUMP JUMPDEST SWAP1 POP SWAP3 SWAP2 POP POP JUMP JUMPDEST PUSH0 DUP1 PUSH0 PUSH2 0xCB0 PUSH32 0x0 DUP16 DUP16 PUSH2 0x3836 JUMP JUMPDEST SWAP1 POP PUSH0 DUP8 PUSH2 0xCBE JUMPI DUP13 PUSH2 0xCE0 JUMP JUMPDEST PUSH32 0xFFFFFFFFFFFFFFFFFFFFFFFFFFFFFFFFFFFFFFFFFFFFFFFFFFFFFFFFFFFFFFFF JUMPDEST SWAP1 POP DUP2 PUSH20 0xFFFFFFFFFFFFFFFFFFFFFFFFFFFFFFFFFFFFFFFF AND PUSH4 0xD505ACCF CALLER ADDRESS DUP5 DUP14 DUP13 DUP13 DUP13 PUSH1 0x40 MLOAD DUP9 PUSH4 0xFFFFFFFF AND PUSH1 0xE0 SHL DUP2 MSTORE PUSH1 0x4 ADD PUSH2 0xD27 SWAP8 SWAP7 SWAP6 SWAP5 SWAP4 SWAP3 SWAP2 SWAP1 PUSH2 0x5530 JUMP JUMPDEST PUSH0 PUSH1 0x40 MLOAD DUP1 DUP4 SUB DUP2 PUSH0 DUP8 DUP1 EXTCODESIZE ISZERO DUP1 ISZERO PUSH2 0xD3E JUMPI PUSH0 DUP1 REVERT JUMPDEST POP GAS CALL ISZERO DUP1 ISZERO PUSH2 0xD50 JUMPI RETURNDATASIZE PUSH0 DUP1 RETURNDATACOPY RETURNDATASIZE PUSH0 REVERT JUMPDEST POP POP POP POP PUSH2 0xD63 DUP16 DUP16 DUP16 DUP16 DUP16 DUP16 DUP16 PUSH2 0x27AE JUMP JUMPDEST DUP1 SWAP5 POP DUP2 SWAP6 POP POP POP POP POP SWAP12 POP SWAP12 SWAP10 POP POP POP POP POP POP POP POP POP POP JUMP JUMPDEST PUSH1 0x60 DUP2 TIMESTAMP DUP2 LT ISZERO PUSH2 0xDC3 JUMPI PUSH1 0x40 MLOAD PUSH32 0x8C379A000000000000000000000000000000000000000000000000000000000 DUP2 MSTORE PUSH1 0x4 ADD PUSH2 0xDBA SWAP1 PUSH2 0x5346 JUMP JUMPDEST PUSH1 0x40 MLOAD DUP1 SWAP2 SUB SWAP1 REVERT JUMPDEST PUSH2 0xE2E PUSH32 0x0 DUP10 DUP9 DUP9 DUP1 DUP1 PUSH1 0x20 MUL PUSH1 0x20 ADD PUSH1 0x40 MLOAD SWAP1 DUP2 ADD PUSH1 0x40 MSTORE DUP1 SWAP4 SWAP3 SWAP2 SWAP1 DUP2 DUP2 MSTORE PUSH1 0x20 ADD DUP4 DUP4 PUSH1 0x20 MUL DUP1 DUP3 DUP5 CALLDATACOPY PUSH0 DUP2 DUP5 ADD MSTORE PUSH1 0x1F NOT PUSH1 0x1F DUP3 ADD AND SWAP1 POP DUP1 DUP4 ADD SWAP3 POP POP POP POP POP POP POP PUSH2 0x36B4 JUMP JUMPDEST SWAP2 POP DUP7 DUP3 PUSH1 0x1 DUP5 MLOAD PUSH2 0xE40 SWAP2 SWAP1 PUSH2 0x5391 JUMP JUMPDEST DUP2 MLOAD DUP2 LT PUSH2 0xE51 JUMPI PUSH2 0xE50 PUSH2 0x53C4 JUMP JUMPDEST JUMPDEST PUSH1 0x20 MUL PUSH1 0x20 ADD ADD MLOAD LT ISZERO PUSH2 0xE9A JUMPI PUSH1 0x40 MLOAD PUSH32 0x8C379A000000000000000000000000000000000000000000000000000000000 DUP2 MSTORE PUSH1 0x4 ADD PUSH2 0xE91 SWAP1 PUSH2 0x54F4 JUMP JUMPDEST PUSH1 0x40 MLOAD DUP1 SWAP2 SUB SWAP1 REVERT JUMPDEST PUSH2 0xF60 DUP7 DUP7 PUSH0 DUP2 DUP2 LT PUSH2 0xEB0 JUMPI PUSH2 0xEAF PUSH2 0x53C4 JUMP JUMPDEST JUMPDEST SWAP1 POP PUSH1 0x20 MUL ADD PUSH1 0x20 DUP2 ADD SWAP1 PUSH2 0xEC5 SWAP2 SWAP1 PUSH2 0x53F1 JUMP JUMPDEST CALLER PUSH2 0xF40 PUSH32 0x0 DUP11 DUP11 PUSH0 DUP2 DUP2 LT PUSH2 0xEFD JUMPI PUSH2 0xEFC PUSH2 0x53C4 JUMP JUMPDEST JUMPDEST SWAP1 POP PUSH1 0x20 MUL ADD PUSH1 0x20 DUP2 ADD SWAP1 PUSH2 0xF12 SWAP2 SWAP1 PUSH2 0x53F1 JUMP JUMPDEST DUP12 DUP12 PUSH1 0x1 DUP2 DUP2 LT PUSH2 0xF26 JUMPI PUSH2 0xF25 PUSH2 0x53C4 JUMP JUMPDEST JUMPDEST SWAP1 POP PUSH1 0x20 MUL ADD PUSH1 0x20 DUP2 ADD SWAP1 PUSH2 0xF3B SWAP2 SWAP1 PUSH2 0x53F1 JUMP JUMPDEST PUSH2 0x3836 JUMP JUMPDEST DUP6 PUSH0 DUP2 MLOAD DUP2 LT PUSH2 0xF53 JUMPI PUSH2 0xF52 PUSH2 0x53C4 JUMP JUMPDEST JUMPDEST PUSH1 0x20 MUL PUSH1 0x20 ADD ADD MLOAD PUSH2 0x38A5 JUMP JUMPDEST PUSH2 0xFAB DUP3 DUP8 DUP8 DUP1 DUP1 PUSH1 0x20 MUL PUSH1 0x20 ADD PUSH1 0x40 MLOAD SWAP1 DUP2 ADD PUSH1 0x40 MSTORE DUP1 SWAP4 SWAP3 SWAP2 SWAP1 DUP2 DUP2 MSTORE PUSH1 0x20 ADD DUP4 DUP4 PUSH1 0x20 MUL DUP1 DUP3 DUP5 CALLDATACOPY PUSH0 DUP2 DUP5 ADD MSTORE PUSH1 0x1F NOT PUSH1 0x1F DUP3 ADD AND SWAP1 POP DUP1 DUP4 ADD SWAP3 POP POP POP POP POP POP POP DUP7 PUSH2 0x39D8 JUMP JUMPDEST POP SWAP7 SWAP6 POP POP POP POP POP POP JUMP JUMPDEST PUSH1 0x60 DUP2 TIMESTAMP DUP2 LT ISZERO PUSH2 0xFFC JUMPI PUSH1 0x40 MLOAD PUSH32 0x8C379A000000000000000000000000000000000000000000000000000000000 DUP2 MSTORE PUSH1 0x4 ADD PUSH2 0xFF3 SWAP1 PUSH2 0x5346 JUMP JUMPDEST PUSH1 0x40 MLOAD DUP1 SWAP2 SUB SWAP1 REVERT JUMPDEST PUSH32 0x0 PUSH20 0xFFFFFFFFFFFFFFFFFFFFFFFFFFFFFFFFFFFFFFFF AND DUP7 DUP7 PUSH1 0x1 DUP10 DUP10 SWAP1 POP PUSH2 0x1045 SWAP2 SWAP1 PUSH2 0x5391 JUMP JUMPDEST DUP2 DUP2 LT PUSH2 0x1055 JUMPI PUSH2 0x1054 PUSH2 0x53C4 JUMP JUMPDEST JUMPDEST SWAP1 POP PUSH1 0x20 MUL ADD PUSH1 0x20 DUP2 ADD SWAP1 PUSH2 0x106A SWAP2 SWAP1 PUSH2 0x53F1 JUMP JUMPDEST PUSH20 0xFFFFFFFFFFFFFFFFFFFFFFFFFFFFFFFFFFFFFFFF AND EQ PUSH2 0x10C0 JUMPI PUSH1 0x40 MLOAD PUSH32 0x8C379A000000000000000000000000000000000000000000000000000000000 DUP2 MSTORE PUSH1 0x4 ADD PUSH2 0x10B7 SWAP1 PUSH2 0x5466 JUMP JUMPDEST PUSH1 0x40 MLOAD DUP1 SWAP2 SUB SWAP1 REVERT JUMPDEST PUSH2 0x112B PUSH32 0x0 DUP10 DUP9 DUP9 DUP1 DUP1 PUSH1 0x20 MUL PUSH1 0x20 ADD PUSH1 0x40 MLOAD SWAP1 DUP2 ADD PUSH1 0x40 MSTORE DUP1 SWAP4 SWAP3 SWAP2 SWAP1 DUP2 DUP2 MSTORE PUSH1 0x20 ADD DUP4 DUP4 PUSH1 0x20 MUL DUP1 DUP3 DUP5 CALLDATACOPY PUSH0 DUP2 DUP5 ADD MSTORE PUSH1 0x1F NOT PUSH1 0x1F DUP3 ADD AND SWAP1 POP DUP1 DUP4 ADD SWAP3 POP POP POP POP POP POP POP PUSH2 0x3C1D JUMP JUMPDEST SWAP2 POP DUP7 DUP3 PUSH0 DUP2 MLOAD DUP2 LT PUSH2 0x1141 JUMPI PUSH2 0x1140 PUSH2 0x53C4 JUMP JUMPDEST JUMPDEST PUSH1 0x20 MUL PUSH1 0x20 ADD ADD MLOAD GT ISZERO PUSH2 0x118A JUMPI PUSH1 0x40 MLOAD PUSH32 0x8C379A000000000000000000000000000000000000000000000000000000000 DUP2 MSTORE PUSH1 0x4 ADD PUSH2 0x1181 SWAP1 PUSH2 0x560D JUMP JUMPDEST PUSH1 0x40 MLOAD DUP1 SWAP2 SUB SWAP1 REVERT JUMPDEST PUSH2 0x1250 DUP7 DUP7 PUSH0 DUP2 DUP2 LT PUSH2 0x11A0 JUMPI PUSH2 0x119F PUSH2 0x53C4 JUMP JUMPDEST JUMPDEST SWAP1 POP PUSH1 0x20 MUL ADD PUSH1 0x20 DUP2 ADD SWAP1 PUSH2 0x11B5 SWAP2 SWAP1 PUSH2 0x53F1 JUMP JUMPDEST CALLER PUSH2 0x1230 PUSH32 0x0 DUP11 DUP11 PUSH0 DUP2 DUP2 LT PUSH2 0x11ED JUMPI PUSH2 0x11EC PUSH2 0x53C4 JUMP JUMPDEST JUMPDEST SWAP1 POP PUSH1 0x20 MUL ADD PUSH1 0x20 DUP2 ADD SWAP1 PUSH2 0x1202 SWAP2 SWAP1 PUSH2 0x53F1 JUMP JUMPDEST DUP12 DUP12 PUSH1 0x1 DUP2 DUP2 LT PUSH2 0x1216 JUMPI PUSH2 0x1215 PUSH2 0x53C4 JUMP JUMPDEST JUMPDEST SWAP1 POP PUSH1 0x20 MUL ADD PUSH1 0x20 DUP2 ADD SWAP1 PUSH2 0x122B SWAP2 SWAP1 PUSH2 0x53F1 JUMP JUMPDEST PUSH2 0x3836 JUMP JUMPDEST DUP6 PUSH0 DUP2 MLOAD DUP2 LT PUSH2 0x1243 JUMPI PUSH2 0x1242 PUSH2 0x53C4 JUMP JUMPDEST JUMPDEST PUSH1 0x20 MUL PUSH1 0x20 ADD ADD MLOAD PUSH2 0x38A5 JUMP JUMPDEST PUSH2 0x129B DUP3 DUP8 DUP8 DUP1 DUP1 PUSH1 0x20 MUL PUSH1 0x20 ADD PUSH1 0x40 MLOAD SWAP1 DUP2 ADD PUSH1 0x40 MSTORE DUP1 SWAP4 SWAP3 SWAP2 SWAP1 DUP2 DUP2 MSTORE PUSH1 0x20 ADD DUP4 DUP4 PUSH1 0x20 MUL DUP1 DUP3 DUP5 CALLDATACOPY PUSH0 DUP2 DUP5 ADD MSTORE PUSH1 0x1F NOT PUSH1 0x1F DUP3 ADD AND SWAP1 POP DUP1 DUP4 ADD SWAP3 POP POP POP POP POP POP POP ADDRESS PUSH2 0x39D8 JUMP JUMPDEST PUSH32 0x0 PUSH20 0xFFFFFFFFFFFFFFFFFFFFFFFFFFFFFFFFFFFFFFFF AND PUSH4 0x2E1A7D4D DUP4 PUSH1 0x1 DUP6 MLOAD PUSH2 0x12E6 SWAP2 SWAP1 PUSH2 0x5391 JUMP JUMPDEST DUP2 MLOAD DUP2 LT PUSH2 0x12F7 JUMPI PUSH2 0x12F6 PUSH2 0x53C4 JUMP JUMPDEST JUMPDEST PUSH1 0x20 MUL PUSH1 0x20 ADD ADD MLOAD PUSH1 0x40 MLOAD DUP3 PUSH4 0xFFFFFFFF AND PUSH1 0xE0 SHL DUP2 MSTORE PUSH1 0x4 ADD PUSH2 0x131B SWAP2 SWAP1 PUSH2 0x4AD0 JUMP JUMPDEST PUSH0 PUSH1 0x40 MLOAD DUP1 DUP4 SUB DUP2 PUSH0 DUP8 DUP1 EXTCODESIZE ISZERO DUP1 ISZERO PUSH2 0x1332 JUMPI PUSH0 DUP1 REVERT JUMPDEST POP GAS CALL ISZERO DUP1 ISZERO PUSH2 0x1344 JUMPI RETURNDATASIZE PUSH0 DUP1 RETURNDATACOPY RETURNDATASIZE PUSH0 REVERT JUMPDEST POP POP POP POP PUSH2 0x1379 DUP5 DUP4 PUSH1 0x1 DUP6 MLOAD PUSH2 0x135B SWAP2 SWAP1 PUSH2 0x5391 JUMP JUMPDEST DUP2 MLOAD DUP2 LT PUSH2 0x136C JUMPI PUSH2 0x136B PUSH2 0x53C4 JUMP JUMPDEST JUMPDEST PUSH1 0x20 MUL PUSH1 0x20 ADD ADD MLOAD PUSH2 0x34B9 JUMP JUMPDEST POP SWAP7 SWAP6 POP POP POP POP POP POP JUMP JUMPDEST PUSH0 DUP1 PUSH2 0x13D1 PUSH32 0x0 DUP14 PUSH32 0x0 PUSH2 0x3836 JUMP JUMPDEST SWAP1 POP PUSH0 DUP7 PUSH2 0x13DF JUMPI DUP12 PUSH2 0x1401 JUMP JUMPDEST PUSH32 0xFFFFFFFFFFFFFFFFFFFFFFFFFFFFFFFFFFFFFFFFFFFFFFFFFFFFFFFFFFFFFFFF JUMPDEST SWAP1 POP DUP2 PUSH20 0xFFFFFFFFFFFFFFFFFFFFFFFFFFFFFFFFFFFFFFFF AND PUSH4 0xD505ACCF CALLER ADDRESS DUP5 DUP13 DUP12 DUP12 DUP12 PUSH1 0x40 MLOAD DUP9 PUSH4 0xFFFFFFFF AND PUSH1 0xE0 SHL DUP2 MSTORE PUSH1 0x4 ADD PUSH2 0x1448 SWAP8 SWAP7 SWAP6 SWAP5 SWAP4 SWAP3 SWAP2 SWAP1 PUSH2 0x5530 JUMP JUMPDEST PUSH0 PUSH1 0x40 MLOAD DUP1 DUP4 SUB DUP2 PUSH0 DUP8 DUP1 EXTCODESIZE ISZERO DUP1 ISZERO PUSH2 0x145F JUMPI PUSH0 DUP1 REVERT JUMPDEST POP GAS CALL ISZERO DUP1 ISZERO PUSH2 0x1471 JUMPI RETURNDATASIZE PUSH0 DUP1 RETURNDATACOPY RETURNDATASIZE PUSH0 REVERT JUMPDEST POP POP POP POP PUSH2 0x1483 DUP14 DUP14 DUP14 DUP14 DUP14 DUP14 PUSH2 0x2175 JUMP JUMPDEST SWAP3 POP POP POP SWAP11 SWAP10 POP POP POP POP POP POP POP POP POP POP JUMP JUMPDEST DUP1 TIMESTAMP DUP2 LT ISZERO PUSH2 0x14D9 JUMPI PUSH1 0x40 MLOAD PUSH32 0x8C379A000000000000000000000000000000000000000000000000000000000 DUP2 MSTORE PUSH1 0x4 ADD PUSH2 0x14D0 SWAP1 PUSH2 0x5346 JUMP JUMPDEST PUSH1 0x40 MLOAD DUP1 SWAP2 SUB SWAP1 REVERT JUMPDEST PUSH2 0x1585 DUP6 DUP6 PUSH0 DUP2 DUP2 LT PUSH2 0x14EF JUMPI PUSH2 0x14EE PUSH2 0x53C4 JUMP JUMPDEST JUMPDEST SWAP1 POP PUSH1 0x20 MUL ADD PUSH1 0x20 DUP2 ADD SWAP1 PUSH2 0x1504 SWAP2 SWAP1 PUSH2 0x53F1 JUMP JUMPDEST CALLER PUSH2 0x157F PUSH32 0x0 DUP10 DUP10 PUSH0 DUP2 DUP2 LT PUSH2 0x153C JUMPI PUSH2 0x153B PUSH2 0x53C4 JUMP JUMPDEST JUMPDEST SWAP1 POP PUSH1 0x20 MUL ADD PUSH1 0x20 DUP2 ADD SWAP1 PUSH2 0x1551 SWAP2 SWAP1 PUSH2 0x53F1 JUMP JUMPDEST DUP11 DUP11 PUSH1 0x1 DUP2 DUP2 LT PUSH2 0x1565 JUMPI PUSH2 0x1564 PUSH2 0x53C4 JUMP JUMPDEST JUMPDEST SWAP1 POP PUSH1 0x20 MUL ADD PUSH1 0x20 DUP2 ADD SWAP1 PUSH2 0x157A SWAP2 SWAP1 PUSH2 0x53F1 JUMP JUMPDEST PUSH2 0x3836 JUMP JUMPDEST DUP11 PUSH2 0x38A5 JUMP JUMPDEST PUSH0 DUP6 DUP6 PUSH1 0x1 DUP9 DUP9 SWAP1 POP PUSH2 0x1598 SWAP2 SWAP1 PUSH2 0x5391 JUMP JUMPDEST DUP2 DUP2 LT PUSH2 0x15A8 JUMPI PUSH2 0x15A7 PUSH2 0x53C4 JUMP JUMPDEST JUMPDEST SWAP1 POP PUSH1 0x20 MUL ADD PUSH1 0x20 DUP2 ADD SWAP1 PUSH2 0x15BD SWAP2 SWAP1 PUSH2 0x53F1 JUMP JUMPDEST PUSH20 0xFFFFFFFFFFFFFFFFFFFFFFFFFFFFFFFFFFFFFFFF AND PUSH4 0x70A08231 DUP6 PUSH1 0x40 MLOAD DUP3 PUSH4 0xFFFFFFFF AND PUSH1 0xE0 SHL DUP2 MSTORE PUSH1 0x4 ADD PUSH2 0x15F5 SWAP2 SWAP1 PUSH2 0x4CC6 JUMP JUMPDEST PUSH1 0x20 PUSH1 0x40 MLOAD DUP1 DUP4 SUB DUP2 DUP7 GAS STATICCALL ISZERO DUP1 ISZERO PUSH2 0x1610 JUMPI RETURNDATASIZE PUSH0 DUP1 RETURNDATACOPY RETURNDATASIZE PUSH0 REVERT JUMPDEST POP POP POP POP PUSH1 0x40 MLOAD RETURNDATASIZE PUSH1 0x1F NOT PUSH1 0x1F DUP3 ADD AND DUP3 ADD DUP1 PUSH1 0x40 MSTORE POP DUP2 ADD SWAP1 PUSH2 0x1634 SWAP2 SWAP1 PUSH2 0x563F JUMP JUMPDEST SWAP1 POP PUSH2 0x1680 DUP7 DUP7 DUP1 DUP1 PUSH1 0x20 MUL PUSH1 0x20 ADD PUSH1 0x40 MLOAD SWAP1 DUP2 ADD PUSH1 0x40 MSTORE DUP1 SWAP4 SWAP3 SWAP2 SWAP1 DUP2 DUP2 MSTORE PUSH1 0x20 ADD DUP4 DUP4 PUSH1 0x20 MUL DUP1 DUP3 DUP5 CALLDATACOPY PUSH0 DUP2 DUP5 ADD MSTORE PUSH1 0x1F NOT PUSH1 0x1F DUP3 ADD AND SWAP1 POP DUP1 DUP4 ADD SWAP3 POP POP POP POP POP POP POP DUP6 PUSH2 0x3DB5 JUMP JUMPDEST DUP7 PUSH2 0x1741 DUP3 DUP9 DUP9 PUSH1 0x1 DUP12 DUP12 SWAP1 POP PUSH2 0x1697 SWAP2 SWAP1 PUSH2 0x5391 JUMP JUMPDEST DUP2 DUP2 LT PUSH2 0x16A7 JUMPI PUSH2 0x16A6 PUSH2 0x53C4 JUMP JUMPDEST JUMPDEST SWAP1 POP PUSH1 0x20 MUL ADD PUSH1 0x20 DUP2 ADD SWAP1 PUSH2 0x16BC SWAP2 SWAP1 PUSH2 0x53F1 JUMP JUMPDEST PUSH20 0xFFFFFFFFFFFFFFFFFFFFFFFFFFFFFFFFFFFFFFFF AND PUSH4 0x70A08231 DUP9 PUSH1 0x40 MLOAD DUP3 PUSH4 0xFFFFFFFF AND PUSH1 0xE0 SHL DUP2 MSTORE PUSH1 0x4 ADD PUSH2 0x16F4 SWAP2 SWAP1 PUSH2 0x4CC6 JUMP JUMPDEST PUSH1 0x20 PUSH1 0x40 MLOAD DUP1 DUP4 SUB DUP2 DUP7 GAS STATICCALL ISZERO DUP1 ISZERO PUSH2 0x170F JUMPI RETURNDATASIZE PUSH0 DUP1 RETURNDATACOPY RETURNDATASIZE PUSH0 REVERT JUMPDEST POP POP POP POP PUSH1 0x40 MLOAD RETURNDATASIZE PUSH1 0x1F NOT PUSH1 0x1F DUP3 ADD AND DUP3 ADD DUP1 PUSH1 0x40 MSTORE POP DUP2 ADD SWAP1 PUSH2 0x1733 SWAP2 SWAP1 PUSH2 0x563F JUMP JUMPDEST PUSH2 0x414B SWAP1 SWAP2 SWAP1 PUSH4 0xFFFFFFFF AND JUMP JUMPDEST LT ISZERO PUSH2 0x1782 JUMPI PUSH1 0x40 MLOAD PUSH32 0x8C379A000000000000000000000000000000000000000000000000000000000 DUP2 MSTORE PUSH1 0x4 ADD PUSH2 0x1779 SWAP1 PUSH2 0x54F4 JUMP JUMPDEST PUSH1 0x40 MLOAD DUP1 SWAP2 SUB SWAP1 REVERT JUMPDEST POP POP POP POP POP POP POP POP JUMP JUMPDEST DUP1 TIMESTAMP DUP2 LT ISZERO PUSH2 0x17D0 JUMPI PUSH1 0x40 MLOAD PUSH32 0x8C379A000000000000000000000000000000000000000000000000000000000 DUP2 MSTORE PUSH1 0x4 ADD PUSH2 0x17C7 SWAP1 PUSH2 0x5346 JUMP JUMPDEST PUSH1 0x40 MLOAD DUP1 SWAP2 SUB SWAP1 REVERT JUMPDEST PUSH32 0x0 PUSH20 0xFFFFFFFFFFFFFFFFFFFFFFFFFFFFFFFFFFFFFFFF AND DUP6 DUP6 PUSH1 0x1 DUP9 DUP9 SWAP1 POP PUSH2 0x1819 SWAP2 SWAP1 PUSH2 0x5391 JUMP JUMPDEST DUP2 DUP2 LT PUSH2 0x1829 JUMPI PUSH2 0x1828 PUSH2 0x53C4 JUMP JUMPDEST JUMPDEST SWAP1 POP PUSH1 0x20 MUL ADD PUSH1 0x20 DUP2 ADD SWAP1 PUSH2 0x183E SWAP2 SWAP1 PUSH2 0x53F1 JUMP JUMPDEST PUSH20 0xFFFFFFFFFFFFFFFFFFFFFFFFFFFFFFFFFFFFFFFF AND EQ PUSH2 0x1894 JUMPI PUSH1 0x40 MLOAD PUSH32 0x8C379A000000000000000000000000000000000000000000000000000000000 DUP2 MSTORE PUSH1 0x4 ADD PUSH2 0x188B SWAP1 PUSH2 0x5466 JUMP JUMPDEST PUSH1 0x40 MLOAD DUP1 SWAP2 SUB SWAP1 REVERT JUMPDEST PUSH2 0x1940 DUP6 DUP6 PUSH0 DUP2 DUP2 LT PUSH2 0x18AA JUMPI PUSH2 0x18A9 PUSH2 0x53C4 JUMP JUMPDEST JUMPDEST SWAP1 POP PUSH1 0x20 MUL ADD PUSH1 0x20 DUP2 ADD SWAP1 PUSH2 0x18BF SWAP2 SWAP1 PUSH2 0x53F1 JUMP JUMPDEST CALLER PUSH2 0x193A PUSH32 0x0 DUP10 DUP10 PUSH0 DUP2 DUP2 LT PUSH2 0x18F7 JUMPI PUSH2 0x18F6 PUSH2 0x53C4 JUMP JUMPDEST JUMPDEST SWAP1 POP PUSH1 0x20 MUL ADD PUSH1 0x20 DUP2 ADD SWAP1 PUSH2 0x190C SWAP2 SWAP1 PUSH2 0x53F1 JUMP JUMPDEST DUP11 DUP11 PUSH1 0x1 DUP2 DUP2 LT PUSH2 0x1920 JUMPI PUSH2 0x191F PUSH2 0x53C4 JUMP JUMPDEST JUMPDEST SWAP1 POP PUSH1 0x20 MUL ADD PUSH1 0x20 DUP2 ADD SWAP1 PUSH2 0x1935 SWAP2 SWAP1 PUSH2 0x53F1 JUMP JUMPDEST PUSH2 0x3836 JUMP JUMPDEST DUP11 PUSH2 0x38A5 JUMP JUMPDEST PUSH2 0x198A DUP6 DUP6 DUP1 DUP1 PUSH1 0x20 MUL PUSH1 0x20 ADD PUSH1 0x40 MLOAD SWAP1 DUP2 ADD PUSH1 0x40 MSTORE DUP1 SWAP4 SWAP3 SWAP2 SWAP1 DUP2 DUP2 MSTORE PUSH1 0x20 ADD DUP4 DUP4 PUSH1 0x20 MUL DUP1 DUP3 DUP5 CALLDATACOPY PUSH0 DUP2 DUP5 ADD MSTORE PUSH1 0x1F NOT PUSH1 0x1F DUP3 ADD AND SWAP1 POP DUP1 DUP4 ADD SWAP3 POP POP POP POP POP POP POP ADDRESS PUSH2 0x3DB5 JUMP JUMPDEST PUSH0 PUSH32 0x0 PUSH20 0xFFFFFFFFFFFFFFFFFFFFFFFFFFFFFFFFFFFFFFFF AND PUSH4 0x70A08231 ADDRESS PUSH1 0x40 MLOAD DUP3 PUSH4 0xFFFFFFFF AND PUSH1 0xE0 SHL DUP2 MSTORE PUSH1 0x4 ADD PUSH2 0x19E4 SWAP2 SWAP1 PUSH2 0x4CC6 JUMP JUMPDEST PUSH1 0x20 PUSH1 0x40 MLOAD DUP1 DUP4 SUB DUP2 DUP7 GAS STATICCALL ISZERO DUP1 ISZERO PUSH2 0x19FF JUMPI RETURNDATASIZE PUSH0 DUP1 RETURNDATACOPY RETURNDATASIZE PUSH0 REVERT JUMPDEST POP POP POP POP PUSH1 0x40 MLOAD RETURNDATASIZE PUSH1 0x1F NOT PUSH1 0x1F DUP3 ADD AND DUP3 ADD DUP1 PUSH1 0x40 MSTORE POP DUP2 ADD SWAP1 PUSH2 0x1A23 SWAP2 SWAP1 PUSH2 0x563F JUMP JUMPDEST SWAP1 POP DUP7 DUP2 LT ISZERO PUSH2 0x1A68 JUMPI PUSH1 0x40 MLOAD PUSH32 0x8C379A000000000000000000000000000000000000000000000000000000000 DUP2 MSTORE PUSH1 0x4 ADD PUSH2 0x1A5F SWAP1 PUSH2 0x54F4 JUMP JUMPDEST PUSH1 0x40 MLOAD DUP1 SWAP2 SUB SWAP1 REVERT JUMPDEST PUSH32 0x0 PUSH20 0xFFFFFFFFFFFFFFFFFFFFFFFFFFFFFFFFFFFFFFFF AND PUSH4 0x2E1A7D4D DUP3 PUSH1 0x40 MLOAD DUP3 PUSH4 0xFFFFFFFF AND PUSH1 0xE0 SHL DUP2 MSTORE PUSH1 0x4 ADD PUSH2 0x1AC1 SWAP2 SWAP1 PUSH2 0x4AD0 JUMP JUMPDEST PUSH0 PUSH1 0x40 MLOAD DUP1 DUP4 SUB DUP2 PUSH0 DUP8 DUP1 EXTCODESIZE ISZERO DUP1 ISZERO PUSH2 0x1AD8 JUMPI PUSH0 DUP1 REVERT JUMPDEST POP GAS CALL ISZERO DUP1 ISZERO PUSH2 0x1AEA JUMPI RETURNDATASIZE PUSH0 DUP1 RETURNDATACOPY RETURNDATASIZE PUSH0 REVERT JUMPDEST POP POP POP POP PUSH2 0x1AF8 DUP5 DUP3 PUSH2 0x34B9 JUMP JUMPDEST POP POP POP POP POP POP POP POP JUMP JUMPDEST PUSH1 0x60 DUP2 TIMESTAMP DUP2 LT ISZERO PUSH2 0x1B48 JUMPI PUSH1 0x40 MLOAD PUSH32 0x8C379A000000000000000000000000000000000000000000000000000000000 DUP2 MSTORE PUSH1 0x4 ADD PUSH2 0x1B3F SWAP1 PUSH2 0x5346 JUMP JUMPDEST PUSH1 0x40 MLOAD DUP1 SWAP2 SUB SWAP1 REVERT JUMPDEST PUSH32 0x0 PUSH20 0xFFFFFFFFFFFFFFFFFFFFFFFFFFFFFFFFFFFFFFFF AND DUP7 DUP7 PUSH0 DUP2 DUP2 LT PUSH2 0x1B92 JUMPI PUSH2 0x1B91 PUSH2 0x53C4 JUMP JUMPDEST JUMPDEST SWAP1 POP PUSH1 0x20 MUL ADD PUSH1 0x20 DUP2 ADD SWAP1 PUSH2 0x1BA7 SWAP2 SWAP1 PUSH2 0x53F1 JUMP JUMPDEST PUSH20 0xFFFFFFFFFFFFFFFFFFFFFFFFFFFFFFFFFFFFFFFF AND EQ PUSH2 0x1BFD JUMPI PUSH1 0x40 MLOAD PUSH32 0x8C379A000000000000000000000000000000000000000000000000000000000 DUP2 MSTORE PUSH1 0x4 ADD PUSH2 0x1BF4 SWAP1 PUSH2 0x5466 JUMP JUMPDEST PUSH1 0x40 MLOAD DUP1 SWAP2 SUB SWAP1 REVERT JUMPDEST PUSH2 0x1C68 PUSH32 0x0 CALLVALUE DUP9 DUP9 DUP1 DUP1 PUSH1 0x20 MUL PUSH1 0x20 ADD PUSH1 0x40 MLOAD SWAP1 DUP2 ADD PUSH1 0x40 MSTORE DUP1 SWAP4 SWAP3 SWAP2 SWAP1 DUP2 DUP2 MSTORE PUSH1 0x20 ADD DUP4 DUP4 PUSH1 0x20 MUL DUP1 DUP3 DUP5 CALLDATACOPY PUSH0 DUP2 DUP5 ADD MSTORE PUSH1 0x1F NOT PUSH1 0x1F DUP3 ADD AND SWAP1 POP DUP1 DUP4 ADD SWAP3 POP POP POP POP POP POP POP PUSH2 0x36B4 JUMP JUMPDEST SWAP2 POP DUP7 DUP3 PUSH1 0x1 DUP5 MLOAD PUSH2 0x1C7A SWAP2 SWAP1 PUSH2 0x5391 JUMP JUMPDEST DUP2 MLOAD DUP2 LT PUSH2 0x1C8B JUMPI PUSH2 0x1C8A PUSH2 0x53C4 JUMP JUMPDEST JUMPDEST PUSH1 0x20 MUL PUSH1 0x20 ADD ADD MLOAD LT ISZERO PUSH2 0x1CD4 JUMPI PUSH1 0x40 MLOAD PUSH32 0x8C379A000000000000000000000000000000000000000000000000000000000 DUP2 MSTORE PUSH1 0x4 ADD PUSH2 0x1CCB SWAP1 PUSH2 0x54F4 JUMP JUMPDEST PUSH1 0x40 MLOAD DUP1 SWAP2 SUB SWAP1 REVERT JUMPDEST PUSH32 0x0 PUSH20 0xFFFFFFFFFFFFFFFFFFFFFFFFFFFFFFFFFFFFFFFF AND PUSH4 0xD0E30DB0 DUP4 PUSH0 DUP2 MLOAD DUP2 LT PUSH2 0x1D23 JUMPI PUSH2 0x1D22 PUSH2 0x53C4 JUMP JUMPDEST JUMPDEST PUSH1 0x20 MUL PUSH1 0x20 ADD ADD MLOAD PUSH1 0x40 MLOAD DUP3 PUSH4 0xFFFFFFFF AND PUSH1 0xE0 SHL DUP2 MSTORE PUSH1 0x4 ADD PUSH0 PUSH1 0x40 MLOAD DUP1 DUP4 SUB DUP2 DUP6 DUP9 DUP1 EXTCODESIZE ISZERO DUP1 ISZERO PUSH2 0x1D54 JUMPI PUSH0 DUP1 REVERT JUMPDEST POP GAS CALL ISZERO DUP1 ISZERO PUSH2 0x1D66 JUMPI RETURNDATASIZE PUSH0 DUP1 RETURNDATACOPY RETURNDATASIZE PUSH0 REVERT JUMPDEST POP POP POP POP POP PUSH32 0x0 PUSH20 0xFFFFFFFFFFFFFFFFFFFFFFFFFFFFFFFFFFFFFFFF AND PUSH4 0xA9059CBB PUSH2 0x1E21 PUSH32 0x0 DUP10 DUP10 PUSH0 DUP2 DUP2 LT PUSH2 0x1DDE JUMPI PUSH2 0x1DDD PUSH2 0x53C4 JUMP JUMPDEST JUMPDEST SWAP1 POP PUSH1 0x20 MUL ADD PUSH1 0x20 DUP2 ADD SWAP1 PUSH2 0x1DF3 SWAP2 SWAP1 PUSH2 0x53F1 JUMP JUMPDEST DUP11 DUP11 PUSH1 0x1 DUP2 DUP2 LT PUSH2 0x1E07 JUMPI PUSH2 0x1E06 PUSH2 0x53C4 JUMP JUMPDEST JUMPDEST SWAP1 POP PUSH1 0x20 MUL ADD PUSH1 0x20 DUP2 ADD SWAP1 PUSH2 0x1E1C SWAP2 SWAP1 PUSH2 0x53F1 JUMP JUMPDEST PUSH2 0x3836 JUMP JUMPDEST DUP5 PUSH0 DUP2 MLOAD DUP2 LT PUSH2 0x1E34 JUMPI PUSH2 0x1E33 PUSH2 0x53C4 JUMP JUMPDEST JUMPDEST PUSH1 0x20 MUL PUSH1 0x20 ADD ADD MLOAD PUSH1 0x40 MLOAD DUP4 PUSH4 0xFFFFFFFF AND PUSH1 0xE0 SHL DUP2 MSTORE PUSH1 0x4 ADD PUSH2 0x1E59 SWAP3 SWAP2 SWAP1 PUSH2 0x566A JUMP JUMPDEST PUSH1 0x20 PUSH1 0x40 MLOAD DUP1 DUP4 SUB DUP2 PUSH0 DUP8 GAS CALL ISZERO DUP1 ISZERO PUSH2 0x1E75 JUMPI RETURNDATASIZE PUSH0 DUP1 RETURNDATACOPY RETURNDATASIZE PUSH0 REVERT JUMPDEST POP POP POP POP PUSH1 0x40 MLOAD RETURNDATASIZE PUSH1 0x1F NOT PUSH1 0x1F DUP3 ADD AND DUP3 ADD DUP1 PUSH1 0x40 MSTORE POP DUP2 ADD SWAP1 PUSH2 0x1E99 SWAP2 SWAP1 PUSH2 0x56A5 JUMP JUMPDEST PUSH2 0x1EA6 JUMPI PUSH2 0x1EA5 PUSH2 0x48F6 JUMP JUMPDEST JUMPDEST PUSH2 0x1EF1 DUP3 DUP8 DUP8 DUP1 DUP1 PUSH1 0x20 MUL PUSH1 0x20 ADD PUSH1 0x40 MLOAD SWAP1 DUP2 ADD PUSH1 0x40 MSTORE DUP1 SWAP4 SWAP3 SWAP2 SWAP1 DUP2 DUP2 MSTORE PUSH1 0x20 ADD DUP4 DUP4 PUSH1 0x20 MUL DUP1 DUP3 DUP5 CALLDATACOPY PUSH0 DUP2 DUP5 ADD MSTORE PUSH1 0x1F NOT PUSH1 0x1F DUP3 ADD AND SWAP1 POP DUP1 DUP4 ADD SWAP3 POP POP POP POP POP POP POP DUP7 PUSH2 0x39D8 JUMP JUMPDEST POP SWAP6 SWAP5 POP POP POP POP POP JUMP JUMPDEST PUSH0 PUSH2 0x1F07 DUP5 DUP5 DUP5 PUSH2 0x41A3 JUMP JUMPDEST SWAP1 POP SWAP4 SWAP3 POP POP POP JUMP JUMPDEST PUSH1 0x60 DUP2 TIMESTAMP DUP2 LT ISZERO PUSH2 0x1F56 JUMPI PUSH1 0x40 MLOAD PUSH32 0x8C379A000000000000000000000000000000000000000000000000000000000 DUP2 MSTORE PUSH1 0x4 ADD PUSH2 0x1F4D SWAP1 PUSH2 0x5346 JUMP JUMPDEST PUSH1 0x40 MLOAD DUP1 SWAP2 SUB SWAP1 REVERT JUMPDEST PUSH2 0x1FC1 PUSH32 0x0 DUP10 DUP9 DUP9 DUP1 DUP1 PUSH1 0x20 MUL PUSH1 0x20 ADD PUSH1 0x40 MLOAD SWAP1 DUP2 ADD PUSH1 0x40 MSTORE DUP1 SWAP4 SWAP3 SWAP2 SWAP1 DUP2 DUP2 MSTORE PUSH1 0x20 ADD DUP4 DUP4 PUSH1 0x20 MUL DUP1 DUP3 DUP5 CALLDATACOPY PUSH0 DUP2 DUP5 ADD MSTORE PUSH1 0x1F NOT PUSH1 0x1F DUP3 ADD AND SWAP1 POP DUP1 DUP4 ADD SWAP3 POP POP POP POP POP POP POP PUSH2 0x3C1D JUMP JUMPDEST SWAP2 POP DUP7 DUP3 PUSH0 DUP2 MLOAD DUP2 LT PUSH2 0x1FD7 JUMPI PUSH2 0x1FD6 PUSH2 0x53C4 JUMP JUMPDEST JUMPDEST PUSH1 0x20 MUL PUSH1 0x20 ADD ADD MLOAD GT ISZERO PUSH2 0x2020 JUMPI PUSH1 0x40 MLOAD PUSH32 0x8C379A000000000000000000000000000000000000000000000000000000000 DUP2 MSTORE PUSH1 0x4 ADD PUSH2 0x2017 SWAP1 PUSH2 0x560D JUMP JUMPDEST PUSH1 0x40 MLOAD DUP1 SWAP2 SUB SWAP1 REVERT JUMPDEST PUSH2 0x20E6 DUP7 DUP7 PUSH0 DUP2 DUP2 LT PUSH2 0x2036 JUMPI PUSH2 0x2035 PUSH2 0x53C4 JUMP JUMPDEST JUMPDEST SWAP1 POP PUSH1 0x20 MUL ADD PUSH1 0x20 DUP2 ADD SWAP1 PUSH2 0x204B SWAP2 SWAP1 PUSH2 0x53F1 JUMP JUMPDEST CALLER PUSH2 0x20C6 PUSH32 0x0 DUP11 DUP11 PUSH0 DUP2 DUP2 LT PUSH2 0x2083 JUMPI PUSH2 0x2082 PUSH2 0x53C4 JUMP JUMPDEST JUMPDEST SWAP1 POP PUSH1 0x20 MUL ADD PUSH1 0x20 DUP2 ADD SWAP1 PUSH2 0x2098 SWAP2 SWAP1 PUSH2 0x53F1 JUMP JUMPDEST DUP12 DUP12 PUSH1 0x1 DUP2 DUP2 LT PUSH2 0x20AC JUMPI PUSH2 0x20AB PUSH2 0x53C4 JUMP JUMPDEST JUMPDEST SWAP1 POP PUSH1 0x20 MUL ADD PUSH1 0x20 DUP2 ADD SWAP1 PUSH2 0x20C1 SWAP2 SWAP1 PUSH2 0x53F1 JUMP JUMPDEST PUSH2 0x3836 JUMP JUMPDEST DUP6 PUSH0 DUP2 MLOAD DUP2 LT PUSH2 0x20D9 JUMPI PUSH2 0x20D8 PUSH2 0x53C4 JUMP JUMPDEST JUMPDEST PUSH1 0x20 MUL PUSH1 0x20 ADD ADD MLOAD PUSH2 0x38A5 JUMP JUMPDEST PUSH2 0x2131 DUP3 DUP8 DUP8 DUP1 DUP1 PUSH1 0x20 MUL PUSH1 0x20 ADD PUSH1 0x40 MLOAD SWAP1 DUP2 ADD PUSH1 0x40 MSTORE DUP1 SWAP4 SWAP3 SWAP2 SWAP1 DUP2 DUP2 MSTORE PUSH1 0x20 ADD DUP4 DUP4 PUSH1 0x20 MUL DUP1 DUP3 DUP5 CALLDATACOPY PUSH0 DUP2 DUP5 ADD MSTORE PUSH1 0x1F NOT PUSH1 0x1F DUP3 ADD AND SWAP1 POP DUP1 DUP4 ADD SWAP3 POP POP POP POP POP POP POP DUP7 PUSH2 0x39D8 JUMP JUMPDEST POP SWAP7 SWAP6 POP POP POP POP POP POP JUMP JUMPDEST PUSH32 0x0 DUP2 JUMP JUMPDEST PUSH0 PUSH2 0x216C DUP5 DUP5 DUP5 PUSH2 0x42B1 JUMP JUMPDEST SWAP1 POP SWAP4 SWAP3 POP POP POP JUMP JUMPDEST PUSH0 DUP2 TIMESTAMP DUP2 LT ISZERO PUSH2 0x21BA JUMPI PUSH1 0x40 MLOAD PUSH32 0x8C379A000000000000000000000000000000000000000000000000000000000 DUP2 MSTORE PUSH1 0x4 ADD PUSH2 0x21B1 SWAP1 PUSH2 0x5346 JUMP JUMPDEST PUSH1 0x40 MLOAD DUP1 SWAP2 SUB SWAP1 REVERT JUMPDEST PUSH2 0x21E9 DUP9 PUSH32 0x0 DUP10 DUP10 DUP10 ADDRESS DUP10 PUSH2 0x27AE JUMP JUMPDEST SWAP1 POP DUP1 SWAP3 POP POP PUSH2 0x2271 DUP9 DUP6 DUP11 PUSH20 0xFFFFFFFFFFFFFFFFFFFFFFFFFFFFFFFFFFFFFFFF AND PUSH4 0x70A08231 ADDRESS PUSH1 0x40 MLOAD DUP3 PUSH4 0xFFFFFFFF AND PUSH1 0xE0 SHL DUP2 MSTORE PUSH1 0x4 ADD PUSH2 0x222D SWAP2 SWAP1 PUSH2 0x4CC6 JUMP JUMPDEST PUSH1 0x20 PUSH1 0x40 MLOAD DUP1 DUP4 SUB DUP2 DUP7 GAS STATICCALL ISZERO DUP1 ISZERO PUSH2 0x2248 JUMPI RETURNDATASIZE PUSH0 DUP1 RETURNDATACOPY RETURNDATASIZE PUSH0 REVERT JUMPDEST POP POP POP POP PUSH1 0x40 MLOAD RETURNDATASIZE PUSH1 0x1F NOT PUSH1 0x1F DUP3 ADD AND DUP3 ADD DUP1 PUSH1 0x40 MSTORE POP DUP2 ADD SWAP1 PUSH2 0x226C SWAP2 SWAP1 PUSH2 0x563F JUMP JUMPDEST PUSH2 0x3389 JUMP JUMPDEST PUSH32 0x0 PUSH20 0xFFFFFFFFFFFFFFFFFFFFFFFFFFFFFFFFFFFFFFFF AND PUSH4 0x2E1A7D4D DUP4 PUSH1 0x40 MLOAD DUP3 PUSH4 0xFFFFFFFF AND PUSH1 0xE0 SHL DUP2 MSTORE PUSH1 0x4 ADD PUSH2 0x22CA SWAP2 SWAP1 PUSH2 0x4AD0 JUMP JUMPDEST PUSH0 PUSH1 0x40 MLOAD DUP1 DUP4 SUB DUP2 PUSH0 DUP8 DUP1 EXTCODESIZE ISZERO DUP1 ISZERO PUSH2 0x22E1 JUMPI PUSH0 DUP1 REVERT JUMPDEST POP GAS CALL ISZERO DUP1 ISZERO PUSH2 0x22F3 JUMPI RETURNDATASIZE PUSH0 DUP1 RETURNDATACOPY RETURNDATASIZE PUSH0 REVERT JUMPDEST POP POP POP POP PUSH2 0x2301 DUP5 DUP4 PUSH2 0x34B9 JUMP JUMPDEST POP SWAP7 SWAP6 POP POP POP POP POP POP JUMP JUMPDEST DUP1 TIMESTAMP DUP2 LT ISZERO PUSH2 0x2350 JUMPI PUSH1 0x40 MLOAD PUSH32 0x8C379A000000000000000000000000000000000000000000000000000000000 DUP2 MSTORE PUSH1 0x4 ADD PUSH2 0x2347 SWAP1 PUSH2 0x5346 JUMP JUMPDEST PUSH1 0x40 MLOAD DUP1 SWAP2 SUB SWAP1 REVERT JUMPDEST PUSH32 0x0 PUSH20 0xFFFFFFFFFFFFFFFFFFFFFFFFFFFFFFFFFFFFFFFF AND DUP6 DUP6 PUSH0 DUP2 DUP2 LT PUSH2 0x239A JUMPI PUSH2 0x2399 PUSH2 0x53C4 JUMP JUMPDEST JUMPDEST SWAP1 POP PUSH1 0x20 MUL ADD PUSH1 0x20 DUP2 ADD SWAP1 PUSH2 0x23AF SWAP2 SWAP1 PUSH2 0x53F1 JUMP JUMPDEST PUSH20 0xFFFFFFFFFFFFFFFFFFFFFFFFFFFFFFFFFFFFFFFF AND EQ PUSH2 0x2405 JUMPI PUSH1 0x40 MLOAD PUSH32 0x8C379A000000000000000000000000000000000000000000000000000000000 DUP2 MSTORE PUSH1 0x4 ADD PUSH2 0x23FC SWAP1 PUSH2 0x5466 JUMP JUMPDEST PUSH1 0x40 MLOAD DUP1 SWAP2 SUB SWAP1 REVERT JUMPDEST PUSH0 CALLVALUE SWAP1 POP PUSH32 0x0 PUSH20 0xFFFFFFFFFFFFFFFFFFFFFFFFFFFFFFFFFFFFFFFF AND PUSH4 0xD0E30DB0 DUP3 PUSH1 0x40 MLOAD DUP3 PUSH4 0xFFFFFFFF AND PUSH1 0xE0 SHL DUP2 MSTORE PUSH1 0x4 ADD PUSH0 PUSH1 0x40 MLOAD DUP1 DUP4 SUB DUP2 DUP6 DUP9 DUP1 EXTCODESIZE ISZERO DUP1 ISZERO PUSH2 0x246F JUMPI PUSH0 DUP1 REVERT JUMPDEST POP GAS CALL ISZERO DUP1 ISZERO PUSH2 0x2481 JUMPI RETURNDATASIZE PUSH0 DUP1 RETURNDATACOPY RETURNDATASIZE PUSH0 REVERT JUMPDEST POP POP POP POP POP PUSH32 0x0 PUSH20 0xFFFFFFFFFFFFFFFFFFFFFFFFFFFFFFFFFFFFFFFF AND PUSH4 0xA9059CBB PUSH2 0x253C PUSH32 0x0 DUP10 DUP10 PUSH0 DUP2 DUP2 LT PUSH2 0x24F9 JUMPI PUSH2 0x24F8 PUSH2 0x53C4 JUMP JUMPDEST JUMPDEST SWAP1 POP PUSH1 0x20 MUL ADD PUSH1 0x20 DUP2 ADD SWAP1 PUSH2 0x250E SWAP2 SWAP1 PUSH2 0x53F1 JUMP JUMPDEST DUP11 DUP11 PUSH1 0x1 DUP2 DUP2 LT PUSH2 0x2522 JUMPI PUSH2 0x2521 PUSH2 0x53C4 JUMP JUMPDEST JUMPDEST SWAP1 POP PUSH1 0x20 MUL ADD PUSH1 0x20 DUP2 ADD SWAP1 PUSH2 0x2537 SWAP2 SWAP1 PUSH2 0x53F1 JUMP JUMPDEST PUSH2 0x3836 JUMP JUMPDEST DUP4 PUSH1 0x40 MLOAD DUP4 PUSH4 0xFFFFFFFF AND PUSH1 0xE0 SHL DUP2 MSTORE PUSH1 0x4 ADD PUSH2 0x255A SWAP3 SWAP2 SWAP1 PUSH2 0x566A JUMP JUMPDEST PUSH1 0x20 PUSH1 0x40 MLOAD DUP1 DUP4 SUB DUP2 PUSH0 DUP8 GAS CALL ISZERO DUP1 ISZERO PUSH2 0x2576 JUMPI RETURNDATASIZE PUSH0 DUP1 RETURNDATACOPY RETURNDATASIZE PUSH0 REVERT JUMPDEST POP POP POP POP PUSH1 0x40 MLOAD RETURNDATASIZE PUSH1 0x1F NOT PUSH1 0x1F DUP3 ADD AND DUP3 ADD DUP1 PUSH1 0x40 MSTORE POP DUP2 ADD SWAP1 PUSH2 0x259A SWAP2 SWAP1 PUSH2 0x56A5 JUMP JUMPDEST PUSH2 0x25A7 JUMPI PUSH2 0x25A6 PUSH2 0x48F6 JUMP JUMPDEST JUMPDEST PUSH0 DUP7 DUP7 PUSH1 0x1 DUP10 DUP10 SWAP1 POP PUSH2 0x25BA SWAP2 SWAP1 PUSH2 0x5391 JUMP JUMPDEST DUP2 DUP2 LT PUSH2 0x25CA JUMPI PUSH2 0x25C9 PUSH2 0x53C4 JUMP JUMPDEST JUMPDEST SWAP1 POP PUSH1 0x20 MUL ADD PUSH1 0x20 DUP2 ADD SWAP1 PUSH2 0x25DF SWAP2 SWAP1 PUSH2 0x53F1 JUMP JUMPDEST PUSH20 0xFFFFFFFFFFFFFFFFFFFFFFFFFFFFFFFFFFFFFFFF AND PUSH4 0x70A08231 DUP7 PUSH1 0x40 MLOAD DUP3 PUSH4 0xFFFFFFFF AND PUSH1 0xE0 SHL DUP2 MSTORE PUSH1 0x4 ADD PUSH2 0x2617 SWAP2 SWAP1 PUSH2 0x4CC6 JUMP JUMPDEST PUSH1 0x20 PUSH1 0x40 MLOAD DUP1 DUP4 SUB DUP2 DUP7 GAS STATICCALL ISZERO DUP1 ISZERO PUSH2 0x2632 JUMPI RETURNDATASIZE PUSH0 DUP1 RETURNDATACOPY RETURNDATASIZE PUSH0 REVERT JUMPDEST POP POP POP POP PUSH1 0x40 MLOAD RETURNDATASIZE PUSH1 0x1F NOT PUSH1 0x1F DUP3 ADD AND DUP3 ADD DUP1 PUSH1 0x40 MSTORE POP DUP2 ADD SWAP1 PUSH2 0x2656 SWAP2 SWAP1 PUSH2 0x563F JUMP JUMPDEST SWAP1 POP PUSH2 0x26A2 DUP8 DUP8 DUP1 DUP1 PUSH1 0x20 MUL PUSH1 0x20 ADD PUSH1 0x40 MLOAD SWAP1 DUP2 ADD PUSH1 0x40 MSTORE DUP1 SWAP4 SWAP3 SWAP2 SWAP1 DUP2 DUP2 MSTORE PUSH1 0x20 ADD DUP4 DUP4 PUSH1 0x20 MUL DUP1 DUP3 DUP5 CALLDATACOPY PUSH0 DUP2 DUP5 ADD MSTORE PUSH1 0x1F NOT PUSH1 0x1F DUP3 ADD AND SWAP1 POP DUP1 DUP4 ADD SWAP3 POP POP POP POP POP POP POP DUP7 PUSH2 0x3DB5 JUMP JUMPDEST DUP8 PUSH2 0x2763 DUP3 DUP10 DUP10 PUSH1 0x1 DUP13 DUP13 SWAP1 POP PUSH2 0x26B9 SWAP2 SWAP1 PUSH2 0x5391 JUMP JUMPDEST DUP2 DUP2 LT PUSH2 0x26C9 JUMPI PUSH2 0x26C8 PUSH2 0x53C4 JUMP JUMPDEST JUMPDEST SWAP1 POP PUSH1 0x20 MUL ADD PUSH1 0x20 DUP2 ADD SWAP1 PUSH2 0x26DE SWAP2 SWAP1 PUSH2 0x53F1 JUMP JUMPDEST PUSH20 0xFFFFFFFFFFFFFFFFFFFFFFFFFFFFFFFFFFFFFFFF AND PUSH4 0x70A08231 DUP10 PUSH1 0x40 MLOAD DUP3 PUSH4 0xFFFFFFFF AND PUSH1 0xE0 SHL DUP2 MSTORE PUSH1 0x4 ADD PUSH2 0x2716 SWAP2 SWAP1 PUSH2 0x4CC6 JUMP JUMPDEST PUSH1 0x20 PUSH1 0x40 MLOAD DUP1 DUP4 SUB DUP2 DUP7 GAS STATICCALL ISZERO DUP1 ISZERO PUSH2 0x2731 JUMPI RETURNDATASIZE PUSH0 DUP1 RETURNDATACOPY RETURNDATASIZE PUSH0 REVERT JUMPDEST POP POP POP POP PUSH1 0x40 MLOAD RETURNDATASIZE PUSH1 0x1F NOT PUSH1 0x1F DUP3 ADD AND DUP3 ADD DUP1 PUSH1 0x40 MSTORE POP DUP2 ADD SWAP1 PUSH2 0x2755 SWAP2 SWAP1 PUSH2 0x563F JUMP JUMPDEST PUSH2 0x414B SWAP1 SWAP2 SWAP1 PUSH4 0xFFFFFFFF AND JUMP JUMPDEST LT ISZERO PUSH2 0x27A4 JUMPI PUSH1 0x40 MLOAD PUSH32 0x8C379A000000000000000000000000000000000000000000000000000000000 DUP2 MSTORE PUSH1 0x4 ADD PUSH2 0x279B SWAP1 PUSH2 0x54F4 JUMP JUMPDEST PUSH1 0x40 MLOAD DUP1 SWAP2 SUB SWAP1 REVERT JUMPDEST POP POP POP POP POP POP POP POP JUMP JUMPDEST PUSH0 DUP1 DUP3 TIMESTAMP DUP2 LT ISZERO PUSH2 0x27F4 JUMPI PUSH1 0x40 MLOAD PUSH32 0x8C379A000000000000000000000000000000000000000000000000000000000 DUP2 MSTORE PUSH1 0x4 ADD PUSH2 0x27EB SWAP1 PUSH2 0x5346 JUMP JUMPDEST PUSH1 0x40 MLOAD DUP1 SWAP2 SUB SWAP1 REVERT JUMPDEST PUSH0 PUSH2 0x2820 PUSH32 0x0 DUP13 DUP13 PUSH2 0x3836 JUMP JUMPDEST SWAP1 POP DUP1 PUSH20 0xFFFFFFFFFFFFFFFFFFFFFFFFFFFFFFFFFFFFFFFF AND PUSH4 0x23B872DD CALLER DUP4 DUP13 PUSH1 0x40 MLOAD DUP5 PUSH4 0xFFFFFFFF AND PUSH1 0xE0 SHL DUP2 MSTORE PUSH1 0x4 ADD PUSH2 0x285F SWAP4 SWAP3 SWAP2 SWAP1 PUSH2 0x56D0 JUMP JUMPDEST PUSH1 0x20 PUSH1 0x40 MLOAD DUP1 DUP4 SUB DUP2 PUSH0 DUP8 GAS CALL ISZERO DUP1 ISZERO PUSH2 0x287B JUMPI RETURNDATASIZE PUSH0 DUP1 RETURNDATACOPY RETURNDATASIZE PUSH0 REVERT JUMPDEST POP POP POP POP PUSH1 0x40 MLOAD RETURNDATASIZE PUSH1 0x1F NOT PUSH1 0x1F DUP3 ADD AND DUP3 ADD DUP1 PUSH1 0x40 MSTORE POP DUP2 ADD SWAP1 PUSH2 0x289F SWAP2 SWAP1 PUSH2 0x56A5 JUMP JUMPDEST POP PUSH0 DUP1 DUP3 PUSH20 0xFFFFFFFFFFFFFFFFFFFFFFFFFFFFFFFFFFFFFFFF AND PUSH4 0x89AFCB44 DUP10 PUSH1 0x40 MLOAD DUP3 PUSH4 0xFFFFFFFF AND PUSH1 0xE0 SHL DUP2 MSTORE PUSH1 0x4 ADD PUSH2 0x28DB SWAP2 SWAP1 PUSH2 0x4CC6 JUMP JUMPDEST PUSH1 0x40 DUP1 MLOAD DUP1 DUP4 SUB DUP2 PUSH0 DUP8 GAS CALL ISZERO DUP1 ISZERO PUSH2 0x28F6 JUMPI RETURNDATASIZE PUSH0 DUP1 RETURNDATACOPY RETURNDATASIZE PUSH0 REVERT JUMPDEST POP POP POP POP PUSH1 0x40 MLOAD RETURNDATASIZE PUSH1 0x1F NOT PUSH1 0x1F DUP3 ADD AND DUP3 ADD DUP1 PUSH1 0x40 MSTORE POP DUP2 ADD SWAP1 PUSH2 0x291A SWAP2 SWAP1 PUSH2 0x5705 JUMP JUMPDEST SWAP2 POP SWAP2 POP PUSH0 PUSH2 0x2929 DUP15 DUP15 PUSH2 0x4368 JUMP JUMPDEST POP SWAP1 POP DUP1 PUSH20 0xFFFFFFFFFFFFFFFFFFFFFFFFFFFFFFFFFFFFFFFF AND DUP15 PUSH20 0xFFFFFFFFFFFFFFFFFFFFFFFFFFFFFFFFFFFFFFFF AND EQ PUSH2 0x2966 JUMPI DUP2 DUP4 PUSH2 0x2969 JUMP JUMPDEST DUP3 DUP3 JUMPDEST DUP1 SWAP8 POP DUP2 SWAP9 POP POP POP DUP11 DUP8 LT ISZERO PUSH2 0x29B4 JUMPI PUSH1 0x40 MLOAD PUSH32 0x8C379A000000000000000000000000000000000000000000000000000000000 DUP2 MSTORE PUSH1 0x4 ADD PUSH2 0x29AB SWAP1 PUSH2 0x57B3 JUMP JUMPDEST PUSH1 0x40 MLOAD DUP1 SWAP2 SUB SWAP1 REVERT JUMPDEST DUP10 DUP7 LT ISZERO PUSH2 0x29F7 JUMPI PUSH1 0x40 MLOAD PUSH32 0x8C379A000000000000000000000000000000000000000000000000000000000 DUP2 MSTORE PUSH1 0x4 ADD PUSH2 0x29EE SWAP1 PUSH2 0x5841 JUMP JUMPDEST PUSH1 0x40 MLOAD DUP1 SWAP2 SUB SWAP1 REVERT JUMPDEST POP POP POP POP POP SWAP8 POP SWAP8 SWAP6 POP POP POP POP POP POP JUMP JUMPDEST PUSH32 0x0 DUP2 JUMP JUMPDEST PUSH1 0x60 PUSH2 0x2A59 PUSH32 0x0 DUP5 DUP5 PUSH2 0x36B4 JUMP JUMPDEST SWAP1 POP SWAP3 SWAP2 POP POP JUMP JUMPDEST PUSH0 DUP1 PUSH0 PUSH2 0x2AAF PUSH32 0x0 DUP15 PUSH32 0x0 PUSH2 0x3836 JUMP JUMPDEST SWAP1 POP PUSH0 DUP8 PUSH2 0x2ABD JUMPI DUP13 PUSH2 0x2ADF JUMP JUMPDEST PUSH32 0xFFFFFFFFFFFFFFFFFFFFFFFFFFFFFFFFFFFFFFFFFFFFFFFFFFFFFFFFFFFFFFFF JUMPDEST SWAP1 POP DUP2 PUSH20 0xFFFFFFFFFFFFFFFFFFFFFFFFFFFFFFFFFFFFFFFF AND PUSH4 0xD505ACCF CALLER ADDRESS DUP5 DUP14 DUP13 DUP13 DUP13 PUSH1 0x40 MLOAD DUP9 PUSH4 0xFFFFFFFF AND PUSH1 0xE0 SHL DUP2 MSTORE PUSH1 0x4 ADD PUSH2 0x2B26 SWAP8 SWAP7 SWAP6 SWAP5 SWAP4 SWAP3 SWAP2 SWAP1 PUSH2 0x5530 JUMP JUMPDEST PUSH0 PUSH1 0x40 MLOAD DUP1 DUP4 SUB DUP2 PUSH0 DUP8 DUP1 EXTCODESIZE ISZERO DUP1 ISZERO PUSH2 0x2B3D JUMPI PUSH0 DUP1 REVERT JUMPDEST POP GAS CALL ISZERO DUP1 ISZERO PUSH2 0x2B4F JUMPI RETURNDATASIZE PUSH0 DUP1 RETURNDATACOPY RETURNDATASIZE PUSH0 REVERT JUMPDEST POP POP POP POP PUSH2 0x2B61 DUP15 DUP15 DUP15 DUP15 DUP15 DUP15 PUSH2 0x712 JUMP JUMPDEST DUP1 SWAP5 POP DUP2 SWAP6 POP POP POP POP POP SWAP11 POP SWAP11 SWAP9 POP POP POP POP POP POP POP POP POP JUMP JUMPDEST PUSH0 DUP1 PUSH0 DUP4 TIMESTAMP DUP2 LT ISZERO PUSH2 0x2BC1 JUMPI PUSH1 0x40 MLOAD PUSH32 0x8C379A000000000000000000000000000000000000000000000000000000000 DUP2 MSTORE PUSH1 0x4 ADD PUSH2 0x2BB8 SWAP1 PUSH2 0x5346 JUMP JUMPDEST PUSH1 0x40 MLOAD DUP1 SWAP2 SUB SWAP1 REVERT JUMPDEST PUSH2 0x2BCF DUP13 DUP13 DUP13 DUP13 DUP13 DUP13 PUSH2 0x4492 JUMP JUMPDEST DUP1 SWAP5 POP DUP2 SWAP6 POP POP POP PUSH0 PUSH2 0x2C03 PUSH32 0x0 DUP15 DUP15 PUSH2 0x3836 JUMP JUMPDEST SWAP1 POP PUSH2 0x2C11 DUP14 CALLER DUP4 DUP9 PUSH2 0x38A5 JUMP JUMPDEST PUSH2 0x2C1D DUP13 CALLER DUP4 DUP8 PUSH2 0x38A5 JUMP JUMPDEST DUP1 PUSH20 0xFFFFFFFFFFFFFFFFFFFFFFFFFFFFFFFFFFFFFFFF AND PUSH4 0x6A627842 DUP9 PUSH1 0x40 MLOAD DUP3 PUSH4 0xFFFFFFFF AND PUSH1 0xE0 SHL DUP2 MSTORE PUSH1 0x4 ADD PUSH2 0x2C56 SWAP2 SWAP1 PUSH2 0x4CC6 JUMP JUMPDEST PUSH1 0x20 PUSH1 0x40 MLOAD DUP1 DUP4 SUB DUP2 PUSH0 DUP8 GAS CALL ISZERO DUP1 ISZERO PUSH2 0x2C72 JUMPI RETURNDATASIZE PUSH0 DUP1 RETURNDATACOPY RETURNDATASIZE PUSH0 REVERT JUMPDEST POP POP POP POP PUSH1 0x40 MLOAD RETURNDATASIZE PUSH1 0x1F NOT PUSH1 0x1F DUP3 ADD AND DUP3 ADD DUP1 PUSH1 0x40 MSTORE POP DUP2 ADD SWAP1 PUSH2 0x2C96 SWAP2 SWAP1 PUSH2 0x563F JUMP JUMPDEST SWAP3 POP POP POP SWAP9 POP SWAP9 POP SWAP9 SWAP6 POP POP POP POP POP POP JUMP JUMPDEST PUSH0 DUP1 PUSH0 DUP4 TIMESTAMP DUP2 LT ISZERO PUSH2 0x2CEF JUMPI PUSH1 0x40 MLOAD PUSH32 0x8C379A000000000000000000000000000000000000000000000000000000000 DUP2 MSTORE PUSH1 0x4 ADD PUSH2 0x2CE6 SWAP1 PUSH2 0x5346 JUMP JUMPDEST PUSH1 0x40 MLOAD DUP1 SWAP2 SUB SWAP1 REVERT JUMPDEST PUSH2 0x2D1D DUP11 PUSH32 0x0 DUP12 CALLVALUE DUP13 DUP13 PUSH2 0x4492 JUMP JUMPDEST DUP1 SWAP5 POP DUP2 SWAP6 POP POP POP PUSH0 PUSH2 0x2D71 PUSH32 0x0 DUP13 PUSH32 0x0 PUSH2 0x3836 JUMP JUMPDEST SWAP1 POP PUSH2 0x2D7F DUP12 CALLER DUP4 DUP9 PUSH2 0x38A5 JUMP JUMPDEST PUSH32 0x0 PUSH20 0xFFFFFFFFFFFFFFFFFFFFFFFFFFFFFFFFFFFFFFFF AND PUSH4 0xD0E30DB0 DUP6 PUSH1 0x40 MLOAD DUP3 PUSH4 0xFFFFFFFF AND PUSH1 0xE0 SHL DUP2 MSTORE PUSH1 0x4 ADD PUSH0 PUSH1 0x40 MLOAD DUP1 DUP4 SUB DUP2 DUP6 DUP9 DUP1 EXTCODESIZE ISZERO DUP1 ISZERO PUSH2 0x2DE5 JUMPI PUSH0 DUP1 REVERT JUMPDEST POP GAS CALL ISZERO DUP1 ISZERO PUSH2 0x2DF7 JUMPI RETURNDATASIZE PUSH0 DUP1 RETURNDATACOPY RETURNDATASIZE PUSH0 REVERT JUMPDEST POP POP POP POP POP PUSH32 0x0 PUSH20 0xFFFFFFFFFFFFFFFFFFFFFFFFFFFFFFFFFFFFFFFF AND PUSH4 0xA9059CBB DUP3 DUP7 PUSH1 0x40 MLOAD DUP4 PUSH4 0xFFFFFFFF AND PUSH1 0xE0 SHL DUP2 MSTORE PUSH1 0x4 ADD PUSH2 0x2E57 SWAP3 SWAP2 SWAP1 PUSH2 0x566A JUMP JUMPDEST PUSH1 0x20 PUSH1 0x40 MLOAD DUP1 DUP4 SUB DUP2 PUSH0 DUP8 GAS CALL ISZERO DUP1 ISZERO PUSH2 0x2E73 JUMPI RETURNDATASIZE PUSH0 DUP1 RETURNDATACOPY RETURNDATASIZE PUSH0 REVERT JUMPDEST POP POP POP POP PUSH1 0x40 MLOAD RETURNDATASIZE PUSH1 0x1F NOT PUSH1 0x1F DUP3 ADD AND DUP3 ADD DUP1 PUSH1 0x40 MSTORE POP DUP2 ADD SWAP1 PUSH2 0x2E97 SWAP2 SWAP1 PUSH2 0x56A5 JUMP JUMPDEST PUSH2 0x2EA4 JUMPI PUSH2 0x2EA3 PUSH2 0x48F6 JUMP JUMPDEST JUMPDEST DUP1 PUSH20 0xFFFFFFFFFFFFFFFFFFFFFFFFFFFFFFFFFFFFFFFF AND PUSH4 0x6A627842 DUP9 PUSH1 0x40 MLOAD DUP3 PUSH4 0xFFFFFFFF AND PUSH1 0xE0 SHL DUP2 MSTORE PUSH1 0x4 ADD PUSH2 0x2EDD SWAP2 SWAP1 PUSH2 0x4CC6 JUMP JUMPDEST PUSH1 0x20 PUSH1 0x40 MLOAD DUP1 DUP4 SUB DUP2 PUSH0 DUP8 GAS CALL ISZERO DUP1 ISZERO PUSH2 0x2EF9 JUMPI RETURNDATASIZE PUSH0 DUP1 RETURNDATACOPY RETURNDATASIZE PUSH0 REVERT JUMPDEST POP POP POP POP PUSH1 0x40 MLOAD RETURNDATASIZE PUSH1 0x1F NOT PUSH1 0x1F DUP3 ADD AND DUP3 ADD DUP1 PUSH1 0x40 MSTORE POP DUP2 ADD SWAP1 PUSH2 0x2F1D SWAP2 SWAP1 PUSH2 0x563F JUMP JUMPDEST SWAP3 POP DUP4 CALLVALUE GT ISZERO PUSH2 0x2F3D JUMPI PUSH2 0x2F3C CALLER DUP6 CALLVALUE PUSH2 0x2F37 SWAP2 SWAP1 PUSH2 0x5391 JUMP JUMPDEST PUSH2 0x34B9 JUMP JUMPDEST JUMPDEST POP POP SWAP7 POP SWAP7 POP SWAP7 SWAP4 POP POP POP POP JUMP JUMPDEST PUSH1 0x60 DUP2 TIMESTAMP DUP2 LT ISZERO PUSH2 0x2F91 JUMPI PUSH1 0x40 MLOAD PUSH32 0x8C379A000000000000000000000000000000000000000000000000000000000 DUP2 MSTORE PUSH1 0x4 ADD PUSH2 0x2F88 SWAP1 PUSH2 0x5346 JUMP JUMPDEST PUSH1 0x40 MLOAD DUP1 SWAP2 SUB SWAP1 REVERT JUMPDEST PUSH32 0x0 PUSH20 0xFFFFFFFFFFFFFFFFFFFFFFFFFFFFFFFFFFFFFFFF AND DUP7 DUP7 PUSH0 DUP2 DUP2 LT PUSH2 0x2FDB JUMPI PUSH2 0x2FDA PUSH2 0x53C4 JUMP JUMPDEST JUMPDEST SWAP1 POP PUSH1 0x20 MUL ADD PUSH1 0x20 DUP2 ADD SWAP1 PUSH2 0x2FF0 SWAP2 SWAP1 PUSH2 0x53F1 JUMP JUMPDEST PUSH20 0xFFFFFFFFFFFFFFFFFFFFFFFFFFFFFFFFFFFFFFFF AND EQ PUSH2 0x3046 JUMPI PUSH1 0x40 MLOAD PUSH32 0x8C379A000000000000000000000000000000000000000000000000000000000 DUP2 MSTORE PUSH1 0x4 ADD PUSH2 0x303D SWAP1 PUSH2 0x5466 JUMP JUMPDEST PUSH1 0x40 MLOAD DUP1 SWAP2 SUB SWAP1 REVERT JUMPDEST PUSH2 0x30B1 PUSH32 0x0 DUP9 DUP9 DUP9 DUP1 DUP1 PUSH1 0x20 MUL PUSH1 0x20 ADD PUSH1 0x40 MLOAD SWAP1 DUP2 ADD PUSH1 0x40 MSTORE DUP1 SWAP4 SWAP3 SWAP2 SWAP1 DUP2 DUP2 MSTORE PUSH1 0x20 ADD DUP4 DUP4 PUSH1 0x20 MUL DUP1 DUP3 DUP5 CALLDATACOPY PUSH0 DUP2 DUP5 ADD MSTORE PUSH1 0x1F NOT PUSH1 0x1F DUP3 ADD AND SWAP1 POP DUP1 DUP4 ADD SWAP3 POP POP POP POP POP POP POP PUSH2 0x3C1D JUMP JUMPDEST SWAP2 POP CALLVALUE DUP3 PUSH0 DUP2 MLOAD DUP2 LT PUSH2 0x30C7 JUMPI PUSH2 0x30C6 PUSH2 0x53C4 JUMP JUMPDEST JUMPDEST PUSH1 0x20 MUL PUSH1 0x20 ADD ADD MLOAD GT ISZERO PUSH2 0x3110 JUMPI PUSH1 0x40 MLOAD PUSH32 0x8C379A000000000000000000000000000000000000000000000000000000000 DUP2 MSTORE PUSH1 0x4 ADD PUSH2 0x3107 SWAP1 PUSH2 0x560D JUMP JUMPDEST PUSH1 0x40 MLOAD DUP1 SWAP2 SUB SWAP1 REVERT JUMPDEST PUSH32 0x0 PUSH20 0xFFFFFFFFFFFFFFFFFFFFFFFFFFFFFFFFFFFFFFFF AND PUSH4 0xD0E30DB0 DUP4 PUSH0 DUP2 MLOAD DUP2 LT PUSH2 0x315F JUMPI PUSH2 0x315E PUSH2 0x53C4 JUMP JUMPDEST JUMPDEST PUSH1 0x20 MUL PUSH1 0x20 ADD ADD MLOAD PUSH1 0x40 MLOAD DUP3 PUSH4 0xFFFFFFFF AND PUSH1 0xE0 SHL DUP2 MSTORE PUSH1 0x4 ADD PUSH0 PUSH1 0x40 MLOAD DUP1 DUP4 SUB DUP2 DUP6 DUP9 DUP1 EXTCODESIZE ISZERO DUP1 ISZERO PUSH2 0x3190 JUMPI PUSH0 DUP1 REVERT JUMPDEST POP GAS CALL ISZERO DUP1 ISZERO PUSH2 0x31A2 JUMPI RETURNDATASIZE PUSH0 DUP1 RETURNDATACOPY RETURNDATASIZE PUSH0 REVERT JUMPDEST POP POP POP POP POP PUSH32 0x0 PUSH20 0xFFFFFFFFFFFFFFFFFFFFFFFFFFFFFFFFFFFFFFFF AND PUSH4 0xA9059CBB PUSH2 0x325D PUSH32 0x0 DUP10 DUP10 PUSH0 DUP2 DUP2 LT PUSH2 0x321A JUMPI PUSH2 0x3219 PUSH2 0x53C4 JUMP JUMPDEST JUMPDEST SWAP1 POP PUSH1 0x20 MUL ADD PUSH1 0x20 DUP2 ADD SWAP1 PUSH2 0x322F SWAP2 SWAP1 PUSH2 0x53F1 JUMP JUMPDEST DUP11 DUP11 PUSH1 0x1 DUP2 DUP2 LT PUSH2 0x3243 JUMPI PUSH2 0x3242 PUSH2 0x53C4 JUMP JUMPDEST JUMPDEST SWAP1 POP PUSH1 0x20 MUL ADD PUSH1 0x20 DUP2 ADD SWAP1 PUSH2 0x3258 SWAP2 SWAP1 PUSH2 0x53F1 JUMP JUMPDEST PUSH2 0x3836 JUMP JUMPDEST DUP5 PUSH0 DUP2 MLOAD DUP2 LT PUSH2 0x3270 JUMPI PUSH2 0x326F PUSH2 0x53C4 JUMP JUMPDEST JUMPDEST PUSH1 0x20 MUL PUSH1 0x20 ADD ADD MLOAD PUSH1 0x40 MLOAD DUP4 PUSH4 0xFFFFFFFF AND PUSH1 0xE0 SHL DUP2 MSTORE PUSH1 0x4 ADD PUSH2 0x3295 SWAP3 SWAP2 SWAP1 PUSH2 0x566A JUMP JUMPDEST PUSH1 0x20 PUSH1 0x40 MLOAD DUP1 DUP4 SUB DUP2 PUSH0 DUP8 GAS CALL ISZERO DUP1 ISZERO PUSH2 0x32B1 JUMPI RETURNDATASIZE PUSH0 DUP1 RETURNDATACOPY RETURNDATASIZE PUSH0 REVERT JUMPDEST POP POP POP POP PUSH1 0x40 MLOAD RETURNDATASIZE PUSH1 0x1F NOT PUSH1 0x1F DUP3 ADD AND DUP3 ADD DUP1 PUSH1 0x40 MSTORE POP DUP2 ADD SWAP1 PUSH2 0x32D5 SWAP2 SWAP1 PUSH2 0x56A5 JUMP JUMPDEST PUSH2 0x32E2 JUMPI PUSH2 0x32E1 PUSH2 0x48F6 JUMP JUMPDEST JUMPDEST PUSH2 0x332D DUP3 DUP8 DUP8 DUP1 DUP1 PUSH1 0x20 MUL PUSH1 0x20 ADD PUSH1 0x40 MLOAD SWAP1 DUP2 ADD PUSH1 0x40 MSTORE DUP1 SWAP4 SWAP3 SWAP2 SWAP1 DUP2 DUP2 MSTORE PUSH1 0x20 ADD DUP4 DUP4 PUSH1 0x20 MUL DUP1 DUP3 DUP5 CALLDATACOPY PUSH0 DUP2 DUP5 ADD MSTORE PUSH1 0x1F NOT PUSH1 0x1F DUP3 ADD AND SWAP1 POP DUP1 DUP4 ADD SWAP3 POP POP POP POP POP POP POP DUP7 PUSH2 0x39D8 JUMP JUMPDEST DUP2 PUSH0 DUP2 MLOAD DUP2 LT PUSH2 0x3340 JUMPI PUSH2 0x333F PUSH2 0x53C4 JUMP JUMPDEST JUMPDEST PUSH1 0x20 MUL PUSH1 0x20 ADD ADD MLOAD CALLVALUE GT ISZERO PUSH2 0x337F JUMPI PUSH2 0x337E CALLER DUP4 PUSH0 DUP2 MLOAD DUP2 LT PUSH2 0x3366 JUMPI PUSH2 0x3365 PUSH2 0x53C4 JUMP JUMPDEST JUMPDEST PUSH1 0x20 MUL PUSH1 0x20 ADD ADD MLOAD CALLVALUE PUSH2 0x3379 SWAP2 SWAP1 PUSH2 0x5391 JUMP JUMPDEST PUSH2 0x34B9 JUMP JUMPDEST JUMPDEST POP SWAP6 SWAP5 POP POP POP POP POP JUMP JUMPDEST PUSH0 DUP1 DUP5 PUSH20 0xFFFFFFFFFFFFFFFFFFFFFFFFFFFFFFFFFFFFFFFF AND PUSH4 0xA9059CBB DUP6 DUP6 PUSH1 0x40 MLOAD PUSH1 0x24 ADD PUSH2 0x33BA SWAP3 SWAP2 SWAP1 PUSH2 0x566A JUMP JUMPDEST PUSH1 0x40 MLOAD PUSH1 0x20 DUP2 DUP4 SUB SUB DUP2 MSTORE SWAP1 PUSH1 0x40 MSTORE SWAP1 PUSH1 0xE0 SHL PUSH1 0x20 DUP3 ADD DUP1 MLOAD PUSH28 0xFFFFFFFFFFFFFFFFFFFFFFFFFFFFFFFFFFFFFFFFFFFFFFFFFFFFFFFF DUP4 DUP2 DUP4 AND OR DUP4 MSTORE POP POP POP POP PUSH1 0x40 MLOAD PUSH2 0x3408 SWAP2 SWAP1 PUSH2 0x58CB JUMP JUMPDEST PUSH0 PUSH1 0x40 MLOAD DUP1 DUP4 SUB DUP2 PUSH0 DUP7 GAS CALL SWAP2 POP POP RETURNDATASIZE DUP1 PUSH0 DUP2 EQ PUSH2 0x3441 JUMPI PUSH1 0x40 MLOAD SWAP2 POP PUSH1 0x1F NOT PUSH1 0x3F RETURNDATASIZE ADD AND DUP3 ADD PUSH1 0x40 MSTORE RETURNDATASIZE DUP3 MSTORE RETURNDATASIZE PUSH0 PUSH1 0x20 DUP5 ADD RETURNDATACOPY PUSH2 0x3446 JUMP JUMPDEST PUSH1 0x60 SWAP2 POP JUMPDEST POP SWAP2 POP SWAP2 POP DUP2 DUP1 ISZERO PUSH2 0x3473 JUMPI POP PUSH0 DUP2 MLOAD EQ DUP1 PUSH2 0x3472 JUMPI POP DUP1 DUP1 PUSH1 0x20 ADD SWAP1 MLOAD DUP2 ADD SWAP1 PUSH2 0x3471 SWAP2 SWAP1 PUSH2 0x56A5 JUMP JUMPDEST JUMPDEST JUMPDEST PUSH2 0x34B2 JUMPI PUSH1 0x40 MLOAD PUSH32 0x8C379A000000000000000000000000000000000000000000000000000000000 DUP2 MSTORE PUSH1 0x4 ADD PUSH2 0x34A9 SWAP1 PUSH2 0x592B JUMP JUMPDEST PUSH1 0x40 MLOAD DUP1 SWAP2 SUB SWAP1 REVERT JUMPDEST POP POP POP POP POP JUMP JUMPDEST PUSH0 DUP3 PUSH20 0xFFFFFFFFFFFFFFFFFFFFFFFFFFFFFFFFFFFFFFFF AND DUP3 PUSH0 PUSH8 0xFFFFFFFFFFFFFFFF DUP2 GT ISZERO PUSH2 0x34EC JUMPI PUSH2 0x34EB PUSH2 0x4CEF JUMP JUMPDEST JUMPDEST PUSH1 0x40 MLOAD SWAP1 DUP1 DUP3 MSTORE DUP1 PUSH1 0x1F ADD PUSH1 0x1F NOT AND PUSH1 0x20 ADD DUP3 ADD PUSH1 0x40 MSTORE DUP1 ISZERO PUSH2 0x351E JUMPI DUP2 PUSH1 0x20 ADD PUSH1 0x1 DUP3 MUL DUP1 CALLDATASIZE DUP4 CALLDATACOPY DUP1 DUP3 ADD SWAP2 POP POP SWAP1 POP JUMPDEST POP PUSH1 0x40 MLOAD PUSH2 0x352C SWAP2 SWAP1 PUSH2 0x58CB JUMP JUMPDEST PUSH0 PUSH1 0x40 MLOAD DUP1 DUP4 SUB DUP2 DUP6 DUP8 GAS CALL SWAP3 POP POP POP RETURNDATASIZE DUP1 PUSH0 DUP2 EQ PUSH2 0x3566 JUMPI PUSH1 0x40 MLOAD SWAP2 POP PUSH1 0x1F NOT PUSH1 0x3F RETURNDATASIZE ADD AND DUP3 ADD PUSH1 0x40 MSTORE RETURNDATASIZE DUP3 MSTORE RETURNDATASIZE PUSH0 PUSH1 0x20 DUP5 ADD RETURNDATACOPY PUSH2 0x356B JUMP JUMPDEST PUSH1 0x60 SWAP2 POP JUMPDEST POP POP SWAP1 POP DUP1 PUSH2 0x35AF JUMPI PUSH1 0x40 MLOAD PUSH32 0x8C379A000000000000000000000000000000000000000000000000000000000 DUP2 MSTORE PUSH1 0x4 ADD PUSH2 0x35A6 SWAP1 PUSH2 0x59B9 JUMP JUMPDEST PUSH1 0x40 MLOAD DUP1 SWAP2 SUB SWAP1 REVERT JUMPDEST POP POP POP JUMP JUMPDEST PUSH0 DUP1 DUP5 GT PUSH2 0x35F7 JUMPI PUSH1 0x40 MLOAD PUSH32 0x8C379A000000000000000000000000000000000000000000000000000000000 DUP2 MSTORE PUSH1 0x4 ADD PUSH2 0x35EE SWAP1 PUSH2 0x5A47 JUMP JUMPDEST PUSH1 0x40 MLOAD DUP1 SWAP2 SUB SWAP1 REVERT JUMPDEST PUSH0 DUP4 GT DUP1 ISZERO PUSH2 0x3605 JUMPI POP PUSH0 DUP3 GT JUMPDEST PUSH2 0x3644 JUMPI PUSH1 0x40 MLOAD PUSH32 0x8C379A000000000000000000000000000000000000000000000000000000000 DUP2 MSTORE PUSH1 0x4 ADD PUSH2 0x363B SWAP1 PUSH2 0x5AD5 JUMP JUMPDEST PUSH1 0x40 MLOAD DUP1 SWAP2 SUB SWAP1 REVERT JUMPDEST PUSH0 PUSH2 0x365A PUSH2 0x3E5 DUP7 PUSH2 0x4734 SWAP1 SWAP2 SWAP1 PUSH4 0xFFFFFFFF AND JUMP JUMPDEST SWAP1 POP PUSH0 PUSH2 0x3670 DUP5 DUP4 PUSH2 0x4734 SWAP1 SWAP2 SWAP1 PUSH4 0xFFFFFFFF AND JUMP JUMPDEST SWAP1 POP PUSH0 PUSH2 0x369A DUP4 PUSH2 0x368C PUSH2 0x3E8 DUP10 PUSH2 0x4734 SWAP1 SWAP2 SWAP1 PUSH4 0xFFFFFFFF AND JUMP JUMPDEST PUSH2 0x47A0 SWAP1 SWAP2 SWAP1 PUSH4 0xFFFFFFFF AND JUMP JUMPDEST SWAP1 POP DUP1 DUP3 PUSH2 0x36A8 SWAP2 SWAP1 PUSH2 0x5B20 JUMP JUMPDEST SWAP4 POP POP POP POP SWAP4 SWAP3 POP POP POP JUMP JUMPDEST PUSH1 0x60 PUSH1 0x2 DUP3 MLOAD LT ISZERO PUSH2 0x36FB JUMPI PUSH1 0x40 MLOAD PUSH32 0x8C379A000000000000000000000000000000000000000000000000000000000 DUP2 MSTORE PUSH1 0x4 ADD PUSH2 0x36F2 SWAP1 PUSH2 0x5B9A JUMP JUMPDEST PUSH1 0x40 MLOAD DUP1 SWAP2 SUB SWAP1 REVERT JUMPDEST DUP2 MLOAD PUSH8 0xFFFFFFFFFFFFFFFF DUP2 GT ISZERO PUSH2 0x3716 JUMPI PUSH2 0x3715 PUSH2 0x4CEF JUMP JUMPDEST JUMPDEST PUSH1 0x40 MLOAD SWAP1 DUP1 DUP3 MSTORE DUP1 PUSH1 0x20 MUL PUSH1 0x20 ADD DUP3 ADD PUSH1 0x40 MSTORE DUP1 ISZERO PUSH2 0x3744 JUMPI DUP2 PUSH1 0x20 ADD PUSH1 0x20 DUP3 MUL DUP1 CALLDATASIZE DUP4 CALLDATACOPY DUP1 DUP3 ADD SWAP2 POP POP SWAP1 POP JUMPDEST POP SWAP1 POP DUP3 DUP2 PUSH0 DUP2 MLOAD DUP2 LT PUSH2 0x375B JUMPI PUSH2 0x375A PUSH2 0x53C4 JUMP JUMPDEST JUMPDEST PUSH1 0x20 MUL PUSH1 0x20 ADD ADD DUP2 DUP2 MSTORE POP POP PUSH0 JUMPDEST PUSH1 0x1 DUP4 MLOAD PUSH2 0x3777 SWAP2 SWAP1 PUSH2 0x5391 JUMP JUMPDEST DUP2 LT ISZERO PUSH2 0x382E JUMPI PUSH0 DUP1 PUSH2 0x37CB DUP8 DUP7 DUP6 DUP2 MLOAD DUP2 LT PUSH2 0x3797 JUMPI PUSH2 0x3796 PUSH2 0x53C4 JUMP JUMPDEST JUMPDEST PUSH1 0x20 MUL PUSH1 0x20 ADD ADD MLOAD DUP8 PUSH1 0x1 DUP8 PUSH2 0x37AD SWAP2 SWAP1 PUSH2 0x5BB8 JUMP JUMPDEST DUP2 MLOAD DUP2 LT PUSH2 0x37BE JUMPI PUSH2 0x37BD PUSH2 0x53C4 JUMP JUMPDEST JUMPDEST PUSH1 0x20 MUL PUSH1 0x20 ADD ADD MLOAD PUSH2 0x47F8 JUMP JUMPDEST SWAP2 POP SWAP2 POP PUSH2 0x37F4 DUP5 DUP5 DUP2 MLOAD DUP2 LT PUSH2 0x37E5 JUMPI PUSH2 0x37E4 PUSH2 0x53C4 JUMP JUMPDEST JUMPDEST PUSH1 0x20 MUL PUSH1 0x20 ADD ADD MLOAD DUP4 DUP4 PUSH2 0x35B4 JUMP JUMPDEST DUP5 PUSH1 0x1 DUP6 PUSH2 0x3802 SWAP2 SWAP1 PUSH2 0x5BB8 JUMP JUMPDEST DUP2 MLOAD DUP2 LT PUSH2 0x3813 JUMPI PUSH2 0x3812 PUSH2 0x53C4 JUMP JUMPDEST JUMPDEST PUSH1 0x20 MUL PUSH1 0x20 ADD ADD DUP2 DUP2 MSTORE POP POP POP POP DUP1 DUP1 PUSH1 0x1 ADD SWAP2 POP POP PUSH2 0x3769 JUMP JUMPDEST POP SWAP4 SWAP3 POP POP POP JUMP JUMPDEST PUSH0 DUP1 PUSH0 PUSH2 0x3843 DUP6 DUP6 PUSH2 0x4368 JUMP JUMPDEST SWAP2 POP SWAP2 POP DUP6 DUP3 DUP3 PUSH1 0x40 MLOAD PUSH1 0x20 ADD PUSH2 0x385B SWAP3 SWAP2 SWAP1 PUSH2 0x5C30 JUMP JUMPDEST PUSH1 0x40 MLOAD PUSH1 0x20 DUP2 DUP4 SUB SUB DUP2 MSTORE SWAP1 PUSH1 0x40 MSTORE DUP1 MLOAD SWAP1 PUSH1 0x20 ADD KECCAK256 PUSH1 0x40 MLOAD PUSH1 0x20 ADD PUSH2 0x3882 SWAP3 SWAP2 SWAP1 PUSH2 0x5D19 JUMP JUMPDEST PUSH1 0x40 MLOAD PUSH1 0x20 DUP2 DUP4 SUB SUB DUP2 MSTORE SWAP1 PUSH1 0x40 MSTORE DUP1 MLOAD SWAP1 PUSH1 0x20 ADD KECCAK256 PUSH0 SHR SWAP3 POP POP POP SWAP4 SWAP3 POP POP POP JUMP JUMPDEST PUSH0 DUP1 DUP6 PUSH20 0xFFFFFFFFFFFFFFFFFFFFFFFFFFFFFFFFFFFFFFFF AND PUSH4 0x23B872DD DUP7 DUP7 DUP7 PUSH1 0x40 MLOAD PUSH1 0x24 ADD PUSH2 0x38D8 SWAP4 SWAP3 SWAP2 SWAP1 PUSH2 0x56D0 JUMP JUMPDEST PUSH1 0x40 MLOAD PUSH1 0x20 DUP2 DUP4 SUB SUB DUP2 MSTORE SWAP1 PUSH1 0x40 MSTORE SWAP1 PUSH1 0xE0 SHL PUSH1 0x20 DUP3 ADD DUP1 MLOAD PUSH28 0xFFFFFFFFFFFFFFFFFFFFFFFFFFFFFFFFFFFFFFFFFFFFFFFFFFFFFFFF DUP4 DUP2 DUP4 AND OR DUP4 MSTORE POP POP POP POP PUSH1 0x40 MLOAD PUSH2 0x3926 SWAP2 SWAP1 PUSH2 0x58CB JUMP JUMPDEST PUSH0 PUSH1 0x40 MLOAD DUP1 DUP4 SUB DUP2 PUSH0 DUP7 GAS CALL SWAP2 POP POP RETURNDATASIZE DUP1 PUSH0 DUP2 EQ PUSH2 0x395F JUMPI PUSH1 0x40 MLOAD SWAP2 POP PUSH1 0x1F NOT PUSH1 0x3F RETURNDATASIZE ADD AND DUP3 ADD PUSH1 0x40 MSTORE RETURNDATASIZE DUP3 MSTORE RETURNDATASIZE PUSH0 PUSH1 0x20 DUP5 ADD RETURNDATACOPY PUSH2 0x3964 JUMP JUMPDEST PUSH1 0x60 SWAP2 POP JUMPDEST POP SWAP2 POP SWAP2 POP DUP2 DUP1 ISZERO PUSH2 0x3991 JUMPI POP PUSH0 DUP2 MLOAD EQ DUP1 PUSH2 0x3990 JUMPI POP DUP1 DUP1 PUSH1 0x20 ADD SWAP1 MLOAD DUP2 ADD SWAP1 PUSH2 0x398F SWAP2 SWAP1 PUSH2 0x56A5 JUMP JUMPDEST JUMPDEST JUMPDEST PUSH2 0x39D0 JUMPI PUSH1 0x40 MLOAD PUSH32 0x8C379A000000000000000000000000000000000000000000000000000000000 DUP2 MSTORE PUSH1 0x4 ADD PUSH2 0x39C7 SWAP1 PUSH2 0x5DCA JUMP JUMPDEST PUSH1 0x40 MLOAD DUP1 SWAP2 SUB SWAP1 REVERT JUMPDEST POP POP POP POP POP POP JUMP JUMPDEST PUSH0 JUMPDEST PUSH1 0x1 DUP4 MLOAD PUSH2 0x39E8 SWAP2 SWAP1 PUSH2 0x5391 JUMP JUMPDEST DUP2 LT ISZERO PUSH2 0x3C17 JUMPI PUSH0 DUP1 DUP5 DUP4 DUP2 MLOAD DUP2 LT PUSH2 0x3A04 JUMPI PUSH2 0x3A03 PUSH2 0x53C4 JUMP JUMPDEST JUMPDEST PUSH1 0x20 MUL PUSH1 0x20 ADD ADD MLOAD DUP6 PUSH1 0x1 DUP6 PUSH2 0x3A1A SWAP2 SWAP1 PUSH2 0x5BB8 JUMP JUMPDEST DUP2 MLOAD DUP2 LT PUSH2 0x3A2B JUMPI PUSH2 0x3A2A PUSH2 0x53C4 JUMP JUMPDEST JUMPDEST PUSH1 0x20 MUL PUSH1 0x20 ADD ADD MLOAD SWAP2 POP SWAP2 POP PUSH0 PUSH2 0x3A42 DUP4 DUP4 PUSH2 0x4368 JUMP JUMPDEST POP SWAP1 POP PUSH0 DUP8 PUSH1 0x1 DUP7 PUSH2 0x3A54 SWAP2 SWAP1 PUSH2 0x5BB8 JUMP JUMPDEST DUP2 MLOAD DUP2 LT PUSH2 0x3A65 JUMPI PUSH2 0x3A64 PUSH2 0x53C4 JUMP JUMPDEST JUMPDEST PUSH1 0x20 MUL PUSH1 0x20 ADD ADD MLOAD SWAP1 POP PUSH0 DUP1 DUP4 PUSH20 0xFFFFFFFFFFFFFFFFFFFFFFFFFFFFFFFFFFFFFFFF AND DUP7 PUSH20 0xFFFFFFFFFFFFFFFFFFFFFFFFFFFFFFFFFFFFFFFF AND EQ PUSH2 0x3AAB JUMPI DUP3 PUSH0 PUSH2 0x3AAE JUMP JUMPDEST PUSH0 DUP4 JUMPDEST SWAP2 POP SWAP2 POP PUSH0 PUSH1 0x2 DUP11 MLOAD PUSH2 0x3AC1 SWAP2 SWAP1 PUSH2 0x5391 JUMP JUMPDEST DUP9 LT PUSH2 0x3ACD JUMPI DUP9 PUSH2 0x3B1F JUMP JUMPDEST PUSH2 0x3B1E PUSH32 0x0 DUP8 DUP13 PUSH1 0x2 DUP13 PUSH2 0x3B00 SWAP2 SWAP1 PUSH2 0x5BB8 JUMP JUMPDEST DUP2 MLOAD DUP2 LT PUSH2 0x3B11 JUMPI PUSH2 0x3B10 PUSH2 0x53C4 JUMP JUMPDEST JUMPDEST PUSH1 0x20 MUL PUSH1 0x20 ADD ADD MLOAD PUSH2 0x3836 JUMP JUMPDEST JUMPDEST SWAP1 POP PUSH2 0x3B4C PUSH32 0x0 DUP9 DUP9 PUSH2 0x3836 JUMP JUMPDEST PUSH20 0xFFFFFFFFFFFFFFFFFFFFFFFFFFFFFFFFFFFFFFFF AND PUSH4 0x22C0D9F DUP5 DUP5 DUP5 PUSH0 PUSH8 0xFFFFFFFFFFFFFFFF DUP2 GT ISZERO PUSH2 0x3B84 JUMPI PUSH2 0x3B83 PUSH2 0x4CEF JUMP JUMPDEST JUMPDEST PUSH1 0x40 MLOAD SWAP1 DUP1 DUP3 MSTORE DUP1 PUSH1 0x1F ADD PUSH1 0x1F NOT AND PUSH1 0x20 ADD DUP3 ADD PUSH1 0x40 MSTORE DUP1 ISZERO PUSH2 0x3BB6 JUMPI DUP2 PUSH1 0x20 ADD PUSH1 0x1 DUP3 MUL DUP1 CALLDATASIZE DUP4 CALLDATACOPY DUP1 DUP3 ADD SWAP2 POP POP SWAP1 POP JUMPDEST POP PUSH1 0x40 MLOAD DUP6 PUSH4 0xFFFFFFFF AND PUSH1 0xE0 SHL DUP2 MSTORE PUSH1 0x4 ADD PUSH2 0x3BD6 SWAP5 SWAP4 SWAP3 SWAP2 SWAP1 PUSH2 0x5E30 JUMP JUMPDEST PUSH0 PUSH1 0x40 MLOAD DUP1 DUP4 SUB DUP2 PUSH0 DUP8 DUP1 EXTCODESIZE ISZERO DUP1 ISZERO PUSH2 0x3BED JUMPI PUSH0 DUP1 REVERT JUMPDEST POP GAS CALL ISZERO DUP1 ISZERO PUSH2 0x3BFF JUMPI RETURNDATASIZE PUSH0 DUP1 RETURNDATACOPY RETURNDATASIZE PUSH0 REVERT JUMPDEST POP POP POP POP POP POP POP POP POP POP POP DUP1 DUP1 PUSH1 0x1 ADD SWAP2 POP POP PUSH2 0x39DA JUMP JUMPDEST POP POP POP POP JUMP JUMPDEST PUSH1 0x60 PUSH1 0x2 DUP3 MLOAD LT ISZERO PUSH2 0x3C64 JUMPI PUSH1 0x40 MLOAD PUSH32 0x8C379A000000000000000000000000000000000000000000000000000000000 DUP2 MSTORE PUSH1 0x4 ADD PUSH2 0x3C5B SWAP1 PUSH2 0x5B9A JUMP JUMPDEST PUSH1 0x40 MLOAD DUP1 SWAP2 SUB SWAP1 REVERT JUMPDEST DUP2 MLOAD PUSH8 0xFFFFFFFFFFFFFFFF DUP2 GT ISZERO PUSH2 0x3C7F JUMPI PUSH2 0x3C7E PUSH2 0x4CEF JUMP JUMPDEST JUMPDEST PUSH1 0x40 MLOAD SWAP1 DUP1 DUP3 MSTORE DUP1 PUSH1 0x20 MUL PUSH1 0x20 ADD DUP3 ADD PUSH1 0x40 MSTORE DUP1 ISZERO PUSH2 0x3CAD JUMPI DUP2 PUSH1 0x20 ADD PUSH1 0x20 DUP3 MUL DUP1 CALLDATASIZE DUP4 CALLDATACOPY DUP1 DUP3 ADD SWAP2 POP POP SWAP1 POP JUMPDEST POP SWAP1 POP DUP3 DUP2 PUSH1 0x1 DUP4 MLOAD PUSH2 0x3CC0 SWAP2 SWAP1 PUSH2 0x5391 JUMP JUMPDEST DUP2 MLOAD DUP2 LT PUSH2 0x3CD1 JUMPI PUSH2 0x3CD0 PUSH2 0x53C4 JUMP JUMPDEST JUMPDEST PUSH1 0x20 MUL PUSH1 0x20 ADD ADD DUP2 DUP2 MSTORE POP POP PUSH0 PUSH1 0x1 DUP4 MLOAD PUSH2 0x3CEC SWAP2 SWAP1 PUSH2 0x5391 JUMP JUMPDEST SWAP1 POP JUMPDEST PUSH0 DUP2 GT ISZERO PUSH2 0x3DAD JUMPI PUSH0 DUP1 PUSH2 0x3D44 DUP8 DUP7 PUSH1 0x1 DUP7 PUSH2 0x3D0B SWAP2 SWAP1 PUSH2 0x5391 JUMP JUMPDEST DUP2 MLOAD DUP2 LT PUSH2 0x3D1C JUMPI PUSH2 0x3D1B PUSH2 0x53C4 JUMP JUMPDEST JUMPDEST PUSH1 0x20 MUL PUSH1 0x20 ADD ADD MLOAD DUP8 DUP7 DUP2 MLOAD DUP2 LT PUSH2 0x3D37 JUMPI PUSH2 0x3D36 PUSH2 0x53C4 JUMP JUMPDEST JUMPDEST PUSH1 0x20 MUL PUSH1 0x20 ADD ADD MLOAD PUSH2 0x47F8 JUMP JUMPDEST SWAP2 POP SWAP2 POP PUSH2 0x3D6D DUP5 DUP5 DUP2 MLOAD DUP2 LT PUSH2 0x3D5E JUMPI PUSH2 0x3D5D PUSH2 0x53C4 JUMP JUMPDEST JUMPDEST PUSH1 0x20 MUL PUSH1 0x20 ADD ADD MLOAD DUP4 DUP4 PUSH2 0x41A3 JUMP JUMPDEST DUP5 PUSH1 0x1 DUP6 PUSH2 0x3D7B SWAP2 SWAP1 PUSH2 0x5391 JUMP JUMPDEST DUP2 MLOAD DUP2 LT PUSH2 0x3D8C JUMPI PUSH2 0x3D8B PUSH2 0x53C4 JUMP JUMPDEST JUMPDEST PUSH1 0x20 MUL PUSH1 0x20 ADD ADD DUP2 DUP2 MSTORE POP POP POP POP DUP1 DUP1 PUSH2 0x3DA5 SWAP1 PUSH2 0x5E7A JUMP JUMPDEST SWAP2 POP POP PUSH2 0x3CEF JUMP JUMPDEST POP SWAP4 SWAP3 POP POP POP JUMP JUMPDEST PUSH0 JUMPDEST PUSH1 0x1 DUP4 MLOAD PUSH2 0x3DC5 SWAP2 SWAP1 PUSH2 0x5391 JUMP JUMPDEST DUP2 LT ISZERO PUSH2 0x4146 JUMPI PUSH0 DUP1 DUP5 DUP4 DUP2 MLOAD DUP2 LT PUSH2 0x3DE1 JUMPI PUSH2 0x3DE0 PUSH2 0x53C4 JUMP JUMPDEST JUMPDEST PUSH1 0x20 MUL PUSH1 0x20 ADD ADD MLOAD DUP6 PUSH1 0x1 DUP6 PUSH2 0x3DF7 SWAP2 SWAP1 PUSH2 0x5BB8 JUMP JUMPDEST DUP2 MLOAD DUP2 LT PUSH2 0x3E08 JUMPI PUSH2 0x3E07 PUSH2 0x53C4 JUMP JUMPDEST JUMPDEST PUSH1 0x20 MUL PUSH1 0x20 ADD ADD MLOAD SWAP2 POP SWAP2 POP PUSH0 PUSH2 0x3E1F DUP4 DUP4 PUSH2 0x4368 JUMP JUMPDEST POP SWAP1 POP PUSH0 PUSH2 0x3E4E PUSH32 0x0 DUP6 DUP6 PUSH2 0x3836 JUMP JUMPDEST SWAP1 POP PUSH0 DUP1 PUSH0 DUP1 DUP5 PUSH20 0xFFFFFFFFFFFFFFFFFFFFFFFFFFFFFFFFFFFFFFFF AND PUSH4 0x902F1AC PUSH1 0x40 MLOAD DUP2 PUSH4 0xFFFFFFFF AND PUSH1 0xE0 SHL DUP2 MSTORE PUSH1 0x4 ADD PUSH1 0x60 PUSH1 0x40 MLOAD DUP1 DUP4 SUB DUP2 DUP7 GAS STATICCALL ISZERO DUP1 ISZERO PUSH2 0x3E9D JUMPI RETURNDATASIZE PUSH0 DUP1 RETURNDATACOPY RETURNDATASIZE PUSH0 REVERT JUMPDEST POP POP POP POP PUSH1 0x40 MLOAD RETURNDATASIZE PUSH1 0x1F NOT PUSH1 0x1F DUP3 ADD AND DUP3 ADD DUP1 PUSH1 0x40 MSTORE POP DUP2 ADD SWAP1 PUSH2 0x3EC1 SWAP2 SWAP1 PUSH2 0x5F1D JUMP JUMPDEST POP PUSH14 0xFFFFFFFFFFFFFFFFFFFFFFFFFFFF AND SWAP2 POP PUSH14 0xFFFFFFFFFFFFFFFFFFFFFFFFFFFF AND SWAP2 POP PUSH0 DUP1 DUP8 PUSH20 0xFFFFFFFFFFFFFFFFFFFFFFFFFFFFFFFFFFFFFFFF AND DUP11 PUSH20 0xFFFFFFFFFFFFFFFFFFFFFFFFFFFFFFFFFFFFFFFF AND EQ PUSH2 0x3F22 JUMPI DUP3 DUP5 PUSH2 0x3F25 JUMP JUMPDEST DUP4 DUP4 JUMPDEST SWAP2 POP SWAP2 POP PUSH2 0x3FB3 DUP3 DUP12 PUSH20 0xFFFFFFFFFFFFFFFFFFFFFFFFFFFFFFFFFFFFFFFF AND PUSH4 0x70A08231 DUP11 PUSH1 0x40 MLOAD DUP3 PUSH4 0xFFFFFFFF AND PUSH1 0xE0 SHL DUP2 MSTORE PUSH1 0x4 ADD PUSH2 0x3F66 SWAP2 SWAP1 PUSH2 0x4CC6 JUMP JUMPDEST PUSH1 0x20 PUSH1 0x40 MLOAD DUP1 DUP4 SUB DUP2 DUP7 GAS STATICCALL ISZERO DUP1 ISZERO PUSH2 0x3F81 JUMPI RETURNDATASIZE PUSH0 DUP1 RETURNDATACOPY RETURNDATASIZE PUSH0 REVERT JUMPDEST POP POP POP POP PUSH1 0x40 MLOAD RETURNDATASIZE PUSH1 0x1F NOT PUSH1 0x1F DUP3 ADD AND DUP3 ADD DUP1 PUSH1 0x40 MSTORE POP DUP2 ADD SWAP1 PUSH2 0x3FA5 SWAP2 SWAP1 PUSH2 0x563F JUMP JUMPDEST PUSH2 0x414B SWAP1 SWAP2 SWAP1 PUSH4 0xFFFFFFFF AND JUMP JUMPDEST SWAP6 POP PUSH2 0x3FC0 DUP7 DUP4 DUP4 PUSH2 0x35B4 JUMP JUMPDEST SWAP5 POP POP POP POP POP PUSH0 DUP1 DUP6 PUSH20 0xFFFFFFFFFFFFFFFFFFFFFFFFFFFFFFFFFFFFFFFF AND DUP9 PUSH20 0xFFFFFFFFFFFFFFFFFFFFFFFFFFFFFFFFFFFFFFFF AND EQ PUSH2 0x4002 JUMPI DUP3 PUSH0 PUSH2 0x4005 JUMP JUMPDEST PUSH0 DUP4 JUMPDEST SWAP2 POP SWAP2 POP PUSH0 PUSH1 0x2 DUP13 MLOAD PUSH2 0x4018 SWAP2 SWAP1 PUSH2 0x5391 JUMP JUMPDEST DUP11 LT PUSH2 0x4024 JUMPI DUP11 PUSH2 0x4076 JUMP JUMPDEST PUSH2 0x4075 PUSH32 0x0 DUP10 DUP15 PUSH1 0x2 DUP15 PUSH2 0x4057 SWAP2 SWAP1 PUSH2 0x5BB8 JUMP JUMPDEST DUP2 MLOAD DUP2 LT PUSH2 0x4068 JUMPI PUSH2 0x4067 PUSH2 0x53C4 JUMP JUMPDEST JUMPDEST PUSH1 0x20 MUL PUSH1 0x20 ADD ADD MLOAD PUSH2 0x3836 JUMP JUMPDEST JUMPDEST SWAP1 POP DUP6 PUSH20 0xFFFFFFFFFFFFFFFFFFFFFFFFFFFFFFFFFFFFFFFF AND PUSH4 0x22C0D9F DUP5 DUP5 DUP5 PUSH0 PUSH8 0xFFFFFFFFFFFFFFFF DUP2 GT ISZERO PUSH2 0x40B1 JUMPI PUSH2 0x40B0 PUSH2 0x4CEF JUMP JUMPDEST JUMPDEST PUSH1 0x40 MLOAD SWAP1 DUP1 DUP3 MSTORE DUP1 PUSH1 0x1F ADD PUSH1 0x1F NOT AND PUSH1 0x20 ADD DUP3 ADD PUSH1 0x40 MSTORE DUP1 ISZERO PUSH2 0x40E3 JUMPI DUP2 PUSH1 0x20 ADD PUSH1 0x1 DUP3 MUL DUP1 CALLDATASIZE DUP4 CALLDATACOPY DUP1 DUP3 ADD SWAP2 POP POP SWAP1 POP JUMPDEST POP PUSH1 0x40 MLOAD DUP6 PUSH4 0xFFFFFFFF AND PUSH1 0xE0 SHL DUP2 MSTORE PUSH1 0x4 ADD PUSH2 0x4103 SWAP5 SWAP4 SWAP3 SWAP2 SWAP1 PUSH2 0x5E30 JUMP JUMPDEST PUSH0 PUSH1 0x40 MLOAD DUP1 DUP4 SUB DUP2 PUSH0 DUP8 DUP1 EXTCODESIZE ISZERO DUP1 ISZERO PUSH2 0x411A JUMPI PUSH0 DUP1 REVERT JUMPDEST POP GAS CALL ISZERO DUP1 ISZERO PUSH2 0x412C JUMPI RETURNDATASIZE PUSH0 DUP1 RETURNDATACOPY RETURNDATASIZE PUSH0 REVERT JUMPDEST POP POP POP POP POP POP POP POP POP POP POP POP POP DUP1 DUP1 PUSH1 0x1 ADD SWAP2 POP POP PUSH2 0x3DB7 JUMP JUMPDEST POP POP POP JUMP JUMPDEST PUSH0 DUP3 DUP3 DUP5 PUSH2 0x4159 SWAP2 SWAP1 PUSH2 0x5391 JUMP JUMPDEST SWAP2 POP DUP2 GT ISZERO PUSH2 0x419D JUMPI PUSH1 0x40 MLOAD PUSH32 0x8C379A000000000000000000000000000000000000000000000000000000000 DUP2 MSTORE PUSH1 0x4 ADD PUSH2 0x4194 SWAP1 PUSH2 0x5FB7 JUMP JUMPDEST PUSH1 0x40 MLOAD DUP1 SWAP2 SUB SWAP1 REVERT JUMPDEST SWAP3 SWAP2 POP POP JUMP JUMPDEST PUSH0 DUP1 DUP5 GT PUSH2 0x41E6 JUMPI PUSH1 0x40 MLOAD PUSH32 0x8C379A000000000000000000000000000000000000000000000000000000000 DUP2 MSTORE PUSH1 0x4 ADD PUSH2 0x41DD SWAP1 PUSH2 0x6045 JUMP JUMPDEST PUSH1 0x40 MLOAD DUP1 SWAP2 SUB SWAP1 REVERT JUMPDEST PUSH0 DUP4 GT DUP1 ISZERO PUSH2 0x41F4 JUMPI POP PUSH0 DUP3 GT JUMPDEST PUSH2 0x4233 JUMPI PUSH1 0x40 MLOAD PUSH32 0x8C379A000000000000000000000000000000000000000000000000000000000 DUP2 MSTORE PUSH1 0x4 ADD PUSH2 0x422A SWAP1 PUSH2 0x5AD5 JUMP JUMPDEST PUSH1 0x40 MLOAD DUP1 SWAP2 SUB SWAP1 REVERT JUMPDEST PUSH0 PUSH2 0x425B PUSH2 0x3E8 PUSH2 0x424D DUP8 DUP8 PUSH2 0x4734 SWAP1 SWAP2 SWAP1 PUSH4 0xFFFFFFFF AND JUMP JUMPDEST PUSH2 0x4734 SWAP1 SWAP2 SWAP1 PUSH4 0xFFFFFFFF AND JUMP JUMPDEST SWAP1 POP PUSH0 PUSH2 0x4285 PUSH2 0x3E5 PUSH2 0x4277 DUP9 DUP8 PUSH2 0x414B SWAP1 SWAP2 SWAP1 PUSH4 0xFFFFFFFF AND JUMP JUMPDEST PUSH2 0x4734 SWAP1 SWAP2 SWAP1 PUSH4 0xFFFFFFFF AND JUMP JUMPDEST SWAP1 POP PUSH2 0x42A6 PUSH1 0x1 DUP3 DUP5 PUSH2 0x4298 SWAP2 SWAP1 PUSH2 0x5B20 JUMP JUMPDEST PUSH2 0x47A0 SWAP1 SWAP2 SWAP1 PUSH4 0xFFFFFFFF AND JUMP JUMPDEST SWAP3 POP POP POP SWAP4 SWAP3 POP POP POP JUMP JUMPDEST PUSH0 DUP1 DUP5 GT PUSH2 0x42F4 JUMPI PUSH1 0x40 MLOAD PUSH32 0x8C379A000000000000000000000000000000000000000000000000000000000 DUP2 MSTORE PUSH1 0x4 ADD PUSH2 0x42EB SWAP1 PUSH2 0x60D3 JUMP JUMPDEST PUSH1 0x40 MLOAD DUP1 SWAP2 SUB SWAP1 REVERT JUMPDEST PUSH0 DUP4 GT DUP1 ISZERO PUSH2 0x4302 JUMPI POP PUSH0 DUP3 GT JUMPDEST PUSH2 0x4341 JUMPI PUSH1 0x40 MLOAD PUSH32 0x8C379A000000000000000000000000000000000000000000000000000000000 DUP2 MSTORE PUSH1 0x4 ADD PUSH2 0x4338 SWAP1 PUSH2 0x5AD5 JUMP JUMPDEST PUSH1 0x40 MLOAD DUP1 SWAP2 SUB SWAP1 REVERT JUMPDEST DUP3 PUSH2 0x4355 DUP4 DUP7 PUSH2 0x4734 SWAP1 SWAP2 SWAP1 PUSH4 0xFFFFFFFF AND JUMP JUMPDEST PUSH2 0x435F SWAP2 SWAP1 PUSH2 0x5B20 JUMP JUMPDEST SWAP1 POP SWAP4 SWAP3 POP POP POP JUMP JUMPDEST PUSH0 DUP1 DUP3 PUSH20 0xFFFFFFFFFFFFFFFFFFFFFFFFFFFFFFFFFFFFFFFF AND DUP5 PUSH20 0xFFFFFFFFFFFFFFFFFFFFFFFFFFFFFFFFFFFFFFFF AND SUB PUSH2 0x43D8 JUMPI PUSH1 0x40 MLOAD PUSH32 0x8C379A000000000000000000000000000000000000000000000000000000000 DUP2 MSTORE PUSH1 0x4 ADD PUSH2 0x43CF SWAP1 PUSH2 0x6161 JUMP JUMPDEST PUSH1 0x40 MLOAD DUP1 SWAP2 SUB SWAP1 REVERT JUMPDEST DUP3 PUSH20 0xFFFFFFFFFFFFFFFFFFFFFFFFFFFFFFFFFFFFFFFF AND DUP5 PUSH20 0xFFFFFFFFFFFFFFFFFFFFFFFFFFFFFFFFFFFFFFFF AND LT PUSH2 0x4412 JUMPI DUP3 DUP5 PUSH2 0x4415 JUMP JUMPDEST DUP4 DUP4 JUMPDEST DUP1 SWAP3 POP DUP2 SWAP4 POP POP POP PUSH0 PUSH20 0xFFFFFFFFFFFFFFFFFFFFFFFFFFFFFFFFFFFFFFFF AND DUP3 PUSH20 0xFFFFFFFFFFFFFFFFFFFFFFFFFFFFFFFFFFFFFFFF AND SUB PUSH2 0x448B JUMPI PUSH1 0x40 MLOAD PUSH32 0x8C379A000000000000000000000000000000000000000000000000000000000 DUP2 MSTORE PUSH1 0x4 ADD PUSH2 0x4482 SWAP1 PUSH2 0x61C9 JUMP JUMPDEST PUSH1 0x40 MLOAD DUP1 SWAP2 SUB SWAP1 REVERT JUMPDEST SWAP3 POP SWAP3 SWAP1 POP JUMP JUMPDEST PUSH0 DUP1 PUSH0 PUSH20 0xFFFFFFFFFFFFFFFFFFFFFFFFFFFFFFFFFFFFFFFF AND PUSH32 0x0 PUSH20 0xFFFFFFFFFFFFFFFFFFFFFFFFFFFFFFFFFFFFFFFF AND PUSH4 0xE6A43905 DUP11 DUP11 PUSH1 0x40 MLOAD DUP4 PUSH4 0xFFFFFFFF AND PUSH1 0xE0 SHL DUP2 MSTORE PUSH1 0x4 ADD PUSH2 0x4506 SWAP3 SWAP2 SWAP1 PUSH2 0x61E7 JUMP JUMPDEST PUSH1 0x20 PUSH1 0x40 MLOAD DUP1 DUP4 SUB DUP2 DUP7 GAS STATICCALL ISZERO DUP1 ISZERO PUSH2 0x4521 JUMPI RETURNDATASIZE PUSH0 DUP1 RETURNDATACOPY RETURNDATASIZE PUSH0 REVERT JUMPDEST POP POP POP POP PUSH1 0x40 MLOAD RETURNDATASIZE PUSH1 0x1F NOT PUSH1 0x1F DUP3 ADD AND DUP3 ADD DUP1 PUSH1 0x40 MSTORE POP DUP2 ADD SWAP1 PUSH2 0x4545 SWAP2 SWAP1 PUSH2 0x6222 JUMP JUMPDEST PUSH20 0xFFFFFFFFFFFFFFFFFFFFFFFFFFFFFFFFFFFFFFFF AND SUB PUSH2 0x45FD JUMPI PUSH32 0x0 PUSH20 0xFFFFFFFFFFFFFFFFFFFFFFFFFFFFFFFFFFFFFFFF AND PUSH4 0xC9C65396 DUP10 DUP10 PUSH1 0x40 MLOAD DUP4 PUSH4 0xFFFFFFFF AND PUSH1 0xE0 SHL DUP2 MSTORE PUSH1 0x4 ADD PUSH2 0x45BB SWAP3 SWAP2 SWAP1 PUSH2 0x61E7 JUMP JUMPDEST PUSH1 0x20 PUSH1 0x40 MLOAD DUP1 DUP4 SUB DUP2 PUSH0 DUP8 GAS CALL ISZERO DUP1 ISZERO PUSH2 0x45D7 JUMPI RETURNDATASIZE PUSH0 DUP1 RETURNDATACOPY RETURNDATASIZE PUSH0 REVERT JUMPDEST POP POP POP POP PUSH1 0x40 MLOAD RETURNDATASIZE PUSH1 0x1F NOT PUSH1 0x1F DUP3 ADD AND DUP3 ADD DUP1 PUSH1 0x40 MSTORE POP DUP2 ADD SWAP1 PUSH2 0x45FB SWAP2 SWAP1 PUSH2 0x6222 JUMP JUMPDEST POP JUMPDEST PUSH0 DUP1 PUSH2 0x462A PUSH32 0x0 DUP12 DUP12 PUSH2 0x47F8 JUMP JUMPDEST SWAP2 POP SWAP2 POP PUSH0 DUP3 EQ DUP1 ISZERO PUSH2 0x463C JUMPI POP PUSH0 DUP2 EQ JUMPDEST ISZERO PUSH2 0x4650 JUMPI DUP8 DUP8 DUP1 SWAP5 POP DUP2 SWAP6 POP POP POP PUSH2 0x4727 JUMP JUMPDEST PUSH0 PUSH2 0x465C DUP10 DUP5 DUP5 PUSH2 0x42B1 JUMP JUMPDEST SWAP1 POP DUP8 DUP2 GT PUSH2 0x46B7 JUMPI DUP6 DUP2 LT ISZERO PUSH2 0x46A8 JUMPI PUSH1 0x40 MLOAD PUSH32 0x8C379A000000000000000000000000000000000000000000000000000000000 DUP2 MSTORE PUSH1 0x4 ADD PUSH2 0x469F SWAP1 PUSH2 0x5841 JUMP JUMPDEST PUSH1 0x40 MLOAD DUP1 SWAP2 SUB SWAP1 REVERT JUMPDEST DUP9 DUP2 DUP1 SWAP6 POP DUP2 SWAP7 POP POP POP PUSH2 0x4725 JUMP JUMPDEST PUSH0 PUSH2 0x46C3 DUP10 DUP5 DUP7 PUSH2 0x42B1 JUMP JUMPDEST SWAP1 POP DUP10 DUP2 GT ISZERO PUSH2 0x46D6 JUMPI PUSH2 0x46D5 PUSH2 0x48F6 JUMP JUMPDEST JUMPDEST DUP8 DUP2 LT ISZERO PUSH2 0x4719 JUMPI PUSH1 0x40 MLOAD PUSH32 0x8C379A000000000000000000000000000000000000000000000000000000000 DUP2 MSTORE PUSH1 0x4 ADD PUSH2 0x4710 SWAP1 PUSH2 0x57B3 JUMP JUMPDEST PUSH1 0x40 MLOAD DUP1 SWAP2 SUB SWAP1 REVERT JUMPDEST DUP1 DUP10 DUP1 SWAP7 POP DUP2 SWAP8 POP POP POP POP JUMPDEST POP JUMPDEST POP POP SWAP7 POP SWAP7 SWAP5 POP POP POP POP POP JUMP JUMPDEST PUSH0 DUP1 DUP3 EQ DUP1 PUSH2 0x475B JUMPI POP DUP3 DUP3 DUP4 DUP6 PUSH2 0x474C SWAP2 SWAP1 PUSH2 0x624D JUMP JUMPDEST SWAP3 POP DUP3 PUSH2 0x4759 SWAP2 SWAP1 PUSH2 0x5B20 JUMP JUMPDEST EQ JUMPDEST PUSH2 0x479A JUMPI PUSH1 0x40 MLOAD PUSH32 0x8C379A000000000000000000000000000000000000000000000000000000000 DUP2 MSTORE PUSH1 0x4 ADD PUSH2 0x4791 SWAP1 PUSH2 0x62D8 JUMP JUMPDEST PUSH1 0x40 MLOAD DUP1 SWAP2 SUB SWAP1 REVERT JUMPDEST SWAP3 SWAP2 POP POP JUMP JUMPDEST PUSH0 DUP3 DUP3 DUP5 PUSH2 0x47AE SWAP2 SWAP1 PUSH2 0x5BB8 JUMP JUMPDEST SWAP2 POP DUP2 LT ISZERO PUSH2 0x47F2 JUMPI PUSH1 0x40 MLOAD PUSH32 0x8C379A000000000000000000000000000000000000000000000000000000000 DUP2 MSTORE PUSH1 0x4 ADD PUSH2 0x47E9 SWAP1 PUSH2 0x6340 JUMP JUMPDEST PUSH1 0x40 MLOAD DUP1 SWAP2 SUB SWAP1 REVERT JUMPDEST SWAP3 SWAP2 POP POP JUMP JUMPDEST PUSH0 DUP1 PUSH0 PUSH2 0x4805 DUP6 DUP6 PUSH2 0x4368 JUMP JUMPDEST POP SWAP1 POP PUSH0 DUP1 PUSH2 0x4815 DUP9 DUP9 DUP9 PUSH2 0x3836 JUMP JUMPDEST PUSH20 0xFFFFFFFFFFFFFFFFFFFFFFFFFFFFFFFFFFFFFFFF AND PUSH4 0x902F1AC PUSH1 0x40 MLOAD DUP2 PUSH4 0xFFFFFFFF AND PUSH1 0xE0 SHL DUP2 MSTORE PUSH1 0x4 ADD PUSH1 0x60 PUSH1 0x40 MLOAD DUP1 DUP4 SUB DUP2 DUP7 GAS STATICCALL ISZERO DUP1 ISZERO PUSH2 0x485D JUMPI RETURNDATASIZE PUSH0 DUP1 RETURNDATACOPY RETURNDATASIZE PUSH0 REVERT JUMPDEST POP POP POP POP PUSH1 0x40 MLOAD RETURNDATASIZE PUSH1 0x1F NOT PUSH1 0x1F DUP3 ADD AND DUP3 ADD DUP1 PUSH1 0x40 MSTORE POP DUP2 ADD SWAP1 PUSH2 0x4881 SWAP2 SWAP1 PUSH2 0x5F1D JUMP JUMPDEST POP PUSH14 0xFFFFFFFFFFFFFFFFFFFFFFFFFFFF AND SWAP2 POP PUSH14 0xFFFFFFFFFFFFFFFFFFFFFFFFFFFF AND SWAP2 POP DUP3 PUSH20 0xFFFFFFFFFFFFFFFFFFFFFFFFFFFFFFFFFFFFFFFF AND DUP8 PUSH20 0xFFFFFFFFFFFFFFFFFFFFFFFFFFFFFFFFFFFFFFFF AND EQ PUSH2 0x48E0 JUMPI DUP1 DUP3 PUSH2 0x48E3 JUMP JUMPDEST DUP2 DUP2 JUMPDEST DUP1 SWAP6 POP DUP2 SWAP7 POP POP POP POP POP POP SWAP4 POP SWAP4 SWAP2 POP POP JUMP JUMPDEST PUSH32 0x4E487B7100000000000000000000000000000000000000000000000000000000 PUSH0 MSTORE PUSH1 0x1 PUSH1 0x4 MSTORE PUSH1 0x24 PUSH0 REVERT JUMPDEST PUSH0 PUSH1 0x40 MLOAD SWAP1 POP SWAP1 JUMP JUMPDEST PUSH0 DUP1 REVERT JUMPDEST PUSH0 DUP1 REVERT JUMPDEST PUSH0 PUSH20 0xFFFFFFFFFFFFFFFFFFFFFFFFFFFFFFFFFFFFFFFF DUP3 AND SWAP1 POP SWAP2 SWAP1 POP JUMP JUMPDEST PUSH0 PUSH2 0x495D DUP3 PUSH2 0x4934 JUMP JUMPDEST SWAP1 POP SWAP2 SWAP1 POP JUMP JUMPDEST PUSH2 0x496D DUP2 PUSH2 0x4953 JUMP JUMPDEST DUP2 EQ PUSH2 0x4977 JUMPI PUSH0 DUP1 REVERT JUMPDEST POP JUMP JUMPDEST PUSH0 DUP2 CALLDATALOAD SWAP1 POP PUSH2 0x4988 DUP2 PUSH2 0x4964 JUMP JUMPDEST SWAP3 SWAP2 POP POP JUMP JUMPDEST PUSH0 DUP2 SWAP1 POP SWAP2 SWAP1 POP JUMP JUMPDEST PUSH2 0x49A0 DUP2 PUSH2 0x498E JUMP JUMPDEST DUP2 EQ PUSH2 0x49AA JUMPI PUSH0 DUP1 REVERT JUMPDEST POP JUMP JUMPDEST PUSH0 DUP2 CALLDATALOAD SWAP1 POP PUSH2 0x49BB DUP2 PUSH2 0x4997 JUMP JUMPDEST SWAP3 SWAP2 POP POP JUMP JUMPDEST PUSH0 DUP1 PUSH0 DUP1 PUSH0 DUP1 PUSH1 0xC0 DUP8 DUP10 SUB SLT ISZERO PUSH2 0x49DB JUMPI PUSH2 0x49DA PUSH2 0x492C JUMP JUMPDEST JUMPDEST PUSH0 PUSH2 0x49E8 DUP10 DUP3 DUP11 ADD PUSH2 0x497A JUMP JUMPDEST SWAP7 POP POP PUSH1 0x20 PUSH2 0x49F9 DUP10 DUP3 DUP11 ADD PUSH2 0x49AD JUMP JUMPDEST SWAP6 POP POP PUSH1 0x40 PUSH2 0x4A0A DUP10 DUP3 DUP11 ADD PUSH2 0x49AD JUMP JUMPDEST SWAP5 POP POP PUSH1 0x60 PUSH2 0x4A1B DUP10 DUP3 DUP11 ADD PUSH2 0x49AD JUMP JUMPDEST SWAP4 POP POP PUSH1 0x80 PUSH2 0x4A2C DUP10 DUP3 DUP11 ADD PUSH2 0x497A JUMP JUMPDEST SWAP3 POP POP PUSH1 0xA0 PUSH2 0x4A3D DUP10 DUP3 DUP11 ADD PUSH2 0x49AD JUMP JUMPDEST SWAP2 POP POP SWAP3 SWAP6 POP SWAP3 SWAP6 POP SWAP3 SWAP6 JUMP JUMPDEST PUSH2 0x4A53 DUP2 PUSH2 0x498E JUMP JUMPDEST DUP3 MSTORE POP POP JUMP JUMPDEST PUSH0 PUSH1 0x40 DUP3 ADD SWAP1 POP PUSH2 0x4A6C PUSH0 DUP4 ADD DUP6 PUSH2 0x4A4A JUMP JUMPDEST PUSH2 0x4A79 PUSH1 0x20 DUP4 ADD DUP5 PUSH2 0x4A4A JUMP JUMPDEST SWAP4 SWAP3 POP POP POP JUMP JUMPDEST PUSH0 DUP1 PUSH0 PUSH1 0x60 DUP5 DUP7 SUB SLT ISZERO PUSH2 0x4A97 JUMPI PUSH2 0x4A96 PUSH2 0x492C JUMP JUMPDEST JUMPDEST PUSH0 PUSH2 0x4AA4 DUP7 DUP3 DUP8 ADD PUSH2 0x49AD JUMP JUMPDEST SWAP4 POP POP PUSH1 0x20 PUSH2 0x4AB5 DUP7 DUP3 DUP8 ADD PUSH2 0x49AD JUMP JUMPDEST SWAP3 POP POP PUSH1 0x40 PUSH2 0x4AC6 DUP7 DUP3 DUP8 ADD PUSH2 0x49AD JUMP JUMPDEST SWAP2 POP POP SWAP3 POP SWAP3 POP SWAP3 JUMP JUMPDEST PUSH0 PUSH1 0x20 DUP3 ADD SWAP1 POP PUSH2 0x4AE3 PUSH0 DUP4 ADD DUP5 PUSH2 0x4A4A JUMP JUMPDEST SWAP3 SWAP2 POP POP JUMP JUMPDEST PUSH0 DUP1 REVERT JUMPDEST PUSH0 DUP1 REVERT JUMPDEST PUSH0 DUP1 REVERT JUMPDEST PUSH0 DUP1 DUP4 PUSH1 0x1F DUP5 ADD SLT PUSH2 0x4B0A JUMPI PUSH2 0x4B09 PUSH2 0x4AE9 JUMP JUMPDEST JUMPDEST DUP3 CALLDATALOAD SWAP1 POP PUSH8 0xFFFFFFFFFFFFFFFF DUP2 GT ISZERO PUSH2 0x4B27 JUMPI PUSH2 0x4B26 PUSH2 0x4AED JUMP JUMPDEST JUMPDEST PUSH1 0x20 DUP4 ADD SWAP2 POP DUP4 PUSH1 0x20 DUP3 MUL DUP4 ADD GT ISZERO PUSH2 0x4B43 JUMPI PUSH2 0x4B42 PUSH2 0x4AF1 JUMP JUMPDEST JUMPDEST SWAP3 POP SWAP3 SWAP1 POP JUMP JUMPDEST PUSH0 DUP1 PUSH0 DUP1 PUSH0 DUP1 PUSH1 0xA0 DUP8 DUP10 SUB SLT ISZERO PUSH2 0x4B64 JUMPI PUSH2 0x4B63 PUSH2 0x492C JUMP JUMPDEST JUMPDEST PUSH0 PUSH2 0x4B71 DUP10 DUP3 DUP11 ADD PUSH2 0x49AD JUMP JUMPDEST SWAP7 POP POP PUSH1 0x20 PUSH2 0x4B82 DUP10 DUP3 DUP11 ADD PUSH2 0x49AD JUMP JUMPDEST SWAP6 POP POP PUSH1 0x40 DUP8 ADD CALLDATALOAD PUSH8 0xFFFFFFFFFFFFFFFF DUP2 GT ISZERO PUSH2 0x4BA3 JUMPI PUSH2 0x4BA2 PUSH2 0x4930 JUMP JUMPDEST JUMPDEST PUSH2 0x4BAF DUP10 DUP3 DUP11 ADD PUSH2 0x4AF5 JUMP JUMPDEST SWAP5 POP SWAP5 POP POP PUSH1 0x60 PUSH2 0x4BC2 DUP10 DUP3 DUP11 ADD PUSH2 0x497A JUMP JUMPDEST SWAP3 POP POP PUSH1 0x80 PUSH2 0x4BD3 DUP10 DUP3 DUP11 ADD PUSH2 0x49AD JUMP JUMPDEST SWAP2 POP POP SWAP3 SWAP6 POP SWAP3 SWAP6 POP SWAP3 SWAP6 JUMP JUMPDEST PUSH0 DUP2 MLOAD SWAP1 POP SWAP2 SWAP1 POP JUMP JUMPDEST PUSH0 DUP3 DUP3 MSTORE PUSH1 0x20 DUP3 ADD SWAP1 POP SWAP3 SWAP2 POP POP JUMP JUMPDEST PUSH0 DUP2 SWAP1 POP PUSH1 0x20 DUP3 ADD SWAP1 POP SWAP2 SWAP1 POP JUMP JUMPDEST PUSH2 0x4C12 DUP2 PUSH2 0x498E JUMP JUMPDEST DUP3 MSTORE POP POP JUMP JUMPDEST PUSH0 PUSH2 0x4C23 DUP4 DUP4 PUSH2 0x4C09 JUMP JUMPDEST PUSH1 0x20 DUP4 ADD SWAP1 POP SWAP3 SWAP2 POP POP JUMP JUMPDEST PUSH0 PUSH1 0x20 DUP3 ADD SWAP1 POP SWAP2 SWAP1 POP JUMP JUMPDEST PUSH0 PUSH2 0x4C45 DUP3 PUSH2 0x4BE0 JUMP JUMPDEST PUSH2 0x4C4F DUP2 DUP6 PUSH2 0x4BEA JUMP JUMPDEST SWAP4 POP PUSH2 0x4C5A DUP4 PUSH2 0x4BFA JUMP JUMPDEST DUP1 PUSH0 JUMPDEST DUP4 DUP2 LT ISZERO PUSH2 0x4C8A JUMPI DUP2 MLOAD PUSH2 0x4C71 DUP9 DUP3 PUSH2 0x4C18 JUMP JUMPDEST SWAP8 POP PUSH2 0x4C7C DUP4 PUSH2 0x4C2F JUMP JUMPDEST SWAP3 POP POP PUSH1 0x1 DUP2 ADD SWAP1 POP PUSH2 0x4C5D JUMP JUMPDEST POP DUP6 SWAP4 POP POP POP POP SWAP3 SWAP2 POP POP JUMP JUMPDEST PUSH0 PUSH1 0x20 DUP3 ADD SWAP1 POP DUP2 DUP2 SUB PUSH0 DUP4 ADD MSTORE PUSH2 0x4CAF DUP2 DUP5 PUSH2 0x4C3B JUMP JUMPDEST SWAP1 POP SWAP3 SWAP2 POP POP JUMP JUMPDEST PUSH2 0x4CC0 DUP2 PUSH2 0x4953 JUMP JUMPDEST DUP3 MSTORE POP POP JUMP JUMPDEST PUSH0 PUSH1 0x20 DUP3 ADD SWAP1 POP PUSH2 0x4CD9 PUSH0 DUP4 ADD DUP5 PUSH2 0x4CB7 JUMP JUMPDEST SWAP3 SWAP2 POP POP JUMP JUMPDEST PUSH0 PUSH1 0x1F NOT PUSH1 0x1F DUP4 ADD AND SWAP1 POP SWAP2 SWAP1 POP JUMP JUMPDEST PUSH32 0x4E487B7100000000000000000000000000000000000000000000000000000000 PUSH0 MSTORE PUSH1 0x41 PUSH1 0x4 MSTORE PUSH1 0x24 PUSH0 REVERT JUMPDEST PUSH2 0x4D25 DUP3 PUSH2 0x4CDF JUMP JUMPDEST DUP2 ADD DUP2 DUP2 LT PUSH8 0xFFFFFFFFFFFFFFFF DUP3 GT OR ISZERO PUSH2 0x4D44 JUMPI PUSH2 0x4D43 PUSH2 0x4CEF JUMP JUMPDEST JUMPDEST DUP1 PUSH1 0x40 MSTORE POP POP POP JUMP JUMPDEST PUSH0 PUSH2 0x4D56 PUSH2 0x4923 JUMP JUMPDEST SWAP1 POP PUSH2 0x4D62 DUP3 DUP3 PUSH2 0x4D1C JUMP JUMPDEST SWAP2 SWAP1 POP JUMP JUMPDEST PUSH0 PUSH8 0xFFFFFFFFFFFFFFFF DUP3 GT ISZERO PUSH2 0x4D81 JUMPI PUSH2 0x4D80 PUSH2 0x4CEF JUMP JUMPDEST JUMPDEST PUSH1 0x20 DUP3 MUL SWAP1 POP PUSH1 0x20 DUP2 ADD SWAP1 POP SWAP2 SWAP1 POP JUMP JUMPDEST PUSH0 PUSH2 0x4DA4 PUSH2 0x4D9F DUP5 PUSH2 0x4D67 JUMP JUMPDEST PUSH2 0x4D4D JUMP JUMPDEST SWAP1 POP DUP1 DUP4 DUP3 MSTORE PUSH1 0x20 DUP3 ADD SWAP1 POP PUSH1 0x20 DUP5 MUL DUP4 ADD DUP6 DUP2 GT ISZERO PUSH2 0x4DC7 JUMPI PUSH2 0x4DC6 PUSH2 0x4AF1 JUMP JUMPDEST JUMPDEST DUP4 JUMPDEST DUP2 DUP2 LT ISZERO PUSH2 0x4DF0 JUMPI DUP1 PUSH2 0x4DDC DUP9 DUP3 PUSH2 0x497A JUMP JUMPDEST DUP5 MSTORE PUSH1 0x20 DUP5 ADD SWAP4 POP POP PUSH1 0x20 DUP2 ADD SWAP1 POP PUSH2 0x4DC9 JUMP JUMPDEST POP POP POP SWAP4 SWAP3 POP POP POP JUMP JUMPDEST PUSH0 DUP3 PUSH1 0x1F DUP4 ADD SLT PUSH2 0x4E0E JUMPI PUSH2 0x4E0D PUSH2 0x4AE9 JUMP JUMPDEST JUMPDEST DUP2 CALLDATALOAD PUSH2 0x4E1E DUP5 DUP3 PUSH1 0x20 DUP7 ADD PUSH2 0x4D92 JUMP JUMPDEST SWAP2 POP POP SWAP3 SWAP2 POP POP JUMP JUMPDEST PUSH0 DUP1 PUSH1 0x40 DUP4 DUP6 SUB SLT ISZERO PUSH2 0x4E3D JUMPI PUSH2 0x4E3C PUSH2 0x492C JUMP JUMPDEST JUMPDEST PUSH0 PUSH2 0x4E4A DUP6 DUP3 DUP7 ADD PUSH2 0x49AD JUMP JUMPDEST SWAP3 POP POP PUSH1 0x20 DUP4 ADD CALLDATALOAD PUSH8 0xFFFFFFFFFFFFFFFF DUP2 GT ISZERO PUSH2 0x4E6B JUMPI PUSH2 0x4E6A PUSH2 0x4930 JUMP JUMPDEST JUMPDEST PUSH2 0x4E77 DUP6 DUP3 DUP7 ADD PUSH2 0x4DFA JUMP JUMPDEST SWAP2 POP POP SWAP3 POP SWAP3 SWAP1 POP JUMP JUMPDEST PUSH0 DUP2 ISZERO ISZERO SWAP1 POP SWAP2 SWAP1 POP JUMP JUMPDEST PUSH2 0x4E95 DUP2 PUSH2 0x4E81 JUMP JUMPDEST DUP2 EQ PUSH2 0x4E9F JUMPI PUSH0 DUP1 REVERT JUMPDEST POP JUMP JUMPDEST PUSH0 DUP2 CALLDATALOAD SWAP1 POP PUSH2 0x4EB0 DUP2 PUSH2 0x4E8C JUMP JUMPDEST SWAP3 SWAP2 POP POP JUMP JUMPDEST PUSH0 PUSH1 0xFF DUP3 AND SWAP1 POP SWAP2 SWAP1 POP JUMP JUMPDEST PUSH2 0x4ECB DUP2 PUSH2 0x4EB6 JUMP JUMPDEST DUP2 EQ PUSH2 0x4ED5 JUMPI PUSH0 DUP1 REVERT JUMPDEST POP JUMP JUMPDEST PUSH0 DUP2 CALLDATALOAD SWAP1 POP PUSH2 0x4EE6 DUP2 PUSH2 0x4EC2 JUMP JUMPDEST SWAP3 SWAP2 POP POP JUMP JUMPDEST PUSH0 DUP2 SWAP1 POP SWAP2 SWAP1 POP JUMP JUMPDEST PUSH2 0x4EFE DUP2 PUSH2 0x4EEC JUMP JUMPDEST DUP2 EQ PUSH2 0x4F08 JUMPI PUSH0 DUP1 REVERT JUMPDEST POP JUMP JUMPDEST PUSH0 DUP2 CALLDATALOAD SWAP1 POP PUSH2 0x4F19 DUP2 PUSH2 0x4EF5 JUMP JUMPDEST SWAP3 SWAP2 POP POP JUMP JUMPDEST PUSH0 DUP1 PUSH0 DUP1 PUSH0 DUP1 PUSH0 DUP1 PUSH0 DUP1 PUSH0 PUSH2 0x160 DUP13 DUP15 SUB SLT ISZERO PUSH2 0x4F3F JUMPI PUSH2 0x4F3E PUSH2 0x492C JUMP JUMPDEST JUMPDEST PUSH0 PUSH2 0x4F4C DUP15 DUP3 DUP16 ADD PUSH2 0x497A JUMP JUMPDEST SWAP12 POP POP PUSH1 0x20 PUSH2 0x4F5D DUP15 DUP3 DUP16 ADD PUSH2 0x497A JUMP JUMPDEST SWAP11 POP POP PUSH1 0x40 PUSH2 0x4F6E DUP15 DUP3 DUP16 ADD PUSH2 0x49AD JUMP JUMPDEST SWAP10 POP POP PUSH1 0x60 PUSH2 0x4F7F DUP15 DUP3 DUP16 ADD PUSH2 0x49AD JUMP JUMPDEST SWAP9 POP POP PUSH1 0x80 PUSH2 0x4F90 DUP15 DUP3 DUP16 ADD PUSH2 0x49AD JUMP JUMPDEST SWAP8 POP POP PUSH1 0xA0 PUSH2 0x4FA1 DUP15 DUP3 DUP16 ADD PUSH2 0x497A JUMP JUMPDEST SWAP7 POP POP PUSH1 0xC0 PUSH2 0x4FB2 DUP15 DUP3 DUP16 ADD PUSH2 0x49AD JUMP JUMPDEST SWAP6 POP POP PUSH1 0xE0 PUSH2 0x4FC3 DUP15 DUP3 DUP16 ADD PUSH2 0x4EA2 JUMP JUMPDEST SWAP5 POP POP PUSH2 0x100 PUSH2 0x4FD5 DUP15 DUP3 DUP16 ADD PUSH2 0x4ED8 JUMP JUMPDEST SWAP4 POP POP PUSH2 0x120 PUSH2 0x4FE7 DUP15 DUP3 DUP16 ADD PUSH2 0x4F0B JUMP JUMPDEST SWAP3 POP POP PUSH2 0x140 PUSH2 0x4FF9 DUP15 DUP3 DUP16 ADD PUSH2 0x4F0B JUMP JUMPDEST SWAP2 POP POP SWAP3 SWAP6 SWAP9 SWAP12 POP SWAP3 SWAP6 SWAP9 SWAP12 SWAP1 SWAP4 SWAP7 SWAP10 POP JUMP JUMPDEST PUSH0 DUP1 PUSH0 DUP1 PUSH0 DUP1 PUSH0 DUP1 PUSH0 DUP1 PUSH2 0x140 DUP12 DUP14 SUB SLT ISZERO PUSH2 0x502B JUMPI PUSH2 0x502A PUSH2 0x492C JUMP JUMPDEST JUMPDEST PUSH0 PUSH2 0x5038 DUP14 DUP3 DUP15 ADD PUSH2 0x497A JUMP JUMPDEST SWAP11 POP POP PUSH1 0x20 PUSH2 0x5049 DUP14 DUP3 DUP15 ADD PUSH2 0x49AD JUMP JUMPDEST SWAP10 POP POP PUSH1 0x40 PUSH2 0x505A DUP14 DUP3 DUP15 ADD PUSH2 0x49AD JUMP JUMPDEST SWAP9 POP POP PUSH1 0x60 PUSH2 0x506B DUP14 DUP3 DUP15 ADD PUSH2 0x49AD JUMP JUMPDEST SWAP8 POP POP PUSH1 0x80 PUSH2 0x507C DUP14 DUP3 DUP15 ADD PUSH2 0x497A JUMP JUMPDEST SWAP7 POP POP PUSH1 0xA0 PUSH2 0x508D DUP14 DUP3 DUP15 ADD PUSH2 0x49AD JUMP JUMPDEST SWAP6 POP POP PUSH1 0xC0 PUSH2 0x509E DUP14 DUP3 DUP15 ADD PUSH2 0x4EA2 JUMP JUMPDEST SWAP5 POP POP PUSH1 0xE0 PUSH2 0x50AF DUP14 DUP3 DUP15 ADD PUSH2 0x4ED8 JUMP JUMPDEST SWAP4 POP POP PUSH2 0x100 PUSH2 0x50C1 DUP14 DUP3 DUP15 ADD PUSH2 0x4F0B JUMP JUMPDEST SWAP3 POP POP PUSH2 0x120 PUSH2 0x50D3 DUP14 DUP3 DUP15 ADD PUSH2 0x4F0B JUMP JUMPDEST SWAP2 POP POP SWAP3 SWAP6 SWAP9 SWAP12 SWAP2 SWAP5 SWAP8 SWAP11 POP SWAP3 SWAP6 SWAP9 POP JUMP JUMPDEST PUSH0 DUP1 PUSH0 DUP1 PUSH0 PUSH1 0x80 DUP7 DUP9 SUB SLT ISZERO PUSH2 0x50FE JUMPI PUSH2 0x50FD PUSH2 0x492C JUMP JUMPDEST JUMPDEST PUSH0 PUSH2 0x510B DUP9 DUP3 DUP10 ADD PUSH2 0x49AD JUMP JUMPDEST SWAP6 POP POP PUSH1 0x20 DUP7 ADD CALLDATALOAD PUSH8 0xFFFFFFFFFFFFFFFF DUP2 GT ISZERO PUSH2 0x512C JUMPI PUSH2 0x512B PUSH2 0x4930 JUMP JUMPDEST JUMPDEST PUSH2 0x5138 DUP9 DUP3 DUP10 ADD PUSH2 0x4AF5 JUMP JUMPDEST SWAP5 POP SWAP5 POP POP PUSH1 0x40 PUSH2 0x514B DUP9 DUP3 DUP10 ADD PUSH2 0x497A JUMP JUMPDEST SWAP3 POP POP PUSH1 0x60 PUSH2 0x515C DUP9 DUP3 DUP10 ADD PUSH2 0x49AD JUMP JUMPDEST SWAP2 POP POP SWAP3 SWAP6 POP SWAP3 SWAP6 SWAP1 SWAP4 POP JUMP JUMPDEST PUSH0 DUP1 PUSH0 DUP1 PUSH0 DUP1 PUSH0 PUSH1 0xE0 DUP9 DUP11 SUB SLT ISZERO PUSH2 0x5184 JUMPI PUSH2 0x5183 PUSH2 0x492C JUMP JUMPDEST JUMPDEST PUSH0 PUSH2 0x5191 DUP11 DUP3 DUP12 ADD PUSH2 0x497A JUMP JUMPDEST SWAP8 POP POP PUSH1 0x20 PUSH2 0x51A2 DUP11 DUP3 DUP12 ADD PUSH2 0x497A JUMP JUMPDEST SWAP7 POP POP PUSH1 0x40 PUSH2 0x51B3 DUP11 DUP3 DUP12 ADD PUSH2 0x49AD JUMP JUMPDEST SWAP6 POP POP PUSH1 0x60 PUSH2 0x51C4 DUP11 DUP3 DUP12 ADD PUSH2 0x49AD JUMP JUMPDEST SWAP5 POP POP PUSH1 0x80 PUSH2 0x51D5 DUP11 DUP3 DUP12 ADD PUSH2 0x49AD JUMP JUMPDEST SWAP4 POP POP PUSH1 0xA0 PUSH2 0x51E6 DUP11 DUP3 DUP12 ADD PUSH2 0x497A JUMP JUMPDEST SWAP3 POP POP PUSH1 0xC0 PUSH2 0x51F7 DUP11 DUP3 DUP12 ADD PUSH2 0x49AD JUMP JUMPDEST SWAP2 POP POP SWAP3 SWAP6 SWAP9 SWAP2 SWAP5 SWAP8 POP SWAP3 SWAP6 POP JUMP JUMPDEST PUSH0 DUP1 PUSH0 DUP1 PUSH0 DUP1 PUSH0 DUP1 PUSH2 0x100 DUP10 DUP12 SUB SLT ISZERO PUSH2 0x5223 JUMPI PUSH2 0x5222 PUSH2 0x492C JUMP JUMPDEST JUMPDEST PUSH0 PUSH2 0x5230 DUP12 DUP3 DUP13 ADD PUSH2 0x497A JUMP JUMPDEST SWAP9 POP POP PUSH1 0x20 PUSH2 0x5241 DUP12 DUP3 DUP13 ADD PUSH2 0x497A JUMP JUMPDEST SWAP8 POP POP PUSH1 0x40 PUSH2 0x5252 DUP12 DUP3 DUP13 ADD PUSH2 0x49AD JUMP JUMPDEST SWAP7 POP POP PUSH1 0x60 PUSH2 0x5263 DUP12 DUP3 DUP13 ADD PUSH2 0x49AD JUMP JUMPDEST SWAP6 POP POP PUSH1 0x80 PUSH2 0x5274 DUP12 DUP3 DUP13 ADD PUSH2 0x49AD JUMP JUMPDEST SWAP5 POP POP PUSH1 0xA0 PUSH2 0x5285 DUP12 DUP3 DUP13 ADD PUSH2 0x49AD JUMP JUMPDEST SWAP4 POP POP PUSH1 0xC0 PUSH2 0x5296 DUP12 DUP3 DUP13 ADD PUSH2 0x497A JUMP JUMPDEST SWAP3 POP POP PUSH1 0xE0 PUSH2 0x52A7 DUP12 DUP3 DUP13 ADD PUSH2 0x49AD JUMP JUMPDEST SWAP2 POP POP SWAP3 SWAP6 SWAP9 POP SWAP3 SWAP6 SWAP9 SWAP1 SWAP4 SWAP7 POP JUMP JUMPDEST PUSH0 PUSH1 0x60 DUP3 ADD SWAP1 POP PUSH2 0x52CA PUSH0 DUP4 ADD DUP7 PUSH2 0x4A4A JUMP JUMPDEST PUSH2 0x52D7 PUSH1 0x20 DUP4 ADD DUP6 PUSH2 0x4A4A JUMP JUMPDEST PUSH2 0x52E4 PUSH1 0x40 DUP4 ADD DUP5 PUSH2 0x4A4A JUMP JUMPDEST SWAP5 SWAP4 POP POP POP POP JUMP JUMPDEST PUSH0 DUP3 DUP3 MSTORE PUSH1 0x20 DUP3 ADD SWAP1 POP SWAP3 SWAP2 POP POP JUMP JUMPDEST PUSH32 0x556E69737761705632526F757465723A20455850495245440000000000000000 PUSH0 DUP3 ADD MSTORE POP JUMP JUMPDEST PUSH0 PUSH2 0x5330 PUSH1 0x18 DUP4 PUSH2 0x52EC JUMP JUMPDEST SWAP2 POP PUSH2 0x533B DUP3 PUSH2 0x52FC JUMP JUMPDEST PUSH1 0x20 DUP3 ADD SWAP1 POP SWAP2 SWAP1 POP JUMP JUMPDEST PUSH0 PUSH1 0x20 DUP3 ADD SWAP1 POP DUP2 DUP2 SUB PUSH0 DUP4 ADD MSTORE PUSH2 0x535D DUP2 PUSH2 0x5324 JUMP JUMPDEST SWAP1 POP SWAP2 SWAP1 POP JUMP JUMPDEST PUSH32 0x4E487B7100000000000000000000000000000000000000000000000000000000 PUSH0 MSTORE PUSH1 0x11 PUSH1 0x4 MSTORE PUSH1 0x24 PUSH0 REVERT JUMPDEST PUSH0 PUSH2 0x539B DUP3 PUSH2 0x498E JUMP JUMPDEST SWAP2 POP PUSH2 0x53A6 DUP4 PUSH2 0x498E JUMP JUMPDEST SWAP3 POP DUP3 DUP3 SUB SWAP1 POP DUP2 DUP2 GT ISZERO PUSH2 0x53BE JUMPI PUSH2 0x53BD PUSH2 0x5364 JUMP JUMPDEST JUMPDEST SWAP3 SWAP2 POP POP JUMP JUMPDEST PUSH32 0x4E487B7100000000000000000000000000000000000000000000000000000000 PUSH0 MSTORE PUSH1 0x32 PUSH1 0x4 MSTORE PUSH1 0x24 PUSH0 REVERT JUMPDEST PUSH0 PUSH1 0x20 DUP3 DUP5 SUB SLT ISZERO PUSH2 0x5406 JUMPI PUSH2 0x5405 PUSH2 0x492C JUMP JUMPDEST JUMPDEST PUSH0 PUSH2 0x5413 DUP5 DUP3 DUP6 ADD PUSH2 0x497A JUMP JUMPDEST SWAP2 POP POP SWAP3 SWAP2 POP POP JUMP JUMPDEST PUSH32 0x556E69737761705632526F757465723A20494E56414C49445F50415448000000 PUSH0 DUP3 ADD MSTORE POP JUMP JUMPDEST PUSH0 PUSH2 0x5450 PUSH1 0x1D DUP4 PUSH2 0x52EC JUMP JUMPDEST SWAP2 POP PUSH2 0x545B DUP3 PUSH2 0x541C JUMP JUMPDEST PUSH1 0x20 DUP3 ADD SWAP1 POP SWAP2 SWAP1 POP JUMP JUMPDEST PUSH0 PUSH1 0x20 DUP3 ADD SWAP1 POP DUP2 DUP2 SUB PUSH0 DUP4 ADD MSTORE PUSH2 0x547D DUP2 PUSH2 0x5444 JUMP JUMPDEST SWAP1 POP SWAP2 SWAP1 POP JUMP JUMPDEST PUSH32 0x556E69737761705632526F757465723A20494E53554646494349454E545F4F55 PUSH0 DUP3 ADD MSTORE PUSH32 0x545055545F414D4F554E54000000000000000000000000000000000000000000 PUSH1 0x20 DUP3 ADD MSTORE POP JUMP JUMPDEST PUSH0 PUSH2 0x54DE PUSH1 0x2B DUP4 PUSH2 0x52EC JUMP JUMPDEST SWAP2 POP PUSH2 0x54E9 DUP3 PUSH2 0x5484 JUMP JUMPDEST PUSH1 0x40 DUP3 ADD SWAP1 POP SWAP2 SWAP1 POP JUMP JUMPDEST PUSH0 PUSH1 0x20 DUP3 ADD SWAP1 POP DUP2 DUP2 SUB PUSH0 DUP4 ADD MSTORE PUSH2 0x550B DUP2 PUSH2 0x54D2 JUMP JUMPDEST SWAP1 POP SWAP2 SWAP1 POP JUMP JUMPDEST PUSH2 0x551B DUP2 PUSH2 0x4EB6 JUMP JUMPDEST DUP3 MSTORE POP POP JUMP JUMPDEST PUSH2 0x552A DUP2 PUSH2 0x4EEC JUMP JUMPDEST DUP3 MSTORE POP POP JUMP JUMPDEST PUSH0 PUSH1 0xE0 DUP3 ADD SWAP1 POP PUSH2 0x5543 PUSH0 DUP4 ADD DUP11 PUSH2 0x4CB7 JUMP JUMPDEST PUSH2 0x5550 PUSH1 0x20 DUP4 ADD DUP10 PUSH2 0x4CB7 JUMP JUMPDEST PUSH2 0x555D PUSH1 0x40 DUP4 ADD DUP9 PUSH2 0x4A4A JUMP JUMPDEST PUSH2 0x556A PUSH1 0x60 DUP4 ADD DUP8 PUSH2 0x4A4A JUMP JUMPDEST PUSH2 0x5577 PUSH1 0x80 DUP4 ADD DUP7 PUSH2 0x5512 JUMP JUMPDEST PUSH2 0x5584 PUSH1 0xA0 DUP4 ADD DUP6 PUSH2 0x5521 JUMP JUMPDEST PUSH2 0x5591 PUSH1 0xC0 DUP4 ADD DUP5 PUSH2 0x5521 JUMP JUMPDEST SWAP9 SWAP8 POP POP POP POP POP POP POP POP JUMP JUMPDEST PUSH32 0x556E69737761705632526F757465723A204558434553534956455F494E505554 PUSH0 DUP3 ADD MSTORE PUSH32 0x5F414D4F554E5400000000000000000000000000000000000000000000000000 PUSH1 0x20 DUP3 ADD MSTORE POP JUMP JUMPDEST PUSH0 PUSH2 0x55F7 PUSH1 0x27 DUP4 PUSH2 0x52EC JUMP JUMPDEST SWAP2 POP PUSH2 0x5602 DUP3 PUSH2 0x559D JUMP JUMPDEST PUSH1 0x40 DUP3 ADD SWAP1 POP SWAP2 SWAP1 POP JUMP JUMPDEST PUSH0 PUSH1 0x20 DUP3 ADD SWAP1 POP DUP2 DUP2 SUB PUSH0 DUP4 ADD MSTORE PUSH2 0x5624 DUP2 PUSH2 0x55EB JUMP JUMPDEST SWAP1 POP SWAP2 SWAP1 POP JUMP JUMPDEST PUSH0 DUP2 MLOAD SWAP1 POP PUSH2 0x5639 DUP2 PUSH2 0x4997 JUMP JUMPDEST SWAP3 SWAP2 POP POP JUMP JUMPDEST PUSH0 PUSH1 0x20 DUP3 DUP5 SUB SLT ISZERO PUSH2 0x5654 JUMPI PUSH2 0x5653 PUSH2 0x492C JUMP JUMPDEST JUMPDEST PUSH0 PUSH2 0x5661 DUP5 DUP3 DUP6 ADD PUSH2 0x562B JUMP JUMPDEST SWAP2 POP POP SWAP3 SWAP2 POP POP JUMP JUMPDEST PUSH0 PUSH1 0x40 DUP3 ADD SWAP1 POP PUSH2 0x567D PUSH0 DUP4 ADD DUP6 PUSH2 0x4CB7 JUMP JUMPDEST PUSH2 0x568A PUSH1 0x20 DUP4 ADD DUP5 PUSH2 0x4A4A JUMP JUMPDEST SWAP4 SWAP3 POP POP POP JUMP JUMPDEST PUSH0 DUP2 MLOAD SWAP1 POP PUSH2 0x569F DUP2 PUSH2 0x4E8C JUMP JUMPDEST SWAP3 SWAP2 POP POP JUMP JUMPDEST PUSH0 PUSH1 0x20 DUP3 DUP5 SUB SLT ISZERO PUSH2 0x56BA JUMPI PUSH2 0x56B9 PUSH2 0x492C JUMP JUMPDEST JUMPDEST PUSH0 PUSH2 0x56C7 DUP5 DUP3 DUP6 ADD PUSH2 0x5691 JUMP JUMPDEST SWAP2 POP POP SWAP3 SWAP2 POP POP JUMP JUMPDEST PUSH0 PUSH1 0x60 DUP3 ADD SWAP1 POP PUSH2 0x56E3 PUSH0 DUP4 ADD DUP7 PUSH2 0x4CB7 JUMP JUMPDEST PUSH2 0x56F0 PUSH1 0x20 DUP4 ADD DUP6 PUSH2 0x4CB7 JUMP JUMPDEST PUSH2 0x56FD PUSH1 0x40 DUP4 ADD DUP5 PUSH2 0x4A4A JUMP JUMPDEST SWAP5 SWAP4 POP POP POP POP JUMP JUMPDEST PUSH0 DUP1 PUSH1 0x40 DUP4 DUP6 SUB SLT ISZERO PUSH2 0x571B JUMPI PUSH2 0x571A PUSH2 0x492C JUMP JUMPDEST JUMPDEST PUSH0 PUSH2 0x5728 DUP6 DUP3 DUP7 ADD PUSH2 0x562B JUMP JUMPDEST SWAP3 POP POP PUSH1 0x20 PUSH2 0x5739 DUP6 DUP3 DUP7 ADD PUSH2 0x562B JUMP JUMPDEST SWAP2 POP POP SWAP3 POP SWAP3 SWAP1 POP JUMP JUMPDEST PUSH32 0x556E69737761705632526F757465723A20494E53554646494349454E545F415F PUSH0 DUP3 ADD MSTORE PUSH32 0x414D4F554E540000000000000000000000000000000000000000000000000000 PUSH1 0x20 DUP3 ADD MSTORE POP JUMP JUMPDEST PUSH0 PUSH2 0x579D PUSH1 0x26 DUP4 PUSH2 0x52EC JUMP JUMPDEST SWAP2 POP PUSH2 0x57A8 DUP3 PUSH2 0x5743 JUMP JUMPDEST PUSH1 0x40 DUP3 ADD SWAP1 POP SWAP2 SWAP1 POP JUMP JUMPDEST PUSH0 PUSH1 0x20 DUP3 ADD SWAP1 POP DUP2 DUP2 SUB PUSH0 DUP4 ADD MSTORE PUSH2 0x57CA DUP2 PUSH2 0x5791 JUMP JUMPDEST SWAP1 POP SWAP2 SWAP1 POP JUMP JUMPDEST PUSH32 0x556E69737761705632526F757465723A20494E53554646494349454E545F425F PUSH0 DUP3 ADD MSTORE PUSH32 0x414D4F554E540000000000000000000000000000000000000000000000000000 PUSH1 0x20 DUP3 ADD MSTORE POP JUMP JUMPDEST PUSH0 PUSH2 0x582B PUSH1 0x26 DUP4 PUSH2 0x52EC JUMP JUMPDEST SWAP2 POP PUSH2 0x5836 DUP3 PUSH2 0x57D1 JUMP JUMPDEST PUSH1 0x40 DUP3 ADD SWAP1 POP SWAP2 SWAP1 POP JUMP JUMPDEST PUSH0 PUSH1 0x20 DUP3 ADD SWAP1 POP DUP2 DUP2 SUB PUSH0 DUP4 ADD MSTORE PUSH2 0x5858 DUP2 PUSH2 0x581F JUMP JUMPDEST SWAP1 POP SWAP2 SWAP1 POP JUMP JUMPDEST PUSH0 DUP2 MLOAD SWAP1 POP SWAP2 SWAP1 POP JUMP JUMPDEST PUSH0 DUP2 SWAP1 POP SWAP3 SWAP2 POP POP JUMP JUMPDEST PUSH0 JUMPDEST DUP4 DUP2 LT ISZERO PUSH2 0x5890 JUMPI DUP1 DUP3 ADD MLOAD DUP2 DUP5 ADD MSTORE PUSH1 0x20 DUP2 ADD SWAP1 POP PUSH2 0x5875 JUMP JUMPDEST PUSH0 DUP5 DUP5 ADD MSTORE POP POP POP POP JUMP JUMPDEST PUSH0 PUSH2 0x58A5 DUP3 PUSH2 0x585F JUMP JUMPDEST PUSH2 0x58AF DUP2 DUP6 PUSH2 0x5869 JUMP JUMPDEST SWAP4 POP PUSH2 0x58BF DUP2 DUP6 PUSH1 0x20 DUP7 ADD PUSH2 0x5873 JUMP JUMPDEST DUP1 DUP5 ADD SWAP2 POP POP SWAP3 SWAP2 POP POP JUMP JUMPDEST PUSH0 PUSH2 0x58D6 DUP3 DUP5 PUSH2 0x589B JUMP JUMPDEST SWAP2 POP DUP2 SWAP1 POP SWAP3 SWAP2 POP POP JUMP JUMPDEST PUSH32 0x5472616E7366657248656C7065723A205452414E534645525F4641494C454400 PUSH0 DUP3 ADD MSTORE POP JUMP JUMPDEST PUSH0 PUSH2 0x5915 PUSH1 0x1F DUP4 PUSH2 0x52EC JUMP JUMPDEST SWAP2 POP PUSH2 0x5920 DUP3 PUSH2 0x58E1 JUMP JUMPDEST PUSH1 0x20 DUP3 ADD SWAP1 POP SWAP2 SWAP1 POP JUMP JUMPDEST PUSH0 PUSH1 0x20 DUP3 ADD SWAP1 POP DUP2 DUP2 SUB PUSH0 DUP4 ADD MSTORE PUSH2 0x5942 DUP2 PUSH2 0x5909 JUMP JUMPDEST SWAP1 POP SWAP2 SWAP1 POP JUMP JUMPDEST PUSH32 0x5472616E7366657248656C7065723A204554485F5452414E534645525F464149 PUSH0 DUP3 ADD MSTORE PUSH32 0x4C45440000000000000000000000000000000000000000000000000000000000 PUSH1 0x20 DUP3 ADD MSTORE POP JUMP JUMPDEST PUSH0 PUSH2 0x59A3 PUSH1 0x23 DUP4 PUSH2 0x52EC JUMP JUMPDEST SWAP2 POP PUSH2 0x59AE DUP3 PUSH2 0x5949 JUMP JUMPDEST PUSH1 0x40 DUP3 ADD SWAP1 POP SWAP2 SWAP1 POP JUMP JUMPDEST PUSH0 PUSH1 0x20 DUP3 ADD SWAP1 POP DUP2 DUP2 SUB PUSH0 DUP4 ADD MSTORE PUSH2 0x59D0 DUP2 PUSH2 0x5997 JUMP JUMPDEST SWAP1 POP SWAP2 SWAP1 POP JUMP JUMPDEST PUSH32 0x556E697377617056324C6962726172793A20494E53554646494349454E545F49 PUSH0 DUP3 ADD MSTORE PUSH32 0x4E5055545F414D4F554E54000000000000000000000000000000000000000000 PUSH1 0x20 DUP3 ADD MSTORE POP JUMP JUMPDEST PUSH0 PUSH2 0x5A31 PUSH1 0x2B DUP4 PUSH2 0x52EC JUMP JUMPDEST SWAP2 POP PUSH2 0x5A3C DUP3 PUSH2 0x59D7 JUMP JUMPDEST PUSH1 0x40 DUP3 ADD SWAP1 POP SWAP2 SWAP1 POP JUMP JUMPDEST PUSH0 PUSH1 0x20 DUP3 ADD SWAP1 POP DUP2 DUP2 SUB PUSH0 DUP4 ADD MSTORE PUSH2 0x5A5E DUP2 PUSH2 0x5A25 JUMP JUMPDEST SWAP1 POP SWAP2 SWAP1 POP JUMP JUMPDEST PUSH32 0x556E697377617056324C6962726172793A20494E53554646494349454E545F4C PUSH0 DUP3 ADD MSTORE PUSH32 0x4951554944495459000000000000000000000000000000000000000000000000 PUSH1 0x20 DUP3 ADD MSTORE POP JUMP JUMPDEST PUSH0 PUSH2 0x5ABF PUSH1 0x28 DUP4 PUSH2 0x52EC JUMP JUMPDEST SWAP2 POP PUSH2 0x5ACA DUP3 PUSH2 0x5A65 JUMP JUMPDEST PUSH1 0x40 DUP3 ADD SWAP1 POP SWAP2 SWAP1 POP JUMP JUMPDEST PUSH0 PUSH1 0x20 DUP3 ADD SWAP1 POP DUP2 DUP2 SUB PUSH0 DUP4 ADD MSTORE PUSH2 0x5AEC DUP2 PUSH2 0x5AB3 JUMP JUMPDEST SWAP1 POP SWAP2 SWAP1 POP JUMP JUMPDEST PUSH32 0x4E487B7100000000000000000000000000000000000000000000000000000000 PUSH0 MSTORE PUSH1 0x12 PUSH1 0x4 MSTORE PUSH1 0x24 PUSH0 REVERT JUMPDEST PUSH0 PUSH2 0x5B2A DUP3 PUSH2 0x498E JUMP JUMPDEST SWAP2 POP PUSH2 0x5B35 DUP4 PUSH2 0x498E JUMP JUMPDEST SWAP3 POP DUP3 PUSH2 0x5B45 JUMPI PUSH2 0x5B44 PUSH2 0x5AF3 JUMP JUMPDEST JUMPDEST DUP3 DUP3 DIV SWAP1 POP SWAP3 SWAP2 POP POP JUMP JUMPDEST PUSH32 0x556E697377617056324C6962726172793A20494E56414C49445F504154480000 PUSH0 DUP3 ADD MSTORE POP JUMP JUMPDEST PUSH0 PUSH2 0x5B84 PUSH1 0x1E DUP4 PUSH2 0x52EC JUMP JUMPDEST SWAP2 POP PUSH2 0x5B8F DUP3 PUSH2 0x5B50 JUMP JUMPDEST PUSH1 0x20 DUP3 ADD SWAP1 POP SWAP2 SWAP1 POP JUMP JUMPDEST PUSH0 PUSH1 0x20 DUP3 ADD SWAP1 POP DUP2 DUP2 SUB PUSH0 DUP4 ADD MSTORE PUSH2 0x5BB1 DUP2 PUSH2 0x5B78 JUMP JUMPDEST SWAP1 POP SWAP2 SWAP1 POP JUMP JUMPDEST PUSH0 PUSH2 0x5BC2 DUP3 PUSH2 0x498E JUMP JUMPDEST SWAP2 POP PUSH2 0x5BCD DUP4 PUSH2 0x498E JUMP JUMPDEST SWAP3 POP DUP3 DUP3 ADD SWAP1 POP DUP1 DUP3 GT ISZERO PUSH2 0x5BE5 JUMPI PUSH2 0x5BE4 PUSH2 0x5364 JUMP JUMPDEST JUMPDEST SWAP3 SWAP2 POP POP JUMP JUMPDEST PUSH0 DUP2 PUSH1 0x60 SHL SWAP1 POP SWAP2 SWAP1 POP JUMP JUMPDEST PUSH0 PUSH2 0x5C01 DUP3 PUSH2 0x5BEB JUMP JUMPDEST SWAP1 POP SWAP2 SWAP1 POP JUMP JUMPDEST PUSH0 PUSH2 0x5C12 DUP3 PUSH2 0x5BF7 JUMP JUMPDEST SWAP1 POP SWAP2 SWAP1 POP JUMP JUMPDEST PUSH2 0x5C2A PUSH2 0x5C25 DUP3 PUSH2 0x4953 JUMP JUMPDEST PUSH2 0x5C08 JUMP JUMPDEST DUP3 MSTORE POP POP JUMP JUMPDEST PUSH0 PUSH2 0x5C3B DUP3 DUP6 PUSH2 0x5C19 JUMP JUMPDEST PUSH1 0x14 DUP3 ADD SWAP2 POP PUSH2 0x5C4B DUP3 DUP5 PUSH2 0x5C19 JUMP JUMPDEST PUSH1 0x14 DUP3 ADD SWAP2 POP DUP2 SWAP1 POP SWAP4 SWAP3 POP POP POP JUMP JUMPDEST PUSH0 DUP2 SWAP1 POP SWAP3 SWAP2 POP POP JUMP JUMPDEST PUSH32 0xFF00000000000000000000000000000000000000000000000000000000000000 PUSH0 DUP3 ADD MSTORE POP JUMP JUMPDEST PUSH0 PUSH2 0x5C99 PUSH1 0x1 DUP4 PUSH2 0x5C5B JUMP JUMPDEST SWAP2 POP PUSH2 0x5CA4 DUP3 PUSH2 0x5C65 JUMP JUMPDEST PUSH1 0x1 DUP3 ADD SWAP1 POP SWAP2 SWAP1 POP JUMP JUMPDEST PUSH0 DUP2 SWAP1 POP SWAP2 SWAP1 POP JUMP JUMPDEST PUSH2 0x5CC9 PUSH2 0x5CC4 DUP3 PUSH2 0x4EEC JUMP JUMPDEST PUSH2 0x5CAF JUMP JUMPDEST DUP3 MSTORE POP POP JUMP JUMPDEST PUSH32 0x26DA40876F0D034549364EBF9C030E3EFD7F8E80A2F7E31A4E5A8514F1726850 PUSH0 DUP3 ADD MSTORE POP JUMP JUMPDEST PUSH0 PUSH2 0x5D03 PUSH1 0x20 DUP4 PUSH2 0x5C5B JUMP JUMPDEST SWAP2 POP PUSH2 0x5D0E DUP3 PUSH2 0x5CCF JUMP JUMPDEST PUSH1 0x20 DUP3 ADD SWAP1 POP SWAP2 SWAP1 POP JUMP JUMPDEST PUSH0 PUSH2 0x5D23 DUP3 PUSH2 0x5C8D JUMP JUMPDEST SWAP2 POP PUSH2 0x5D2F DUP3 DUP6 PUSH2 0x5C19 JUMP JUMPDEST PUSH1 0x14 DUP3 ADD SWAP2 POP PUSH2 0x5D3F DUP3 DUP5 PUSH2 0x5CB8 JUMP JUMPDEST PUSH1 0x20 DUP3 ADD SWAP2 POP PUSH2 0x5D4E DUP3 PUSH2 0x5CF7 JUMP JUMPDEST SWAP2 POP DUP2 SWAP1 POP SWAP4 SWAP3 POP POP POP JUMP JUMPDEST PUSH32 0x5472616E7366657248656C7065723A205452414E534645525F46524F4D5F4641 PUSH0 DUP3 ADD MSTORE PUSH32 0x494C454400000000000000000000000000000000000000000000000000000000 PUSH1 0x20 DUP3 ADD MSTORE POP JUMP JUMPDEST PUSH0 PUSH2 0x5DB4 PUSH1 0x24 DUP4 PUSH2 0x52EC JUMP JUMPDEST SWAP2 POP PUSH2 0x5DBF DUP3 PUSH2 0x5D5A JUMP JUMPDEST PUSH1 0x40 DUP3 ADD SWAP1 POP SWAP2 SWAP1 POP JUMP JUMPDEST PUSH0 PUSH1 0x20 DUP3 ADD SWAP1 POP DUP2 DUP2 SUB PUSH0 DUP4 ADD MSTORE PUSH2 0x5DE1 DUP2 PUSH2 0x5DA8 JUMP JUMPDEST SWAP1 POP SWAP2 SWAP1 POP JUMP JUMPDEST PUSH0 DUP3 DUP3 MSTORE PUSH1 0x20 DUP3 ADD SWAP1 POP SWAP3 SWAP2 POP POP JUMP JUMPDEST PUSH0 PUSH2 0x5E02 DUP3 PUSH2 0x585F JUMP JUMPDEST PUSH2 0x5E0C DUP2 DUP6 PUSH2 0x5DE8 JUMP JUMPDEST SWAP4 POP PUSH2 0x5E1C DUP2 DUP6 PUSH1 0x20 DUP7 ADD PUSH2 0x5873 JUMP JUMPDEST PUSH2 0x5E25 DUP2 PUSH2 0x4CDF JUMP JUMPDEST DUP5 ADD SWAP2 POP POP SWAP3 SWAP2 POP POP JUMP JUMPDEST PUSH0 PUSH1 0x80 DUP3 ADD SWAP1 POP PUSH2 0x5E43 PUSH0 DUP4 ADD DUP8 PUSH2 0x4A4A JUMP JUMPDEST PUSH2 0x5E50 PUSH1 0x20 DUP4 ADD DUP7 PUSH2 0x4A4A JUMP JUMPDEST PUSH2 0x5E5D PUSH1 0x40 DUP4 ADD DUP6 PUSH2 0x4CB7 JUMP JUMPDEST DUP2 DUP2 SUB PUSH1 0x60 DUP4 ADD MSTORE PUSH2 0x5E6F DUP2 DUP5 PUSH2 0x5DF8 JUMP JUMPDEST SWAP1 POP SWAP6 SWAP5 POP POP POP POP POP JUMP JUMPDEST PUSH0 PUSH2 0x5E84 DUP3 PUSH2 0x498E JUMP JUMPDEST SWAP2 POP PUSH0 DUP3 SUB PUSH2 0x5E96 JUMPI PUSH2 0x5E95 PUSH2 0x5364 JUMP JUMPDEST JUMPDEST PUSH1 0x1 DUP3 SUB SWAP1 POP SWAP2 SWAP1 POP JUMP JUMPDEST PUSH0 PUSH14 0xFFFFFFFFFFFFFFFFFFFFFFFFFFFF DUP3 AND SWAP1 POP SWAP2 SWAP1 POP JUMP JUMPDEST PUSH2 0x5EC3 DUP2 PUSH2 0x5EA1 JUMP JUMPDEST DUP2 EQ PUSH2 0x5ECD JUMPI PUSH0 DUP1 REVERT JUMPDEST POP JUMP JUMPDEST PUSH0 DUP2 MLOAD SWAP1 POP PUSH2 0x5EDE DUP2 PUSH2 0x5EBA JUMP JUMPDEST SWAP3 SWAP2 POP POP JUMP JUMPDEST PUSH0 PUSH4 0xFFFFFFFF DUP3 AND SWAP1 POP SWAP2 SWAP1 POP JUMP JUMPDEST PUSH2 0x5EFC DUP2 PUSH2 0x5EE4 JUMP JUMPDEST DUP2 EQ PUSH2 0x5F06 JUMPI PUSH0 DUP1 REVERT JUMPDEST POP JUMP JUMPDEST PUSH0 DUP2 MLOAD SWAP1 POP PUSH2 0x5F17 DUP2 PUSH2 0x5EF3 JUMP JUMPDEST SWAP3 SWAP2 POP POP JUMP JUMPDEST PUSH0 DUP1 PUSH0 PUSH1 0x60 DUP5 DUP7 SUB SLT ISZERO PUSH2 0x5F34 JUMPI PUSH2 0x5F33 PUSH2 0x492C JUMP JUMPDEST JUMPDEST PUSH0 PUSH2 0x5F41 DUP7 DUP3 DUP8 ADD PUSH2 0x5ED0 JUMP JUMPDEST SWAP4 POP POP PUSH1 0x20 PUSH2 0x5F52 DUP7 DUP3 DUP8 ADD PUSH2 0x5ED0 JUMP JUMPDEST SWAP3 POP POP PUSH1 0x40 PUSH2 0x5F63 DUP7 DUP3 DUP8 ADD PUSH2 0x5F09 JUMP JUMPDEST SWAP2 POP POP SWAP3 POP SWAP3 POP SWAP3 JUMP JUMPDEST PUSH32 0x64732D6D6174682D7375622D756E646572666C6F770000000000000000000000 PUSH0 DUP3 ADD MSTORE POP JUMP JUMPDEST PUSH0 PUSH2 0x5FA1 PUSH1 0x15 DUP4 PUSH2 0x52EC JUMP JUMPDEST SWAP2 POP PUSH2 0x5FAC DUP3 PUSH2 0x5F6D JUMP JUMPDEST PUSH1 0x20 DUP3 ADD SWAP1 POP SWAP2 SWAP1 POP JUMP JUMPDEST PUSH0 PUSH1 0x20 DUP3 ADD SWAP1 POP DUP2 DUP2 SUB PUSH0 DUP4 ADD MSTORE PUSH2 0x5FCE DUP2 PUSH2 0x5F95 JUMP JUMPDEST SWAP1 POP SWAP2 SWAP1 POP JUMP JUMPDEST PUSH32 0x556E697377617056324C6962726172793A20494E53554646494349454E545F4F PUSH0 DUP3 ADD MSTORE PUSH32 0x55545055545F414D4F554E540000000000000000000000000000000000000000 PUSH1 0x20 DUP3 ADD MSTORE POP JUMP JUMPDEST PUSH0 PUSH2 0x602F PUSH1 0x2C DUP4 PUSH2 0x52EC JUMP JUMPDEST SWAP2 POP PUSH2 0x603A DUP3 PUSH2 0x5FD5 JUMP JUMPDEST PUSH1 0x40 DUP3 ADD SWAP1 POP SWAP2 SWAP1 POP JUMP JUMPDEST PUSH0 PUSH1 0x20 DUP3 ADD SWAP1 POP DUP2 DUP2 SUB PUSH0 DUP4 ADD MSTORE PUSH2 0x605C DUP2 PUSH2 0x6023 JUMP JUMPDEST SWAP1 POP SWAP2 SWAP1 POP JUMP JUMPDEST PUSH32 0x556E697377617056324C6962726172793A20494E53554646494349454E545F41 PUSH0 DUP3 ADD MSTORE PUSH32 0x4D4F554E54000000000000000000000000000000000000000000000000000000 PUSH1 0x20 DUP3 ADD MSTORE POP JUMP JUMPDEST PUSH0 PUSH2 0x60BD PUSH1 0x25 DUP4 PUSH2 0x52EC JUMP JUMPDEST SWAP2 POP PUSH2 0x60C8 DUP3 PUSH2 0x6063 JUMP JUMPDEST PUSH1 0x40 DUP3 ADD SWAP1 POP SWAP2 SWAP1 POP JUMP JUMPDEST PUSH0 PUSH1 0x20 DUP3 ADD SWAP1 POP DUP2 DUP2 SUB PUSH0 DUP4 ADD MSTORE PUSH2 0x60EA DUP2 PUSH2 0x60B1 JUMP JUMPDEST SWAP1 POP SWAP2 SWAP1 POP JUMP JUMPDEST PUSH32 0x556E697377617056324C6962726172793A204944454E544943414C5F41444452 PUSH0 DUP3 ADD MSTORE PUSH32 0x4553534553000000000000000000000000000000000000000000000000000000 PUSH1 0x20 DUP3 ADD MSTORE POP JUMP JUMPDEST PUSH0 PUSH2 0x614B PUSH1 0x25 DUP4 PUSH2 0x52EC JUMP JUMPDEST SWAP2 POP PUSH2 0x6156 DUP3 PUSH2 0x60F1 JUMP JUMPDEST PUSH1 0x40 DUP3 ADD SWAP1 POP SWAP2 SWAP1 POP JUMP JUMPDEST PUSH0 PUSH1 0x20 DUP3 ADD SWAP1 POP DUP2 DUP2 SUB PUSH0 DUP4 ADD MSTORE PUSH2 0x6178 DUP2 PUSH2 0x613F JUMP JUMPDEST SWAP1 POP SWAP2 SWAP1 POP JUMP JUMPDEST PUSH32 0x556E697377617056324C6962726172793A205A45524F5F414444524553530000 PUSH0 DUP3 ADD MSTORE POP JUMP JUMPDEST PUSH0 PUSH2 0x61B3 PUSH1 0x1E DUP4 PUSH2 0x52EC JUMP JUMPDEST SWAP2 POP PUSH2 0x61BE DUP3 PUSH2 0x617F JUMP JUMPDEST PUSH1 0x20 DUP3 ADD SWAP1 POP SWAP2 SWAP1 POP JUMP JUMPDEST PUSH0 PUSH1 0x20 DUP3 ADD SWAP1 POP DUP2 DUP2 SUB PUSH0 DUP4 ADD MSTORE PUSH2 0x61E0 DUP2 PUSH2 0x61A7 JUMP JUMPDEST SWAP1 POP SWAP2 SWAP1 POP JUMP JUMPDEST PUSH0 PUSH1 0x40 DUP3 ADD SWAP1 POP PUSH2 0x61FA PUSH0 DUP4 ADD DUP6 PUSH2 0x4CB7 JUMP JUMPDEST PUSH2 0x6207 PUSH1 0x20 DUP4 ADD DUP5 PUSH2 0x4CB7 JUMP JUMPDEST SWAP4 SWAP3 POP POP POP JUMP JUMPDEST PUSH0 DUP2 MLOAD SWAP1 POP PUSH2 0x621C DUP2 PUSH2 0x4964 JUMP JUMPDEST SWAP3 SWAP2 POP POP JUMP JUMPDEST PUSH0 PUSH1 0x20 DUP3 DUP5 SUB SLT ISZERO PUSH2 0x6237 JUMPI PUSH2 0x6236 PUSH2 0x492C JUMP JUMPDEST JUMPDEST PUSH0 PUSH2 0x6244 DUP5 DUP3 DUP6 ADD PUSH2 0x620E JUMP JUMPDEST SWAP2 POP POP SWAP3 SWAP2 POP POP JUMP JUMPDEST PUSH0 PUSH2 0x6257 DUP3 PUSH2 0x498E JUMP JUMPDEST SWAP2 POP PUSH2 0x6262 DUP4 PUSH2 0x498E JUMP JUMPDEST SWAP3 POP DUP3 DUP3 MUL PUSH2 0x6270 DUP2 PUSH2 0x498E JUMP JUMPDEST SWAP2 POP DUP3 DUP3 DIV DUP5 EQ DUP4 ISZERO OR PUSH2 0x6287 JUMPI PUSH2 0x6286 PUSH2 0x5364 JUMP JUMPDEST JUMPDEST POP SWAP3 SWAP2 POP POP JUMP JUMPDEST PUSH32 0x64732D6D6174682D6D756C2D6F766572666C6F77000000000000000000000000 PUSH0 DUP3 ADD MSTORE POP JUMP JUMPDEST PUSH0 PUSH2 0x62C2 PUSH1 0x14 DUP4 PUSH2 0x52EC JUMP JUMPDEST SWAP2 POP PUSH2 0x62CD DUP3 PUSH2 0x628E JUMP JUMPDEST PUSH1 0x20 DUP3 ADD SWAP1 POP SWAP2 SWAP1 POP JUMP JUMPDEST PUSH0 PUSH1 0x20 DUP3 ADD SWAP1 POP DUP2 DUP2 SUB PUSH0 DUP4 ADD MSTORE PUSH2 0x62EF DUP2 PUSH2 0x62B6 JUMP JUMPDEST SWAP1 POP SWAP2 SWAP1 POP JUMP JUMPDEST PUSH32 0x64732D6D6174682D6164642D6F766572666C6F77000000000000000000000000 PUSH0 DUP3 ADD MSTORE POP JUMP JUMPDEST PUSH0 PUSH2 0x632A PUSH1 0x14 DUP4 PUSH2 0x52EC JUMP JUMPDEST SWAP2 POP PUSH2 0x6335 DUP3 PUSH2 0x62F6 JUMP JUMPDEST PUSH1 0x20 DUP3 ADD SWAP1 POP SWAP2 SWAP1 POP JUMP JUMPDEST PUSH0 PUSH1 0x20 DUP3 ADD SWAP1 POP DUP2 DUP2 SUB PUSH0 DUP4 ADD MSTORE PUSH2 0x6357 DUP2 PUSH2 0x631E JUMP JUMPDEST SWAP1 POP SWAP2 SWAP1 POP JUMP INVALID LOG2 PUSH5 0x6970667358 0x22 SLT KECCAK256 MSIZE OR COINBASE 0xC2 0xD2 DUP13 DIV PUSH30 0xADC6FD3C29580B567FCDD5C2847F15004C97C5F168BEDD6264736F6C6343 STOP ADDMOD XOR STOP CALLER "
		},
		"gasEstimates": {
			"creation": {
				"codeDepositCost": "5098400",
				"executionCost": "infinite",
				"totalCost": "infinite"
			},
			"external": {
				"WETH()": "infinite",
				"addLiquidity(address,address,uint256,uint256,uint256,uint256,address,uint256)": "infinite",
				"addLiquidityETH(address,uint256,uint256,uint256,address,uint256)": "infinite",
				"factory()": "infinite",
				"getAmountIn(uint256,uint256,uint256)": "infinite",
				"getAmountOut(uint256,uint256,uint256)": "infinite",
				"getAmountsIn(uint256,address[])": "infinite",
				"getAmountsOut(uint256,address[])": "infinite",
				"getWETHAddr()": "infinite",
				"quote(uint256,uint256,uint256)": "infinite",
				"removeLiquidity(address,address,uint256,uint256,uint256,address,uint256)": "infinite",
				"removeLiquidityETH(address,uint256,uint256,uint256,address,uint256)": "infinite",
				"removeLiquidityETHSupportingFeeOnTransferTokens(address,uint256,uint256,uint256,address,uint256)": "infinite",
				"removeLiquidityETHWithPermit(address,uint256,uint256,uint256,address,uint256,bool,uint8,bytes32,bytes32)": "infinite",
				"removeLiquidityETHWithPermitSupportingFeeOnTransferTokens(address,uint256,uint256,uint256,address,uint256,bool,uint8,bytes32,bytes32)": "infinite",
				"removeLiquidityWithPermit(address,address,uint256,uint256,uint256,address,uint256,bool,uint8,bytes32,bytes32)": "infinite",
				"swapETHForExactTokens(uint256,address[],address,uint256)": "infinite",
				"swapExactETHForTokens(uint256,address[],address,uint256)": "infinite",
				"swapExactETHForTokensSupportingFeeOnTransferTokens(uint256,address[],address,uint256)": "infinite",
				"swapExactTokensForETH(uint256,uint256,address[],address,uint256)": "infinite",
				"swapExactTokensForETHSupportingFeeOnTransferTokens(uint256,uint256,address[],address,uint256)": "infinite",
				"swapExactTokensForTokens(uint256,uint256,address[],address,uint256)": "infinite",
				"swapExactTokensForTokensSupportingFeeOnTransferTokens(uint256,uint256,address[],address,uint256)": "infinite",
				"swapTokensForExactETH(uint256,uint256,address[],address,uint256)": "infinite",
				"swapTokensForExactTokens(uint256,uint256,address[],address,uint256)": "infinite"
			},
			"internal": {
				"_addLiquidity(address,address,uint256,uint256,uint256,uint256)": "infinite",
				"_swap(uint256[] memory,address[] memory,address)": "infinite",
				"_swapSupportingFeeOnTransferTokens(address[] memory,address)": "infinite"
			}
		},
		"methodIdentifiers": {
			"WETH()": "ad5c4648",
			"addLiquidity(address,address,uint256,uint256,uint256,uint256,address,uint256)": "e8e33700",
			"addLiquidityETH(address,uint256,uint256,uint256,address,uint256)": "f305d719",
			"factory()": "c45a0155",
			"getAmountIn(uint256,uint256,uint256)": "85f8c259",
			"getAmountOut(uint256,uint256,uint256)": "054d50d4",
			"getAmountsIn(uint256,address[])": "1f00ca74",
			"getAmountsOut(uint256,address[])": "d06ca61f",
			"getWETHAddr()": "1bad4d2c",
			"quote(uint256,uint256,uint256)": "ad615dec",
			"removeLiquidity(address,address,uint256,uint256,uint256,address,uint256)": "baa2abde",
			"removeLiquidityETH(address,uint256,uint256,uint256,address,uint256)": "02751cec",
			"removeLiquidityETHSupportingFeeOnTransferTokens(address,uint256,uint256,uint256,address,uint256)": "af2979eb",
			"removeLiquidityETHWithPermit(address,uint256,uint256,uint256,address,uint256,bool,uint8,bytes32,bytes32)": "ded9382a",
			"removeLiquidityETHWithPermitSupportingFeeOnTransferTokens(address,uint256,uint256,uint256,address,uint256,bool,uint8,bytes32,bytes32)": "5b0d5984",
			"removeLiquidityWithPermit(address,address,uint256,uint256,uint256,address,uint256,bool,uint8,bytes32,bytes32)": "2195995c",
			"swapETHForExactTokens(uint256,address[],address,uint256)": "fb3bdb41",
			"swapExactETHForTokens(uint256,address[],address,uint256)": "7ff36ab5",
			"swapExactETHForTokensSupportingFeeOnTransferTokens(uint256,address[],address,uint256)": "b6f9de95",
			"swapExactTokensForETH(uint256,uint256,address[],address,uint256)": "18cbafe5",
			"swapExactTokensForETHSupportingFeeOnTransferTokens(uint256,uint256,address[],address,uint256)": "791ac947",
			"swapExactTokensForTokens(uint256,uint256,address[],address,uint256)": "38ed1739",
			"swapExactTokensForTokensSupportingFeeOnTransferTokens(uint256,uint256,address[],address,uint256)": "5c11d795",
			"swapTokensForExactETH(uint256,uint256,address[],address,uint256)": "4a25d94a",
			"swapTokensForExactTokens(uint256,uint256,address[],address,uint256)": "8803dbee"
		}
	},
	"abi": [
		{
			"inputs": [
				{
					"internalType": "address",
					"name": "_factory",
					"type": "address"
				},
				{
					"internalType": "address",
					"name": "_WETH",
					"type": "address"
				}
			],
			"stateMutability": "nonpayable",
			"type": "constructor"
		},
		{
			"inputs": [],
			"name": "WETH",
			"outputs": [
				{
					"internalType": "address",
					"name": "",
					"type": "address"
				}
			],
			"stateMutability": "view",
			"type": "function"
		},
		{
			"inputs": [
				{
					"internalType": "address",
					"name": "tokenA",
					"type": "address"
				},
				{
					"internalType": "address",
					"name": "tokenB",
					"type": "address"
				},
				{
					"internalType": "uint256",
					"name": "amountADesired",
					"type": "uint256"
				},
				{
					"internalType": "uint256",
					"name": "amountBDesired",
					"type": "uint256"
				},
				{
					"internalType": "uint256",
					"name": "amountAMin",
					"type": "uint256"
				},
				{
					"internalType": "uint256",
					"name": "amountBMin",
					"type": "uint256"
				},
				{
					"internalType": "address",
					"name": "to",
					"type": "address"
				},
				{
					"internalType": "uint256",
					"name": "deadline",
					"type": "uint256"
				}
			],
			"name": "addLiquidity",
			"outputs": [
				{
					"internalType": "uint256",
					"name": "amountA",
					"type": "uint256"
				},
				{
					"internalType": "uint256",
					"name": "amountB",
					"type": "uint256"
				},
				{
					"internalType": "uint256",
					"name": "liquidity",
					"type": "uint256"
				}
			],
			"stateMutability": "nonpayable",
			"type": "function"
		},
		{
			"inputs": [
				{
					"internalType": "address",
					"name": "token",
					"type": "address"
				},
				{
					"internalType": "uint256",
					"name": "amountTokenDesired",
					"type": "uint256"
				},
				{
					"internalType": "uint256",
					"name": "amountTokenMin",
					"type": "uint256"
				},
				{
					"internalType": "uint256",
					"name": "amountETHMin",
					"type": "uint256"
				},
				{
					"internalType": "address",
					"name": "to",
					"type": "address"
				},
				{
					"internalType": "uint256",
					"name": "deadline",
					"type": "uint256"
				}
			],
			"name": "addLiquidityETH",
			"outputs": [
				{
					"internalType": "uint256",
					"name": "amountToken",
					"type": "uint256"
				},
				{
					"internalType": "uint256",
					"name": "amountETH",
					"type": "uint256"
				},
				{
					"internalType": "uint256",
					"name": "liquidity",
					"type": "uint256"
				}
			],
			"stateMutability": "payable",
			"type": "function"
		},
		{
			"inputs": [],
			"name": "factory",
			"outputs": [
				{
					"internalType": "address",
					"name": "",
					"type": "address"
				}
			],
			"stateMutability": "view",
			"type": "function"
		},
		{
			"inputs": [
				{
					"internalType": "uint256",
					"name": "amountOut",
					"type": "uint256"
				},
				{
					"internalType": "uint256",
					"name": "reserveIn",
					"type": "uint256"
				},
				{
					"internalType": "uint256",
					"name": "reserveOut",
					"type": "uint256"
				}
			],
			"name": "getAmountIn",
			"outputs": [
				{
					"internalType": "uint256",
					"name": "amountIn",
					"type": "uint256"
				}
			],
			"stateMutability": "pure",
			"type": "function"
		},
		{
			"inputs": [
				{
					"internalType": "uint256",
					"name": "amountIn",
					"type": "uint256"
				},
				{
					"internalType": "uint256",
					"name": "reserveIn",
					"type": "uint256"
				},
				{
					"internalType": "uint256",
					"name": "reserveOut",
					"type": "uint256"
				}
			],
			"name": "getAmountOut",
			"outputs": [
				{
					"internalType": "uint256",
					"name": "amountOut",
					"type": "uint256"
				}
			],
			"stateMutability": "pure",
			"type": "function"
		},
		{
			"inputs": [
				{
					"internalType": "uint256",
					"name": "amountOut",
					"type": "uint256"
				},
				{
					"internalType": "address[]",
					"name": "path",
					"type": "address[]"
				}
			],
			"name": "getAmountsIn",
			"outputs": [
				{
					"internalType": "uint256[]",
					"name": "amounts",
					"type": "uint256[]"
				}
			],
			"stateMutability": "view",
			"type": "function"
		},
		{
			"inputs": [
				{
					"internalType": "uint256",
					"name": "amountIn",
					"type": "uint256"
				},
				{
					"internalType": "address[]",
					"name": "path",
					"type": "address[]"
				}
			],
			"name": "getAmountsOut",
			"outputs": [
				{
					"internalType": "uint256[]",
					"name": "amounts",
					"type": "uint256[]"
				}
			],
			"stateMutability": "view",
			"type": "function"
		},
		{
			"inputs": [],
			"name": "getWETHAddr",
			"outputs": [
				{
					"internalType": "address",
					"name": "",
					"type": "address"
				}
			],
			"stateMutability": "view",
			"type": "function"
		},
		{
			"inputs": [
				{
					"internalType": "uint256",
					"name": "amountA",
					"type": "uint256"
				},
				{
					"internalType": "uint256",
					"name": "reserveA",
					"type": "uint256"
				},
				{
					"internalType": "uint256",
					"name": "reserveB",
					"type": "uint256"
				}
			],
			"name": "quote",
			"outputs": [
				{
					"internalType": "uint256",
					"name": "amountB",
					"type": "uint256"
				}
			],
			"stateMutability": "pure",
			"type": "function"
		},
		{
			"inputs": [
				{
					"internalType": "address",
					"name": "tokenA",
					"type": "address"
				},
				{
					"internalType": "address",
					"name": "tokenB",
					"type": "address"
				},
				{
					"internalType": "uint256",
					"name": "liquidity",
					"type": "uint256"
				},
				{
					"internalType": "uint256",
					"name": "amountAMin",
					"type": "uint256"
				},
				{
					"internalType": "uint256",
					"name": "amountBMin",
					"type": "uint256"
				},
				{
					"internalType": "address",
					"name": "to",
					"type": "address"
				},
				{
					"internalType": "uint256",
					"name": "deadline",
					"type": "uint256"
				}
			],
			"name": "removeLiquidity",
			"outputs": [
				{
					"internalType": "uint256",
					"name": "amountA",
					"type": "uint256"
				},
				{
					"internalType": "uint256",
					"name": "amountB",
					"type": "uint256"
				}
			],
			"stateMutability": "nonpayable",
			"type": "function"
		},
		{
			"inputs": [
				{
					"internalType": "address",
					"name": "token",
					"type": "address"
				},
				{
					"internalType": "uint256",
					"name": "liquidity",
					"type": "uint256"
				},
				{
					"internalType": "uint256",
					"name": "amountTokenMin",
					"type": "uint256"
				},
				{
					"internalType": "uint256",
					"name": "amountETHMin",
					"type": "uint256"
				},
				{
					"internalType": "address",
					"name": "to",
					"type": "address"
				},
				{
					"internalType": "uint256",
					"name": "deadline",
					"type": "uint256"
				}
			],
			"name": "removeLiquidityETH",
			"outputs": [
				{
					"internalType": "uint256",
					"name": "amountToken",
					"type": "uint256"
				},
				{
					"internalType": "uint256",
					"name": "amountETH",
					"type": "uint256"
				}
			],
			"stateMutability": "nonpayable",
			"type": "function"
		},
		{
			"inputs": [
				{
					"internalType": "address",
					"name": "token",
					"type": "address"
				},
				{
					"internalType": "uint256",
					"name": "liquidity",
					"type": "uint256"
				},
				{
					"internalType": "uint256",
					"name": "amountTokenMin",
					"type": "uint256"
				},
				{
					"internalType": "uint256",
					"name": "amountETHMin",
					"type": "uint256"
				},
				{
					"internalType": "address",
					"name": "to",
					"type": "address"
				},
				{
					"internalType": "uint256",
					"name": "deadline",
					"type": "uint256"
				}
			],
			"name": "removeLiquidityETHSupportingFeeOnTransferTokens",
			"outputs": [
				{
					"internalType": "uint256",
					"name": "amountETH",
					"type": "uint256"
				}
			],
			"stateMutability": "nonpayable",
			"type": "function"
		},
		{
			"inputs": [
				{
					"internalType": "address",
					"name": "token",
					"type": "address"
				},
				{
					"internalType": "uint256",
					"name": "liquidity",
					"type": "uint256"
				},
				{
					"internalType": "uint256",
					"name": "amountTokenMin",
					"type": "uint256"
				},
				{
					"internalType": "uint256",
					"name": "amountETHMin",
					"type": "uint256"
				},
				{
					"internalType": "address",
					"name": "to",
					"type": "address"
				},
				{
					"internalType": "uint256",
					"name": "deadline",
					"type": "uint256"
				},
				{
					"internalType": "bool",
					"name": "approveMax",
					"type": "bool"
				},
				{
					"internalType": "uint8",
					"name": "v",
					"type": "uint8"
				},
				{
					"internalType": "bytes32",
					"name": "r",
					"type": "bytes32"
				},
				{
					"internalType": "bytes32",
					"name": "s",
					"type": "bytes32"
				}
			],
			"name": "removeLiquidityETHWithPermit",
			"outputs": [
				{
					"internalType": "uint256",
					"name": "amountToken",
					"type": "uint256"
				},
				{
					"internalType": "uint256",
					"name": "amountETH",
					"type": "uint256"
				}
			],
			"stateMutability": "nonpayable",
			"type": "function"
		},
		{
			"inputs": [
				{
					"internalType": "address",
					"name": "token",
					"type": "address"
				},
				{
					"internalType": "uint256",
					"name": "liquidity",
					"type": "uint256"
				},
				{
					"internalType": "uint256",
					"name": "amountTokenMin",
					"type": "uint256"
				},
				{
					"internalType": "uint256",
					"name": "amountETHMin",
					"type": "uint256"
				},
				{
					"internalType": "address",
					"name": "to",
					"type": "address"
				},
				{
					"internalType": "uint256",
					"name": "deadline",
					"type": "uint256"
				},
				{
					"internalType": "bool",
					"name": "approveMax",
					"type": "bool"
				},
				{
					"internalType": "uint8",
					"name": "v",
					"type": "uint8"
				},
				{
					"internalType": "bytes32",
					"name": "r",
					"type": "bytes32"
				},
				{
					"internalType": "bytes32",
					"name": "s",
					"type": "bytes32"
				}
			],
			"name": "removeLiquidityETHWithPermitSupportingFeeOnTransferTokens",
			"outputs": [
				{
					"internalType": "uint256",
					"name": "amountETH",
					"type": "uint256"
				}
			],
			"stateMutability": "nonpayable",
			"type": "function"
		},
		{
			"inputs": [
				{
					"internalType": "address",
					"name": "tokenA",
					"type": "address"
				},
				{
					"internalType": "address",
					"name": "tokenB",
					"type": "address"
				},
				{
					"internalType": "uint256",
					"name": "liquidity",
					"type": "uint256"
				},
				{
					"internalType": "uint256",
					"name": "amountAMin",
					"type": "uint256"
				},
				{
					"internalType": "uint256",
					"name": "amountBMin",
					"type": "uint256"
				},
				{
					"internalType": "address",
					"name": "to",
					"type": "address"
				},
				{
					"internalType": "uint256",
					"name": "deadline",
					"type": "uint256"
				},
				{
					"internalType": "bool",
					"name": "approveMax",
					"type": "bool"
				},
				{
					"internalType": "uint8",
					"name": "v",
					"type": "uint8"
				},
				{
					"internalType": "bytes32",
					"name": "r",
					"type": "bytes32"
				},
				{
					"internalType": "bytes32",
					"name": "s",
					"type": "bytes32"
				}
			],
			"name": "removeLiquidityWithPermit",
			"outputs": [
				{
					"internalType": "uint256",
					"name": "amountA",
					"type": "uint256"
				},
				{
					"internalType": "uint256",
					"name": "amountB",
					"type": "uint256"
				}
			],
			"stateMutability": "nonpayable",
			"type": "function"
		},
		{
			"inputs": [
				{
					"internalType": "uint256",
					"name": "amountOut",
					"type": "uint256"
				},
				{
					"internalType": "address[]",
					"name": "path",
					"type": "address[]"
				},
				{
					"internalType": "address",
					"name": "to",
					"type": "address"
				},
				{
					"internalType": "uint256",
					"name": "deadline",
					"type": "uint256"
				}
			],
			"name": "swapETHForExactTokens",
			"outputs": [
				{
					"internalType": "uint256[]",
					"name": "amounts",
					"type": "uint256[]"
				}
			],
			"stateMutability": "payable",
			"type": "function"
		},
		{
			"inputs": [
				{
					"internalType": "uint256",
					"name": "amountOutMin",
					"type": "uint256"
				},
				{
					"internalType": "address[]",
					"name": "path",
					"type": "address[]"
				},
				{
					"internalType": "address",
					"name": "to",
					"type": "address"
				},
				{
					"internalType": "uint256",
					"name": "deadline",
					"type": "uint256"
				}
			],
			"name": "swapExactETHForTokens",
			"outputs": [
				{
					"internalType": "uint256[]",
					"name": "amounts",
					"type": "uint256[]"
				}
			],
			"stateMutability": "payable",
			"type": "function"
		},
		{
			"inputs": [
				{
					"internalType": "uint256",
					"name": "amountOutMin",
					"type": "uint256"
				},
				{
					"internalType": "address[]",
					"name": "path",
					"type": "address[]"
				},
				{
					"internalType": "address",
					"name": "to",
					"type": "address"
				},
				{
					"internalType": "uint256",
					"name": "deadline",
					"type": "uint256"
				}
			],
			"name": "swapExactETHForTokensSupportingFeeOnTransferTokens",
			"outputs": [],
			"stateMutability": "payable",
			"type": "function"
		},
		{
			"inputs": [
				{
					"internalType": "uint256",
					"name": "amountIn",
					"type": "uint256"
				},
				{
					"internalType": "uint256",
					"name": "amountOutMin",
					"type": "uint256"
				},
				{
					"internalType": "address[]",
					"name": "path",
					"type": "address[]"
				},
				{
					"internalType": "address",
					"name": "to",
					"type": "address"
				},
				{
					"internalType": "uint256",
					"name": "deadline",
					"type": "uint256"
				}
			],
			"name": "swapExactTokensForETH",
			"outputs": [
				{
					"internalType": "uint256[]",
					"name": "amounts",
					"type": "uint256[]"
				}
			],
			"stateMutability": "nonpayable",
			"type": "function"
		},
		{
			"inputs": [
				{
					"internalType": "uint256",
					"name": "amountIn",
					"type": "uint256"
				},
				{
					"internalType": "uint256",
					"name": "amountOutMin",
					"type": "uint256"
				},
				{
					"internalType": "address[]",
					"name": "path",
					"type": "address[]"
				},
				{
					"internalType": "address",
					"name": "to",
					"type": "address"
				},
				{
					"internalType": "uint256",
					"name": "deadline",
					"type": "uint256"
				}
			],
			"name": "swapExactTokensForETHSupportingFeeOnTransferTokens",
			"outputs": [],
			"stateMutability": "nonpayable",
			"type": "function"
		},
		{
			"inputs": [
				{
					"internalType": "uint256",
					"name": "amountIn",
					"type": "uint256"
				},
				{
					"internalType": "uint256",
					"name": "amountOutMin",
					"type": "uint256"
				},
				{
					"internalType": "address[]",
					"name": "path",
					"type": "address[]"
				},
				{
					"internalType": "address",
					"name": "to",
					"type": "address"
				},
				{
					"internalType": "uint256",
					"name": "deadline",
					"type": "uint256"
				}
			],
			"name": "swapExactTokensForTokens",
			"outputs": [
				{
					"internalType": "uint256[]",
					"name": "amounts",
					"type": "uint256[]"
				}
			],
			"stateMutability": "nonpayable",
			"type": "function"
		},
		{
			"inputs": [
				{
					"internalType": "uint256",
					"name": "amountIn",
					"type": "uint256"
				},
				{
					"internalType": "uint256",
					"name": "amountOutMin",
					"type": "uint256"
				},
				{
					"internalType": "address[]",
					"name": "path",
					"type": "address[]"
				},
				{
					"internalType": "address",
					"name": "to",
					"type": "address"
				},
				{
					"internalType": "uint256",
					"name": "deadline",
					"type": "uint256"
				}
			],
			"name": "swapExactTokensForTokensSupportingFeeOnTransferTokens",
			"outputs": [],
			"stateMutability": "nonpayable",
			"type": "function"
		},
		{
			"inputs": [
				{
					"internalType": "uint256",
					"name": "amountOut",
					"type": "uint256"
				},
				{
					"internalType": "uint256",
					"name": "amountInMax",
					"type": "uint256"
				},
				{
					"internalType": "address[]",
					"name": "path",
					"type": "address[]"
				},
				{
					"internalType": "address",
					"name": "to",
					"type": "address"
				},
				{
					"internalType": "uint256",
					"name": "deadline",
					"type": "uint256"
				}
			],
			"name": "swapTokensForExactETH",
			"outputs": [
				{
					"internalType": "uint256[]",
					"name": "amounts",
					"type": "uint256[]"
				}
			],
			"stateMutability": "nonpayable",
			"type": "function"
		},
		{
			"inputs": [
				{
					"internalType": "uint256",
					"name": "amountOut",
					"type": "uint256"
				},
				{
					"internalType": "uint256",
					"name": "amountInMax",
					"type": "uint256"
				},
				{
					"internalType": "address[]",
					"name": "path",
					"type": "address[]"
				},
				{
					"internalType": "address",
					"name": "to",
					"type": "address"
				},
				{
					"internalType": "uint256",
					"name": "deadline",
					"type": "uint256"
				}
			],
			"name": "swapTokensForExactTokens",
			"outputs": [
				{
					"internalType": "uint256[]",
					"name": "amounts",
					"type": "uint256[]"
				}
			],
			"stateMutability": "nonpayable",
			"type": "function"
		},
		{
			"stateMutability": "payable",
			"type": "receive"
		}
	]
}